Archive member included because of file (symbol)

C:\Users\Envido32\Documents\LPCXpresso_4.0.5_123\workspace\Lib_CMSISv1p30_LPC17xx\Debug\libCMSISv1p30_LPC17xx.a(system_LPC17xx.o)
                              ./cr_startup_lpc17.o (SystemInit)
C:\Users\Envido32\Documents\LPCXpresso_4.0.5_123\workspace\Lib_MCU\Debug\libLib_MCU.a(lpc17xx_gpio.o)
                              ./main.o (GPIO_SetDir)
C:\Users\Envido32\Documents\LPCXpresso_4.0.5_123\workspace\FreeRTOS_Library\Debug\libFreeRTOS_Library.a(queue.o)
                              ./main.o (xQueueCreate)
C:\Users\Envido32\Documents\LPCXpresso_4.0.5_123\workspace\FreeRTOS_Library\Debug\libFreeRTOS_Library.a(tasks.o)
                              ./main.o (xTaskGenericCreate)
C:\Users\Envido32\Documents\LPCXpresso_4.0.5_123\workspace\FreeRTOS_Library\Debug\libFreeRTOS_Library.a(heap_2.o)
                              C:\Users\Envido32\Documents\LPCXpresso_4.0.5_123\workspace\FreeRTOS_Library\Debug\libFreeRTOS_Library.a(queue.o) (pvPortMalloc)
C:\Users\Envido32\Documents\LPCXpresso_4.0.5_123\workspace\FreeRTOS_Library\Debug\libFreeRTOS_Library.a(port.o)
                              C:\Users\Envido32\Documents\LPCXpresso_4.0.5_123\workspace\FreeRTOS_Library\Debug\libFreeRTOS_Library.a(tasks.o) (pxPortInitialiseStack)
C:\Users\Envido32\Documents\LPCXpresso_4.0.5_123\workspace\FreeRTOS_Library\Debug\libFreeRTOS_Library.a(list.o)
                              C:\Users\Envido32\Documents\LPCXpresso_4.0.5_123\workspace\FreeRTOS_Library\Debug\libFreeRTOS_Library.a(queue.o) (vListInitialise)
c:/nxp/lpcxpresso_4.0.5_123/lpcxpresso/tools/bin/../lib/gcc/arm-none-eabi/4.5.1/../../../../arm-none-eabi/lib/thumb2\libcr_c.a(fpprintf.o)
                              ./main.o (printf)
c:/nxp/lpcxpresso_4.0.5_123/lpcxpresso/tools/bin/../lib/gcc/arm-none-eabi/4.5.1/../../../../arm-none-eabi/lib/thumb2\libcr_c.a(printf.o)
                              c:/nxp/lpcxpresso_4.0.5_123/lpcxpresso/tools/bin/../lib/gcc/arm-none-eabi/4.5.1/../../../../arm-none-eabi/lib/thumb2\libcr_c.a(fpprintf.o) (__vfprintf)
c:/nxp/lpcxpresso_4.0.5_123/lpcxpresso/tools/bin/../lib/gcc/arm-none-eabi/4.5.1/../../../../arm-none-eabi/lib/thumb2\libcr_c.a(stdio.o)
                              c:/nxp/lpcxpresso_4.0.5_123/lpcxpresso/tools/bin/../lib/gcc/arm-none-eabi/4.5.1/../../../../arm-none-eabi/lib/thumb2\libcr_c.a(fpprintf.o) (__Ciob)
c:/nxp/lpcxpresso_4.0.5_123/lpcxpresso/tools/bin/../lib/gcc/arm-none-eabi/4.5.1/../../../../arm-none-eabi/lib/thumb2\libcr_c.a(strlen.o)
                              c:/nxp/lpcxpresso_4.0.5_123/lpcxpresso/tools/bin/../lib/gcc/arm-none-eabi/4.5.1/../../../../arm-none-eabi/lib/thumb2\libcr_c.a(printf.o) (strlen)
c:/nxp/lpcxpresso_4.0.5_123/lpcxpresso/tools/bin/../lib/gcc/arm-none-eabi/4.5.1/../../../../arm-none-eabi/lib/thumb2\libcr_c.a(strncpy.o)
                              C:\Users\Envido32\Documents\LPCXpresso_4.0.5_123\workspace\FreeRTOS_Library\Debug\libFreeRTOS_Library.a(tasks.o) (strncpy)
c:/nxp/lpcxpresso_4.0.5_123/lpcxpresso/tools/bin/../lib/gcc/arm-none-eabi/4.5.1/../../../../arm-none-eabi/lib/thumb2\libcr_c.a(memcpy.o)
                              C:\Users\Envido32\Documents\LPCXpresso_4.0.5_123\workspace\FreeRTOS_Library\Debug\libFreeRTOS_Library.a(queue.o) (memcpy)
c:/nxp/lpcxpresso_4.0.5_123/lpcxpresso/tools/bin/../lib/gcc/arm-none-eabi/4.5.1/../../../../arm-none-eabi/lib/thumb2\libcr_c.a(memset.o)
                              C:\Users\Envido32\Documents\LPCXpresso_4.0.5_123\workspace\FreeRTOS_Library\Debug\libFreeRTOS_Library.a(tasks.o) (memset)
c:/nxp/lpcxpresso_4.0.5_123/lpcxpresso/tools/bin/../lib/gcc/arm-none-eabi/4.5.1/../../../../arm-none-eabi/lib/thumb2\libcr_c.a(__fillbuf.o)
                              c:/nxp/lpcxpresso_4.0.5_123/lpcxpresso/tools/bin/../lib/gcc/arm-none-eabi/4.5.1/../../../../arm-none-eabi/lib/thumb2\libcr_c.a(stdio.o) (__filbuf)
c:/nxp/lpcxpresso_4.0.5_123/lpcxpresso/tools/bin/../lib/gcc/arm-none-eabi/4.5.1/../../../../arm-none-eabi/lib/thumb2\libcr_c.a(_deferredlazyseek.o)
                              c:/nxp/lpcxpresso_4.0.5_123/lpcxpresso/tools/bin/../lib/gcc/arm-none-eabi/4.5.1/../../../../arm-none-eabi/lib/thumb2\libcr_c.a(__fillbuf.o) (_deferredlazyseek)
c:/nxp/lpcxpresso_4.0.5_123/lpcxpresso/tools/bin/../lib/gcc/arm-none-eabi/4.5.1/../../../../arm-none-eabi/lib/thumb2\libcr_c.a(_fflush.o)
                              c:/nxp/lpcxpresso_4.0.5_123/lpcxpresso/tools/bin/../lib/gcc/arm-none-eabi/4.5.1/../../../../arm-none-eabi/lib/thumb2\libcr_c.a(__fillbuf.o) (_fflush)
c:/nxp/lpcxpresso_4.0.5_123/lpcxpresso/tools/bin/../lib/gcc/arm-none-eabi/4.5.1/../../../../arm-none-eabi/lib/thumb2\libcr_c.a(_frexpl.o)
                              c:/nxp/lpcxpresso_4.0.5_123/lpcxpresso/tools/bin/../lib/gcc/arm-none-eabi/4.5.1/../../../../arm-none-eabi/lib/thumb2\libcr_c.a(fpprintf.o) (_frexpl)
c:/nxp/lpcxpresso_4.0.5_123/lpcxpresso/tools/bin/../lib/gcc/arm-none-eabi/4.5.1/../../../../arm-none-eabi/lib/thumb2\libcr_c.a(_ldexpl.o)
                              c:/nxp/lpcxpresso_4.0.5_123/lpcxpresso/tools/bin/../lib/gcc/arm-none-eabi/4.5.1/../../../../arm-none-eabi/lib/thumb2\libcr_c.a(fpprintf.o) (_ldexpl)
c:/nxp/lpcxpresso_4.0.5_123/lpcxpresso/tools/bin/../lib/gcc/arm-none-eabi/4.5.1/../../../../arm-none-eabi/lib/thumb2\libcr_c.a(_writebuf.o)
                              c:/nxp/lpcxpresso_4.0.5_123/lpcxpresso/tools/bin/../lib/gcc/arm-none-eabi/4.5.1/../../../../arm-none-eabi/lib/thumb2\libcr_c.a(_deferredlazyseek.o) (_Cwritebuf)
c:/nxp/lpcxpresso_4.0.5_123/lpcxpresso/tools/bin/../lib/gcc/arm-none-eabi/4.5.1/../../../../arm-none-eabi/lib/thumb2\libcr_c.a(alloc.o)
                              c:/nxp/lpcxpresso_4.0.5_123/lpcxpresso/tools/bin/../lib/gcc/arm-none-eabi/4.5.1/../../../../arm-none-eabi/lib/thumb2\libcr_c.a(fpprintf.o) (malloc)
c:/nxp/lpcxpresso_4.0.5_123/lpcxpresso/tools/bin/../lib/gcc/arm-none-eabi/4.5.1/../../../../arm-none-eabi/lib/thumb2\libcr_c.a(ctype.o)
                              c:/nxp/lpcxpresso_4.0.5_123/lpcxpresso/tools/bin/../lib/gcc/arm-none-eabi/4.5.1/../../../../arm-none-eabi/lib/thumb2\libcr_c.a(printf.o) (__ctype)
c:/nxp/lpcxpresso_4.0.5_123/lpcxpresso/tools/bin/../lib/gcc/arm-none-eabi/4.5.1/../../../../arm-none-eabi/lib/thumb2\libcr_c.a(errno.o)
                              c:/nxp/lpcxpresso_4.0.5_123/lpcxpresso/tools/bin/../lib/gcc/arm-none-eabi/4.5.1/../../../../arm-none-eabi/lib/thumb2\libcr_c.a(_ldexpl.o) (errno)
c:/nxp/lpcxpresso_4.0.5_123/lpcxpresso/tools/bin/../lib/gcc/arm-none-eabi/4.5.1/../../../../arm-none-eabi/lib/thumb2\libcr_c.a(fseek.o)
                              c:/nxp/lpcxpresso_4.0.5_123/lpcxpresso/tools/bin/../lib/gcc/arm-none-eabi/4.5.1/../../../../arm-none-eabi/lib/thumb2\libcr_c.a(_deferredlazyseek.o) (fseek)
c:/nxp/lpcxpresso_4.0.5_123/lpcxpresso/tools/bin/../lib/gcc/arm-none-eabi/4.5.1/../../../../arm-none-eabi/lib/thumb2\libcr_c.a(ftell.o)
                              c:/nxp/lpcxpresso_4.0.5_123/lpcxpresso/tools/bin/../lib/gcc/arm-none-eabi/4.5.1/../../../../arm-none-eabi/lib/thumb2\libcr_c.a(fseek.o) (ftell)
c:/nxp/lpcxpresso_4.0.5_123/lpcxpresso/tools/bin/../lib/gcc/arm-none-eabi/4.5.1/../../../../arm-none-eabi/lib/thumb2\libcr_c.a(__init_alloc.o)
                              c:/nxp/lpcxpresso_4.0.5_123/lpcxpresso/tools/bin/../lib/gcc/arm-none-eabi/4.5.1/../../../../arm-none-eabi/lib/thumb2\libcr_c.a(alloc.o) (__heaps)
c:/nxp/lpcxpresso_4.0.5_123/lpcxpresso/tools/bin/../lib/gcc/arm-none-eabi/4.5.1/../../../../arm-none-eabi/lib/thumb2\libcr_c.a(_hugeval.o)
                              c:/nxp/lpcxpresso_4.0.5_123/lpcxpresso/tools/bin/../lib/gcc/arm-none-eabi/4.5.1/../../../../arm-none-eabi/lib/thumb2\libcr_c.a(_ldexpl.o) (__huge_vall)
c:/nxp/lpcxpresso_4.0.5_123/lpcxpresso/tools/bin/../lib/gcc/arm-none-eabi/4.5.1/thumb2\libcr_eabihelpers.a(division.o)
                              C:\Users\Envido32\Documents\LPCXpresso_4.0.5_123\workspace\Lib_CMSISv1p30_LPC17xx\Debug\libCMSISv1p30_LPC17xx.a(system_LPC17xx.o) (__aeabi_uldivmod)
c:/nxp/lpcxpresso_4.0.5_123/lpcxpresso/tools/bin/../lib/gcc/arm-none-eabi/4.5.1/thumb2\libcr_eabihelpers.a(double.o)
                              c:/nxp/lpcxpresso_4.0.5_123/lpcxpresso/tools/bin/../lib/gcc/arm-none-eabi/4.5.1/../../../../arm-none-eabi/lib/thumb2\libcr_c.a(fpprintf.o) (__aeabi_dmul)
c:/nxp/lpcxpresso_4.0.5_123/lpcxpresso/tools/bin/../lib/gcc/arm-none-eabi/4.5.1/thumb2\libcr_eabihelpers.a(memcpy.o)
                              c:/nxp/lpcxpresso_4.0.5_123/lpcxpresso/tools/bin/../lib/gcc/arm-none-eabi/4.5.1/../../../../arm-none-eabi/lib/thumb2\libcr_c.a(memcpy.o) (__aeabi_memcpy)
c:/nxp/lpcxpresso_4.0.5_123/lpcxpresso/tools/bin/../lib/gcc/arm-none-eabi/4.5.1/../../../../arm-none-eabi/lib/thumb2\libcr_semihost.a(__sys_appexit.o)
                              c:/nxp/lpcxpresso_4.0.5_123/lpcxpresso/tools/bin/../lib/gcc/arm-none-eabi/4.5.1/../../../../arm-none-eabi/lib/thumb2\libcr_c.a(alloc.o) (__sys_appexit)
c:/nxp/lpcxpresso_4.0.5_123/lpcxpresso/tools/bin/../lib/gcc/arm-none-eabi/4.5.1/../../../../arm-none-eabi/lib/thumb2\libcr_semihost.a(__sys_flen.o)
                              c:/nxp/lpcxpresso_4.0.5_123/lpcxpresso/tools/bin/../lib/gcc/arm-none-eabi/4.5.1/../../../../arm-none-eabi/lib/thumb2\libcr_c.a(_writebuf.o) (__sys_flen)
c:/nxp/lpcxpresso_4.0.5_123/lpcxpresso/tools/bin/../lib/gcc/arm-none-eabi/4.5.1/../../../../arm-none-eabi/lib/thumb2\libcr_semihost.a(__sys_istty.o)
                              c:/nxp/lpcxpresso_4.0.5_123/lpcxpresso/tools/bin/../lib/gcc/arm-none-eabi/4.5.1/../../../../arm-none-eabi/lib/thumb2\libcr_c.a(_deferredlazyseek.o) (__sys_istty)
c:/nxp/lpcxpresso_4.0.5_123/lpcxpresso/tools/bin/../lib/gcc/arm-none-eabi/4.5.1/../../../../arm-none-eabi/lib/thumb2\libcr_semihost.a(__sys_read.o)
                              c:/nxp/lpcxpresso_4.0.5_123/lpcxpresso/tools/bin/../lib/gcc/arm-none-eabi/4.5.1/../../../../arm-none-eabi/lib/thumb2\libcr_c.a(__fillbuf.o) (__sys_read)
c:/nxp/lpcxpresso_4.0.5_123/lpcxpresso/tools/bin/../lib/gcc/arm-none-eabi/4.5.1/../../../../arm-none-eabi/lib/thumb2\libcr_semihost.a(__sys_readc.o)
                              c:/nxp/lpcxpresso_4.0.5_123/lpcxpresso/tools/bin/../lib/gcc/arm-none-eabi/4.5.1/../../../../arm-none-eabi/lib/thumb2\libcr_c.a(__fillbuf.o) (__sys_readc)
c:/nxp/lpcxpresso_4.0.5_123/lpcxpresso/tools/bin/../lib/gcc/arm-none-eabi/4.5.1/../../../../arm-none-eabi/lib/thumb2\libcr_semihost.a(__sys_seek.o)
                              c:/nxp/lpcxpresso_4.0.5_123/lpcxpresso/tools/bin/../lib/gcc/arm-none-eabi/4.5.1/../../../../arm-none-eabi/lib/thumb2\libcr_c.a(__fillbuf.o) (__sys_seek)
c:/nxp/lpcxpresso_4.0.5_123/lpcxpresso/tools/bin/../lib/gcc/arm-none-eabi/4.5.1/../../../../arm-none-eabi/lib/thumb2\libcr_semihost.a(__sys_write.o)
                              c:/nxp/lpcxpresso_4.0.5_123/lpcxpresso/tools/bin/../lib/gcc/arm-none-eabi/4.5.1/../../../../arm-none-eabi/lib/thumb2\libcr_c.a(fpprintf.o) (__sys_write)
c:/nxp/lpcxpresso_4.0.5_123/lpcxpresso/tools/bin/../lib/gcc/arm-none-eabi/4.5.1/../../../../arm-none-eabi/lib/thumb2\libcr_semihost.a(_cr_sbrk.o)
                              c:/nxp/lpcxpresso_4.0.5_123/lpcxpresso/tools/bin/../lib/gcc/arm-none-eabi/4.5.1/../../../../arm-none-eabi/lib/thumb2\libcr_c.a(alloc.o) (_sbrk)
c:/nxp/lpcxpresso_4.0.5_123/lpcxpresso/tools/bin/../lib/gcc/arm-none-eabi/4.5.1/../../../../arm-none-eabi/lib/thumb2\libcr_semihost.a(_cr_check_heap.o)
                              c:/nxp/lpcxpresso_4.0.5_123/lpcxpresso/tools/bin/../lib/gcc/arm-none-eabi/4.5.1/../../../../arm-none-eabi/lib/thumb2\libcr_semihost.a(_cr_sbrk.o) (__check_heap_overflow)

Allocating common symbols
Common symbol       size              file

xGreen              0x4               ./main.o
xBlue               0x4               ./main.o
xRed                0x4               ./main.o
__heaps             0x4               c:/nxp/lpcxpresso_4.0.5_123/lpcxpresso/tools/bin/../lib/gcc/arm-none-eabi/4.5.1/../../../../arm-none-eabi/lib/thumb2\libcr_c.a(__init_alloc.o)
__end_of_heap       0x4               c:/nxp/lpcxpresso_4.0.5_123/lpcxpresso/tools/bin/../lib/gcc/arm-none-eabi/4.5.1/../../../../arm-none-eabi/lib/thumb2\libcr_c.a(__init_alloc.o)
__Ciob              0x140             c:/nxp/lpcxpresso_4.0.5_123/lpcxpresso/tools/bin/../lib/gcc/arm-none-eabi/4.5.1/../../../../arm-none-eabi/lib/thumb2\libcr_c.a(stdio.o)

Discarded input sections

 .text          0x00000000        0x0 ./cr_startup_lpc17.o
 .data          0x00000000        0x0 ./cr_startup_lpc17.o
 .bss           0x00000000        0x0 ./cr_startup_lpc17.o
 .text.SVCall_Handler
                0x00000000        0x4 ./cr_startup_lpc17.o
 .text.PendSV_Handler
                0x00000000        0x4 ./cr_startup_lpc17.o
 .text.SysTick_Handler
                0x00000000        0x4 ./cr_startup_lpc17.o
 .text          0x00000000        0x0 ./main.o
 .data          0x00000000        0x0 ./main.o
 .text          0x00000000        0x0 C:\Users\Envido32\Documents\LPCXpresso_4.0.5_123\workspace\Lib_CMSISv1p30_LPC17xx\Debug\libCMSISv1p30_LPC17xx.a(system_LPC17xx.o)
 .data          0x00000000        0x4 C:\Users\Envido32\Documents\LPCXpresso_4.0.5_123\workspace\Lib_CMSISv1p30_LPC17xx\Debug\libCMSISv1p30_LPC17xx.a(system_LPC17xx.o)
 .bss           0x00000000        0x0 C:\Users\Envido32\Documents\LPCXpresso_4.0.5_123\workspace\Lib_CMSISv1p30_LPC17xx\Debug\libCMSISv1p30_LPC17xx.a(system_LPC17xx.o)
 .text.SystemCoreClockUpdate
                0x00000000      0x2e4 C:\Users\Envido32\Documents\LPCXpresso_4.0.5_123\workspace\Lib_CMSISv1p30_LPC17xx\Debug\libCMSISv1p30_LPC17xx.a(system_LPC17xx.o)
 .text          0x00000000        0x0 C:\Users\Envido32\Documents\LPCXpresso_4.0.5_123\workspace\Lib_MCU\Debug\libLib_MCU.a(lpc17xx_gpio.o)
 .data          0x00000000        0x0 C:\Users\Envido32\Documents\LPCXpresso_4.0.5_123\workspace\Lib_MCU\Debug\libLib_MCU.a(lpc17xx_gpio.o)
Memory Configuration

Name             Origin             Length             Attributes
MFlash512        0x00000000         0x00080000         xr
RamLoc32         0x10000000         0x00008000         xrw
RamAHB32         0x2007c000         0x00008000         xrw
CANAccFilterRAM  0x40038000         0x00000800         xrw
*default*        0x00000000         0xffffffff

Linker script and memory map

LOAD ./cr_startup_lpc17.o
LOAD ./main.o
LOAD C:\Users\Envido32\Documents\LPCXpresso_4.0.5_123\workspace\Lib_CMSISv1p30_LPC17xx\Debug\libCMSISv1p30_LPC17xx.a
LOAD C:\Users\Envido32\Documents\LPCXpresso_4.0.5_123\workspace\Lib_EaBaseBoard\Debug\libLib_EaBaseBoard.a
LOAD C:\Users\Envido32\Documents\LPCXpresso_4.0.5_123\workspace\Lib_MCU\Debug\libLib_MCU.a
LOAD C:\Users\Envido32\Documents\LPCXpresso_4.0.5_123\workspace\FreeRTOS_Library\Debug\libFreeRTOS_Library.a
START GROUP
LOAD c:/nxp/lpcxpresso_4.0.5_123/lpcxpresso/tools/bin/../lib/gcc/arm-none-eabi/4.5.1/../../../../arm-none-eabi/lib/thumb2\libcr_semihost.a
LOAD c:/nxp/lpcxpresso_4.0.5_123/lpcxpresso/tools/bin/../lib/gcc/arm-none-eabi/4.5.1/../../../../arm-none-eabi/lib/thumb2\libcr_c.a
LOAD c:/nxp/lpcxpresso_4.0.5_123/lpcxpresso/tools/bin/../lib/gcc/arm-none-eabi/4.5.1/thumb2\libcr_eabihelpers.a
END GROUP
                0x00080000                __top_MFlash512 = 0x80000
                0x10008000                __top_RamLoc32 = 0x10008000
                0x20084000                __top_RamAHB32 = 0x20084000
                0x40038800                __top_CANAccFilterRAM = 0x40038800

.text           0x00000000     0x43b0
 FILL mask 0xff
 *(.isr_vector)
 .isr_vector    0x00000000       0xc4 ./cr_startup_lpc17.o
                0x00000000                g_pfnVectors
                0x000000c4                . = ALIGN (0x4)
                0x000000c4                __section_table_start = .
                0x000000c4                __data_section_table = .
                0x000000c4        0x4 LONG 0x43b0 LOADADDR (.data)
                0x000000c8        0x4 LONG 0x10000000 ADDR (.data)
                0x000000cc        0x4 LONG 0x4 SIZEOF (.data)
                0x000000d0        0x4 LONG 0x43b0 LOADADDR (.data_RAM2)
                0x000000d4        0x4 LONG 0x2007c000 ADDR (.data_RAM2)
                0x000000d8        0x4 LONG 0x0 SIZEOF (.data_RAM2)
                0x000000dc        0x4 LONG 0x43b0 LOADADDR (.data_RAM3)
                0x000000e0        0x4 LONG 0x40038000 ADDR (.data_RAM3)
                0x000000e4        0x4 LONG 0x0 SIZEOF (.data_RAM3)
                0x000000e8                __data_section_table_end = .
                0x000000e8                __bss_section_table = .
                0x000000e8        0x4 LONG 0x10000008 ADDR (.bss)
                0x000000ec        0x4 LONG 0x2a80 SIZEOF (.bss)
                0x000000f0        0x4 LONG 0x2007c000 ADDR (.bss_RAM2)
                0x000000f4        0x4 LONG 0x0 SIZEOF (.bss_RAM2)
                0x000000f8        0x4 LONG 0x40038000 ADDR (.bss_RAM3)
                0x000000fc        0x4 LONG 0x0 SIZEOF (.bss_RAM3)
                0x00000100                __bss_section_table_end = .
                0x00000100                __section_table_end = .
 *(.after_vectors*)
 *(.text*)
 .text.NMI_Handler
                0x00000100        0x4 ./cr_startup_lpc17.o
                0x00000100                NMI_Handler
 .text.HardFault_Handler
                0x00000104        0x4 ./cr_startup_lpc17.o
                0x00000104                HardFault_Handler
 .text.MemManage_Handler
                0x00000108        0x4 ./cr_startup_lpc17.o
                0x00000108                MemManage_Handler
 .text.BusFault_Handler
                0x0000010c        0x4 ./cr_startup_lpc17.o
                0x0000010c                BusFault_Handler
 .text.UsageFault_Handler
                0x00000110        0x4 ./cr_startup_lpc17.o
                0x00000110                UsageFault_Handler
 .text.DebugMon_Handler
                0x00000114        0x4 ./cr_startup_lpc17.o
                0x00000114                DebugMon_Handler
 .text.Reset_Handler
                0x00000118       0x70 ./cr_startup_lpc17.o
                0x00000118                ResetISR
                0x00000118                Reset_Handler
 .text.IntDefaultHandler
                0x00000188        0x4 ./cr_startup_lpc17.o
                0x00000188                TIMER2_IRQHandler
                0x00000188                RIT_IRQHandler
                0x00000188                I2C0_IRQHandler
                0x00000188                PWM1_IRQHandler
                0x00000188                I2C1_IRQHandler
                0x00000188                EINT2_IRQHandler
                0x00000188                UART1_IRQHandler
                0x00000188                EINT3_IRQHandler
                0x00000188                TIMER3_IRQHandler
                0x00000188                UART0_IRQHandler
                0x00000188                PLL0_IRQHandler
                0x00000188                CAN_IRQHandler
                0x00000188                PLL1_IRQHandler
                0x00000188                SSP0_IRQHandler
                0x00000188                I2S_IRQHandler
                0x00000188                I2C2_IRQHandler
                0x00000188                RTC_IRQHandler
                0x00000188                TIMER0_IRQHandler
                0x00000188                SPI_IRQHandler
                0x00000188                EINT1_IRQHandler
                0x00000188                TIMER1_IRQHandler
                0x00000188                UART2_IRQHandler
                0x00000188                ADC_IRQHandler
                0x00000188                SSP1_IRQHandler
                0x00000188                USB_IRQHandler
                0x00000188                BOD_IRQHandler
                0x00000188                WDT_IRQHandler
                0x00000188                QEI_IRQHandler
                0x00000188                EINT0_IRQHandler
                0x00000188                DMA_IRQHandler
                0x00000188                UART3_IRQHandler
                0x00000188                MCPWM_IRQHandler
                0x00000188                ENET_IRQHandler
 .text.vTareaBlue
                0x0000018c       0x50 ./main.o
                0x0000018c                vTareaBlue
 .text.vTareaGreen
                0x000001dc       0x50 ./main.o
                0x000001dc                vTareaGreen
 .text.vTareaRed
                0x0000022c       0x50 ./main.o
                0x0000022c                vTareaRed
 .text.vTareaEstadoBoton
                0x0000027c       0xbc ./main.o
                0x0000027c                vTareaEstadoBoton
 .text.main     0x00000338      0x114 ./main.o
                0x00000338                main
 .text.SystemInit
                0x0000044c      0x22c C:\Users\Envido32\Documents\LPCXpresso_4.0.5_123\workspace\Lib_CMSISv1p30_LPC17xx\Debug\libCMSISv1p30_LPC17xx.a(system_LPC17xx.o)
                0x0000044c                SystemInit
 .text.GPIO_GetPointer
                0x00000678       0x7c C:\Users\Envido32\Documents\LPCXpresso_4.0.5_123\workspace\Lib_MCU\Debug\libLib_MCU.a(lpc17xx_gpio.o)
 .text.GPIO_SetDir
                0x000006f4       0x50 C:\Users\Envido32\Documents\LPCXpresso_4.0.5_123\workspace\Lib_MCU\Debug\libLib_MCU.a(lpc17xx_gpio.o)
                0x000006f4                GPIO_SetDir
 .text.GPIO_SetValue
                0x00000744       0x2c C:\Users\Envido32\Documents\LPCXpresso_4.0.5_123\workspace\Lib_MCU\Debug\libLib_MCU.a(lpc17xx_gpio.o)
                0x00000744                GPIO_SetValue
 .text.GPIO_ClearValue
                0x00000770       0x2c C:\Users\Envido32\Documents\LPCXpresso_4.0.5_123\workspace\Lib_MCU\Debug\libLib_MCU.a(lpc17xx_gpio.o)
                0x00000770                GPIO_ClearValue
 .text.GPIO_ReadValue
                0x0000079c       0x30 C:\Users\Envido32\Documents\LPCXpresso_4.0.5_123\workspace\Lib_MCU\Debug\libLib_MCU.a(lpc17xx_gpio.o)
                0x0000079c                GPIO_ReadValue
 .text          0x000007cc      0x4dc C:\Users\Envido32\Documents\LPCXpresso_4.0.5_123\workspace\FreeRTOS_Library\Debug\libFreeRTOS_Library.a(queue.o)
                0x000008d4                xQueueCreate
                0x00000940                xQueueCreateCountingSemaphore
                0x00000958                xQueueGenericSend
                0x00000a3c                xQueueCreateMutex
                0x00000a88                xQueueGenericSendFromISR
                0x00000ae4                xQueueGenericReceive
                0x00000c00                xQueueReceiveFromISR
                0x00000c60                uxQueueMessagesWaiting
                0x00000c74                uxQueueMessagesWaitingFromISR
                0x00000c78                vQueueDelete
                0x00000c8c                xQueueIsQueueEmptyFromISR
                0x00000c98                xQueueIsQueueFullFromISR
 .text          0x00000ca8      0xbf0 C:\Users\Envido32\Documents\LPCXpresso_4.0.5_123\workspace\FreeRTOS_Library\Debug\libFreeRTOS_Library.a(tasks.o)
                0x00000ca8                xTaskGenericCreate
                0x00000ea4                vTaskDelete
                0x00000f20                uxTaskPriorityGet
                0x00000f40                vTaskPrioritySet
                0x00000ff4                vTaskSuspend
                0x0000104c                xTaskIsTaskSuspended
                0x00001078                vTaskResume
                0x000010f4                xTaskResumeFromISR
                0x00001174                vTaskStartScheduler
                0x000011c8                vTaskEndScheduler
                0x000011e8                vTaskSuspendAll
                0x00001200                xTaskGetTickCount
                0x0000121c                uxTaskGetNumberOfTasks
                0x00001228                vTaskIncrementTick
                0x000012f0                xTaskResumeAll
                0x00001468                vTaskDelay
                0x000014c0                vTaskDelayUntil
                0x0000155c                vTaskSwitchContext
                0x00001610                vTaskPlaceOnEventList
                0x0000167c                xTaskRemoveFromEventList
                0x00001704                vTaskSetTimeOutState
                0x0000171c                xTaskCheckForTimeOut
                0x00001798                vTaskMissedYield
                0x000017ac                xTaskGetCurrentTaskHandle
                0x000017b8                vTaskPriorityInherit
                0x00001844                vTaskPriorityDisinherit
 .text          0x00001898      0x144 C:\Users\Envido32\Documents\LPCXpresso_4.0.5_123\workspace\FreeRTOS_Library\Debug\libFreeRTOS_Library.a(heap_2.o)
                0x00001898                pvPortMalloc
                0x00001984                vPortFree
                0x000019c8                xPortGetFreeHeapSize
                0x000019d8                vPortInitialiseBlocks
 .text          0x000019dc      0x15c C:\Users\Envido32\Documents\LPCXpresso_4.0.5_123\workspace\FreeRTOS_Library\Debug\libFreeRTOS_Library.a(port.o)
                0x000019dc                pxPortInitialiseStack
                0x00001a08                vPortSVCHandler
                0x00001a28                vPortStartFirstTask
                0x00001a34                xPortStartScheduler
                0x00001a84                vPortEndScheduler
                0x00001a88                vPortYieldFromISR
                0x00001a98                vPortEnterCritical
                0x00001ab4                vPortExitCritical
                0x00001ad0                xPortPendSVHandler
                0x00001b0c                xPortSysTickHandler
 .text          0x00001b38       0xa4 C:\Users\Envido32\Documents\LPCXpresso_4.0.5_123\workspace\FreeRTOS_Library\Debug\libFreeRTOS_Library.a(list.o)
                0x00001b38                vListInitialise
                0x00001b50                vListInitialiseItem
                0x00001b58                vListInsertEnd
                0x00001b78                vListInsert
                0x00001bb4                vListRemove
 .text.fp_round
                0x00001bdc       0x56 c:/nxp/lpcxpresso_4.0.5_123/lpcxpresso/tools/bin/../lib/gcc/arm-none-eabi/4.5.1/../../../../arm-none-eabi/lib/thumb2\libcr_c.a(fpprintf.o)
 .text.lose_trailing_zeros
                0x00001c32       0x1e c:/nxp/lpcxpresso_4.0.5_123/lpcxpresso/tools/bin/../lib/gcc/arm-none-eabi/4.5.1/../../../../arm-none-eabi/lib/thumb2\libcr_c.a(fpprintf.o)
 .text.pr_dec.clone.0
                0x00001c50       0x24 c:/nxp/lpcxpresso_4.0.5_123/lpcxpresso/tools/bin/../lib/gcc/arm-none-eabi/4.5.1/../../../../arm-none-eabi/lib/thumb2\libcr_c.a(fpprintf.o)
 .text.sprintf  0x00001c74       0x70 c:/nxp/lpcxpresso_4.0.5_123/lpcxpresso/tools/bin/../lib/gcc/arm-none-eabi/4.5.1/../../../../arm-none-eabi/lib/thumb2\libcr_c.a(fpprintf.o)
                0x00001c74                sprintf
 *fill*         0x00001ce4        0x4 00
 .text.fp_display
                0x00001ce8      0x918 c:/nxp/lpcxpresso_4.0.5_123/lpcxpresso/tools/bin/../lib/gcc/arm-none-eabi/4.5.1/../../../../arm-none-eabi/lib/thumb2\libcr_c.a(fpprintf.o)
 .text.vsnprintf
                0x00002600       0x5c c:/nxp/lpcxpresso_4.0.5_123/lpcxpresso/tools/bin/../lib/gcc/arm-none-eabi/4.5.1/../../../../arm-none-eabi/lib/thumb2\libcr_c.a(fpprintf.o)
                0x00002600                vsnprintf
 .text.printf   0x0000265c       0x50 c:/nxp/lpcxpresso_4.0.5_123/lpcxpresso/tools/bin/../lib/gcc/arm-none-eabi/4.5.1/../../../../arm-none-eabi/lib/thumb2\libcr_c.a(fpprintf.o)
                0x0000265c                printf
 .text.__vfprintf
                0x000026ac      0xc3c c:/nxp/lpcxpresso_4.0.5_123/lpcxpresso/tools/bin/../lib/gcc/arm-none-eabi/4.5.1/../../../../arm-none-eabi/lib/thumb2\libcr_c.a(printf.o)
                0x000026ac                __vfprintf
 .text.strlen   0x000032e8       0x4e c:/nxp/lpcxpresso_4.0.5_123/lpcxpresso/tools/bin/../lib/gcc/arm-none-eabi/4.5.1/../../../../arm-none-eabi/lib/thumb2\libcr_c.a(strlen.o)
                0x000032e8                strlen
 .text.strncpy  0x00003336       0x58 c:/nxp/lpcxpresso_4.0.5_123/lpcxpresso/tools/bin/../lib/gcc/arm-none-eabi/4.5.1/../../../../arm-none-eabi/lib/thumb2\libcr_c.a(strncpy.o)
                0x00003336                strncpy
 .text.memcpy   0x0000338e        0x4 c:/nxp/lpcxpresso_4.0.5_123/lpcxpresso/tools/bin/../lib/gcc/arm-none-eabi/4.5.1/../../../../arm-none-eabi/lib/thumb2\libcr_c.a(memcpy.o)
                0x0000338e                memcpy
 .text.memset   0x00003392        0x4 c:/nxp/lpcxpresso_4.0.5_123/lpcxpresso/tools/bin/../lib/gcc/arm-none-eabi/4.5.1/../../../../arm-none-eabi/lib/thumb2\libcr_c.a(memset.o)
                0x00003392                memset
 .text._deferredlazyseek
                0x00003396       0x44 c:/nxp/lpcxpresso_4.0.5_123/lpcxpresso/tools/bin/../lib/gcc/arm-none-eabi/4.5.1/../../../../arm-none-eabi/lib/thumb2\libcr_c.a(_deferredlazyseek.o)
                0x00003396                _deferredlazyseek
 .text.__flsbuf
                0x000033da      0x15e c:/nxp/lpcxpresso_4.0.5_123/lpcxpresso/tools/bin/../lib/gcc/arm-none-eabi/4.5.1/../../../../arm-none-eabi/lib/thumb2\libcr_c.a(_deferredlazyseek.o)
                0x000033da                __flsbuf
 .text._fflush  0x00003538       0x58 c:/nxp/lpcxpresso_4.0.5_123/lpcxpresso/tools/bin/../lib/gcc/arm-none-eabi/4.5.1/../../../../arm-none-eabi/lib/thumb2\libcr_c.a(_fflush.o)
                0x00003538                _fflush
 .text._frexpl  0x00003590       0x62 c:/nxp/lpcxpresso_4.0.5_123/lpcxpresso/tools/bin/../lib/gcc/arm-none-eabi/4.5.1/../../../../arm-none-eabi/lib/thumb2\libcr_c.a(_frexpl.o)
                0x00003590                _frexpl
 *fill*         0x000035f2        0x2 00
 .text._ldexpl  0x000035f4       0x50 c:/nxp/lpcxpresso_4.0.5_123/lpcxpresso/tools/bin/../lib/gcc/arm-none-eabi/4.5.1/../../../../arm-none-eabi/lib/thumb2\libcr_c.a(_ldexpl.o)
                0x000035f4                _ldexpl
 .text._Cwritebuf
                0x00003644       0x88 c:/nxp/lpcxpresso_4.0.5_123/lpcxpresso/tools/bin/../lib/gcc/arm-none-eabi/4.5.1/../../../../arm-none-eabi/lib/thumb2\libcr_c.a(_writebuf.o)
                0x00003644                _Cwritebuf
 .text.malloc   0x000036cc       0xd0 c:/nxp/lpcxpresso_4.0.5_123/lpcxpresso/tools/bin/../lib/gcc/arm-none-eabi/4.5.1/../../../../arm-none-eabi/lib/thumb2\libcr_c.a(alloc.o)
                0x000036cc                malloc
 .text.free     0x0000379c        0xa c:/nxp/lpcxpresso_4.0.5_123/lpcxpresso/tools/bin/../lib/gcc/arm-none-eabi/4.5.1/../../../../arm-none-eabi/lib/thumb2\libcr_c.a(alloc.o)
                0x0000379c                free
 *fill*         0x000037a6        0x2 00
 .text._Csys_alloc
                0x000037a8       0x20 c:/nxp/lpcxpresso_4.0.5_123/lpcxpresso/tools/bin/../lib/gcc/arm-none-eabi/4.5.1/../../../../arm-none-eabi/lib/thumb2\libcr_c.a(alloc.o)
                0x000037a8                _Csys_alloc
 .text.fseek    0x000037c8      0x110 c:/nxp/lpcxpresso_4.0.5_123/lpcxpresso/tools/bin/../lib/gcc/arm-none-eabi/4.5.1/../../../../arm-none-eabi/lib/thumb2\libcr_c.a(fseek.o)
                0x000037c8                fseek
 .text.ftell    0x000038d8       0x50 c:/nxp/lpcxpresso_4.0.5_123/lpcxpresso/tools/bin/../lib/gcc/arm-none-eabi/4.5.1/../../../../arm-none-eabi/lib/thumb2\libcr_c.a(ftell.o)
                0x000038d8                ftell
 .text.__aeabi_dmul
                0x00003928      0x128 c:/nxp/lpcxpresso_4.0.5_123/lpcxpresso/tools/bin/../lib/gcc/arm-none-eabi/4.5.1/thumb2\libcr_eabihelpers.a(double.o)
                0x00003928                __aeabi_dmul
 .text.__aeabi_ddiv
                0x00003a50      0x144 c:/nxp/lpcxpresso_4.0.5_123/lpcxpresso/tools/bin/../lib/gcc/arm-none-eabi/4.5.1/thumb2\libcr_eabihelpers.a(double.o)
                0x00003a50                __aeabi_ddiv
 .text.__aeabi_dsub
                0x00003b94      0x1d8 c:/nxp/lpcxpresso_4.0.5_123/lpcxpresso/tools/bin/../lib/gcc/arm-none-eabi/4.5.1/thumb2\libcr_eabihelpers.a(double.o)
                0x00003b94                __aeabi_dsub
 .text.__aeabi_dadd
                0x00003d6c      0x13c c:/nxp/lpcxpresso_4.0.5_123/lpcxpresso/tools/bin/../lib/gcc/arm-none-eabi/4.5.1/thumb2\libcr_eabihelpers.a(double.o)
                0x00003d6c                __aeabi_dadd
 .text.__aeabi_d2iz
                0x00003ea8       0x3e c:/nxp/lpcxpresso_4.0.5_123/lpcxpresso/tools/bin/../lib/gcc/arm-none-eabi/4.5.1/thumb2\libcr_eabihelpers.a(double.o)
                0x00003ea8                __aeabi_d2iz
 .text.__bhs_ui2d
                0x00003ee6       0x50 c:/nxp/lpcxpresso_4.0.5_123/lpcxpresso/tools/bin/../lib/gcc/arm-none-eabi/4.5.1/thumb2\libcr_eabihelpers.a(double.o)
                0x00003ee6                __bhs_ui2d
 .text.__aeabi_i2d
                0x00003f36       0x10 c:/nxp/lpcxpresso_4.0.5_123/lpcxpresso/tools/bin/../lib/gcc/arm-none-eabi/4.5.1/thumb2\libcr_eabihelpers.a(double.o)
                0x00003f36                __aeabi_i2d
 .text.__aeabi_dcmpeq
                0x00003f46       0x36 c:/nxp/lpcxpresso_4.0.5_123/lpcxpresso/tools/bin/../lib/gcc/arm-none-eabi/4.5.1/thumb2\libcr_eabihelpers.a(double.o)
                0x00003f46                __aeabi_dcmpeq
 .text.__aeabi_dcmplt
                0x00003f7c       0x5a c:/nxp/lpcxpresso_4.0.5_123/lpcxpresso/tools/bin/../lib/gcc/arm-none-eabi/4.5.1/thumb2\libcr_eabihelpers.a(double.o)
                0x00003f7c                __aeabi_dcmplt
 .text.__aeabi_dcmple
                0x00003fd6       0x5a c:/nxp/lpcxpresso_4.0.5_123/lpcxpresso/tools/bin/../lib/gcc/arm-none-eabi/4.5.1/thumb2\libcr_eabihelpers.a(double.o)
                0x00003fd6                __aeabi_dcmple
 .text.__aeabi_dcmpge
                0x00004030       0x5a c:/nxp/lpcxpresso_4.0.5_123/lpcxpresso/tools/bin/../lib/gcc/arm-none-eabi/4.5.1/thumb2\libcr_eabihelpers.a(double.o)
                0x00004030                __aeabi_dcmpge
 .text.__aeabi_memcpy
                0x0000408a       0x26 c:/nxp/lpcxpresso_4.0.5_123/lpcxpresso/tools/bin/../lib/gcc/arm-none-eabi/4.5.1/thumb2\libcr_eabihelpers.a(memcpy.o)
                0x0000408a                __aeabi_memcpy4
                0x0000408a                __aeabi_memcpy8
                0x0000408a                __aeabi_memcpy
 .text.__aeabi_memset_lowlevel
                0x000040b0       0x24 c:/nxp/lpcxpresso_4.0.5_123/lpcxpresso/tools/bin/../lib/gcc/arm-none-eabi/4.5.1/thumb2\libcr_eabihelpers.a(memcpy.o)
                0x000040b0                __aeabi_lowlevel_memset
 .text.__sys_appexit
                0x000040d4        0xc c:/nxp/lpcxpresso_4.0.5_123/lpcxpresso/tools/bin/../lib/gcc/arm-none-eabi/4.5.1/../../../../arm-none-eabi/lib/thumb2\libcr_semihost.a(__sys_appexit.o)
                0x000040d4                __sys_appexit
                0x000040d4                __exit
 .text.__sys_flen
                0x000040e0        0xc c:/nxp/lpcxpresso_4.0.5_123/lpcxpresso/tools/bin/../lib/gcc/arm-none-eabi/4.5.1/../../../../arm-none-eabi/lib/thumb2\libcr_semihost.a(__sys_flen.o)
                0x000040e0                __sys_flen
 .text.__sys_istty
                0x000040ec        0xc c:/nxp/lpcxpresso_4.0.5_123/lpcxpresso/tools/bin/../lib/gcc/arm-none-eabi/4.5.1/../../../../arm-none-eabi/lib/thumb2\libcr_semihost.a(__sys_istty.o)
                0x000040ec                __sys_istty
 .text.__sys_seek
                0x000040f8        0xc c:/nxp/lpcxpresso_4.0.5_123/lpcxpresso/tools/bin/../lib/gcc/arm-none-eabi/4.5.1/../../../../arm-none-eabi/lib/thumb2\libcr_semihost.a(__sys_seek.o)
                0x000040f8                __sys_seek
 .text.__sys_write
                0x00004104        0xc c:/nxp/lpcxpresso_4.0.5_123/lpcxpresso/tools/bin/../lib/gcc/arm-none-eabi/4.5.1/../../../../arm-none-eabi/lib/thumb2\libcr_semihost.a(__sys_write.o)
                0x00004104                __sys_write
                0x00004104                __write
 .text._sbrk    0x00004110       0x40 c:/nxp/lpcxpresso_4.0.5_123/lpcxpresso/tools/bin/../lib/gcc/arm-none-eabi/4.5.1/../../../../arm-none-eabi/lib/thumb2\libcr_semihost.a(_cr_sbrk.o)
                0x00004110                _sbrk
 .text.__check_heap_overflow
                0x00004150       0x2c c:/nxp/lpcxpresso_4.0.5_123/lpcxpresso/tools/bin/../lib/gcc/arm-none-eabi/4.5.1/../../../../arm-none-eabi/lib/thumb2\libcr_semihost.a(_cr_check_heap.o)
                0x00004150                __check_heap_overflow
 *(.rodata .rodata.*)
 .rodata.str1.4
                0x0000417c       0x1d ./main.o
                                 0x20 (size before relaxing)
 *fill*         0x00004199        0x3 00
 .rodata.str1.4
                0x0000419c        0x8 C:\Users\Envido32\Documents\LPCXpresso_4.0.5_123\workspace\FreeRTOS_Library\Debug\libFreeRTOS_Library.a(tasks.o)
 .rodata.str1.1
                0x000041a4       0x34 c:/nxp/lpcxpresso_4.0.5_123/lpcxpresso/tools/bin/../lib/gcc/arm-none-eabi/4.5.1/../../../../arm-none-eabi/lib/thumb2\libcr_c.a(fpprintf.o)
                                 0x35 (size before relaxing)
 .rodata.str1.1
                0x000041d8       0x31 c:/nxp/lpcxpresso_4.0.5_123/lpcxpresso/tools/bin/../lib/gcc/arm-none-eabi/4.5.1/../../../../arm-none-eabi/lib/thumb2\libcr_c.a(printf.o)
                                 0x38 (size before relaxing)
 .rodata.str1.1
                0x00004209       0x18 c:/nxp/lpcxpresso_4.0.5_123/lpcxpresso/tools/bin/../lib/gcc/arm-none-eabi/4.5.1/../../../../arm-none-eabi/lib/thumb2\libcr_c.a(alloc.o)
 .rodata.__ctype
                0x00004221      0x180 c:/nxp/lpcxpresso_4.0.5_123/lpcxpresso/tools/bin/../lib/gcc/arm-none-eabi/4.5.1/../../../../arm-none-eabi/lib/thumb2\libcr_c.a(ctype.o)
                0x00004221                __ctype
 *fill*         0x000043a1        0x7 00
 .rodata.__huge_vall
                0x000043a8        0x8 c:/nxp/lpcxpresso_4.0.5_123/lpcxpresso/tools/bin/../lib/gcc/arm-none-eabi/4.5.1/../../../../arm-none-eabi/lib/thumb2\libcr_c.a(_hugeval.o)
                0x000043a8                __huge_vall
                0x000043b0                . = ALIGN (0x4)

.glue_7         0x000043b0        0x0
 .glue_7        0x00000000        0x0 linker stubs

.glue_7t        0x000043b0        0x0
 .glue_7t       0x00000000        0x0 linker stubs

.vfp11_veneer   0x000043b0        0x0
 .vfp11_veneer  0x00000000        0x0 linker stubs

.v4_bx          0x000043b0        0x0
 .v4_bx         0x00000000        0x0 linker stubs

.ARM.extab
 *(.ARM.extab* .gnu.linkonce.armextab.*)
                0x000043b0                __exidx_start = .

.ARM.exidx
 *(.ARM.exidx* .gnu.linkonce.armexidx.*)
                0x000043b0                __exidx_end = .
                0x000043b0                _etext = .

.data_RAM2      0x2007c000        0x0 load address 0x000043b0
 FILL mask 0xff
 *(.data.$RAM2*)
 *(.data.$RamAHB32*)
                0x2007c000                . = ALIGN (0x4)

.data_RAM3      0x40038000        0x0 load address 0x000043b0
 FILL mask 0xff
 *(.data.$RAM3*)
 *(.data.$CANAccFilterRAM*)
                0x40038000                . = ALIGN (0x4)

.uninit_RESERVED
 *(.bss.$RESERVED*)

.data           0x10000000        0x4 load address 0x000043b0
 FILL mask 0xff
                0x10000000                _data = .
 *(vtable)
 *(.data*)
 .data          0x10000000        0x4 C:\Users\Envido32\Documents\LPCXpresso_4.0.5_123\workspace\FreeRTOS_Library\Debug\libFreeRTOS_Library.a(port.o)
                0x10000004                . = ALIGN (0x4)
                0x10000004                _edata = .

.bss_RAM2       0x2007c000        0x0
 *(.bss.$RAM2*)
 *(.bss.$RamAHB32*)
                0x2007c000                . = ALIGN (0x4)

.bss_RAM3       0x40038000        0x0
 *(.bss.$RAM3*)
 *(.bss.$CANAccFilterRAM*)
                0x40038000                . = ALIGN (0x4)

.bss            0x10000008     0x2a80
                0x10000008                _bss = .
 *(.bss*)
 .bss           0x10000008        0x1 ./main.o
                0x10000008                boton
 *fill*         0x10000009        0x3 00
 .bss           0x1000000c      0x100 C:\Users\Envido32\Documents\LPCXpresso_4.0.5_123\workspace\FreeRTOS_Library\Debug\libFreeRTOS_Library.a(tasks.o)
                0x10000010                pxCurrentTCB
 *fill*         0x1000010c        0x4 00
 .bss           0x10000110     0x2820 C:\Users\Envido32\Documents\LPCXpresso_4.0.5_123\workspace\FreeRTOS_Library\Debug\libFreeRTOS_Library.a(heap_2.o)
 .bss.errno     0x10002930        0x4 c:/nxp/lpcxpresso_4.0.5_123/lpcxpresso/tools/bin/../lib/gcc/arm-none-eabi/4.5.1/../../../../arm-none-eabi/lib/thumb2\libcr_c.a(errno.o)
                0x10002930                errno
 *(COMMON)
 COMMON         0x10002934        0xc ./main.o
                0x10002934                xGreen
                0x10002938                xBlue
                0x1000293c                xRed
 COMMON         0x10002940      0x140 c:/nxp/lpcxpresso_4.0.5_123/lpcxpresso/tools/bin/../lib/gcc/arm-none-eabi/4.5.1/../../../../arm-none-eabi/lib/thumb2\libcr_c.a(stdio.o)
                0x10002940                __Ciob
 COMMON         0x10002a80        0x8 c:/nxp/lpcxpresso_4.0.5_123/lpcxpresso/tools/bin/../lib/gcc/arm-none-eabi/4.5.1/../../../../arm-none-eabi/lib/thumb2\libcr_c.a(__init_alloc.o)
                0x10002a80                __heaps
                0x10002a84                __end_of_heap
                0x10002a88                . = ALIGN (0x4)
                0x10002a88                _ebss = .
                0x10002a88                PROVIDE (end, .)
                0x10002a88                PROVIDE (_pvHeapStart, .)
                0x10008000                PROVIDE (_vStackTop, (__top_RamLoc32 - 0x0))
OUTPUT(Example01.axf elf32-littlearm)

.debug_abbrev   0x00000000      0xc06
 .debug_abbrev  0x00000000       0xe3 ./cr_startup_lpc17.o
 .debug_abbrev  0x000000e3       0xfc ./main.o
 .debug_abbrev  0x000001df       0xce C:\Users\Envido32\Documents\LPCXpresso_4.0.5_123\workspace\Lib_CMSISv1p30_LPC17xx\Debug\libCMSISv1p30_LPC17xx.a(system_LPC17xx.o)
 .debug_abbrev  0x000002ad      0x185 C:\Users\Envido32\Documents\LPCXpresso_4.0.5_123\workspace\Lib_MCU\Debug\libLib_MCU.a(lpc17xx_gpio.o)
 .debug_abbrev  0x00000432      0x1b3 C:\Users\Envido32\Documents\LPCXpresso_4.0.5_123\workspace\FreeRTOS_Library\Debug\libFreeRTOS_Library.a(queue.o)
 .debug_abbrev  0x000005e5      0x285 C:\Users\Envido32\Documents\LPCXpresso_4.0.5_123\workspace\FreeRTOS_Library\Debug\libFreeRTOS_Library.a(tasks.o)
 .debug_abbrev  0x0000086a      0x19a C:\Users\Envido32\Documents\LPCXpresso_4.0.5_123\workspace\FreeRTOS_Library\Debug\libFreeRTOS_Library.a(heap_2.o)
 .debug_abbrev  0x00000a04      0x128 C:\Users\Envido32\Documents\LPCXpresso_4.0.5_123\workspace\FreeRTOS_Library\Debug\libFreeRTOS_Library.a(port.o)
 .debug_abbrev  0x00000b2c       0xda C:\Users\Envido32\Documents\LPCXpresso_4.0.5_123\workspace\FreeRTOS_Library\Debug\libFreeRTOS_Library.a(list.o)

.debug_info     0x00000000     0x3171
 .debug_info    0x00000000      0x215 ./cr_startup_lpc17.o
 .debug_info    0x00000215      0x30b ./main.o
 .debug_info    0x00000520      0x357 C:\Users\Envido32\Documents\LPCXpresso_4.0.5_123\workspace\Lib_CMSISv1p30_LPC17xx\Debug\libCMSISv1p30_LPC17xx.a(system_LPC17xx.o)
 .debug_info    0x00000877      0xb95 C:\Users\Envido32\Documents\LPCXpresso_4.0.5_123\workspace\Lib_MCU\Debug\libLib_MCU.a(lpc17xx_gpio.o)
 .debug_info    0x0000140c      0x816 C:\Users\Envido32\Documents\LPCXpresso_4.0.5_123\workspace\FreeRTOS_Library\Debug\libFreeRTOS_Library.a(queue.o)
 .debug_info    0x00001c22      0xd97 C:\Users\Envido32\Documents\LPCXpresso_4.0.5_123\workspace\FreeRTOS_Library\Debug\libFreeRTOS_Library.a(tasks.o)
 .debug_info    0x000029b9      0x2d3 C:\Users\Envido32\Documents\LPCXpresso_4.0.5_123\workspace\FreeRTOS_Library\Debug\libFreeRTOS_Library.a(heap_2.o)
 .debug_info    0x00002c8c      0x220 C:\Users\Envido32\Documents\LPCXpresso_4.0.5_123\workspace\FreeRTOS_Library\Debug\libFreeRTOS_Library.a(port.o)
 .debug_info    0x00002eac      0x2c5 C:\Users\Envido32\Documents\LPCXpresso_4.0.5_123\workspace\FreeRTOS_Library\Debug\libFreeRTOS_Library.a(list.o)

.debug_line     0x00000000     0x3180
 .debug_line    0x00000000      0x424 ./cr_startup_lpc17.o
 .debug_line    0x00000424      0x609 ./main.o
 .debug_line    0x00000a2d      0x415 C:\Users\Envido32\Documents\LPCXpresso_4.0.5_123\workspace\Lib_CMSISv1p30_LPC17xx\Debug\libCMSISv1p30_LPC17xx.a(system_LPC17xx.o)
 .debug_line    0x00000e42      0x5fa C:\Users\Envido32\Documents\LPCXpresso_4.0.5_123\workspace\Lib_MCU\Debug\libLib_MCU.a(lpc17xx_gpio.o)
 .debug_line    0x0000143c      0x638 C:\Users\Envido32\Documents\LPCXpresso_4.0.5_123\workspace\FreeRTOS_Library\Debug\libFreeRTOS_Library.a(queue.o)
 .debug_line    0x00001a74      0x7b7 C:\Users\Envido32\Documents\LPCXpresso_4.0.5_123\workspace\FreeRTOS_Library\Debug\libFreeRTOS_Library.a(tasks.o)
 .debug_line    0x0000222b      0x54b C:\Users\Envido32\Documents\LPCXpresso_4.0.5_123\workspace\FreeRTOS_Library\Debug\libFreeRTOS_Library.a(heap_2.o)
 .debug_line    0x00002776      0x504 C:\Users\Envido32\Documents\LPCXpresso_4.0.5_123\workspace\FreeRTOS_Library\Debug\libFreeRTOS_Library.a(port.o)
 .debug_line    0x00002c7a      0x506 C:\Users\Envido32\Documents\LPCXpresso_4.0.5_123\workspace\FreeRTOS_Library\Debug\libFreeRTOS_Library.a(list.o)

.debug_macinfo  0x00000000    0x4a32a
 .debug_macinfo
                0x00000000     0x3113 ./cr_startup_lpc17.o
 .debug_macinfo
                0x00003113     0x9cf7 ./main.o
 .debug_macinfo
                0x0000ce0a     0x77f2 C:\Users\Envido32\Documents\LPCXpresso_4.0.5_123\workspace\Lib_CMSISv1p30_LPC17xx\Debug\libCMSISv1p30_LPC17xx.a(system_LPC17xx.o)
 .debug_macinfo
                0x000145fc     0x7ab2 C:\Users\Envido32\Documents\LPCXpresso_4.0.5_123\workspace\Lib_MCU\Debug\libLib_MCU.a(lpc17xx_gpio.o)
 .debug_macinfo
                0x0001c0ae     0x98b7 C:\Users\Envido32\Documents\LPCXpresso_4.0.5_123\workspace\FreeRTOS_Library\Debug\libFreeRTOS_Library.a(queue.o)
 .debug_macinfo
                0x00025965     0x979a C:\Users\Envido32\Documents\LPCXpresso_4.0.5_123\workspace\FreeRTOS_Library\Debug\libFreeRTOS_Library.a(tasks.o)
 .debug_macinfo
                0x0002f0ff     0x9398 C:\Users\Envido32\Documents\LPCXpresso_4.0.5_123\workspace\FreeRTOS_Library\Debug\libFreeRTOS_Library.a(heap_2.o)
 .debug_macinfo
                0x00038497     0x91d5 C:\Users\Envido32\Documents\LPCXpresso_4.0.5_123\workspace\FreeRTOS_Library\Debug\libFreeRTOS_Library.a(port.o)
 .debug_macinfo
                0x0004166c     0x8cbe C:\Users\Envido32\Documents\LPCXpresso_4.0.5_123\workspace\FreeRTOS_Library\Debug\libFreeRTOS_Library.a(list.o)

.debug_loc      0x00000000     0x19e5
 .debug_loc     0x00000000       0x33 ./cr_startup_lpc17.o
 .debug_loc     0x00000033      0x144 ./main.o
 .debug_loc     0x00000177       0x58 C:\Users\Envido32\Documents\LPCXpresso_4.0.5_123\workspace\Lib_CMSISv1p30_LPC17xx\Debug\libCMSISv1p30_LPC17xx.a(system_LPC17xx.o)
 .debug_loc     0x000001cf      0x4d0 C:\Users\Envido32\Documents\LPCXpresso_4.0.5_123\workspace\Lib_MCU\Debug\libLib_MCU.a(lpc17xx_gpio.o)
 .debug_loc     0x0000069f      0x69f C:\Users\Envido32\Documents\LPCXpresso_4.0.5_123\workspace\FreeRTOS_Library\Debug\libFreeRTOS_Library.a(queue.o)
 .debug_loc     0x00000d3e      0x9cc C:\Users\Envido32\Documents\LPCXpresso_4.0.5_123\workspace\FreeRTOS_Library\Debug\libFreeRTOS_Library.a(tasks.o)
 .debug_loc     0x0000170a      0x1fd C:\Users\Envido32\Documents\LPCXpresso_4.0.5_123\workspace\FreeRTOS_Library\Debug\libFreeRTOS_Library.a(heap_2.o)
 .debug_loc     0x00001907       0x89 C:\Users\Envido32\Documents\LPCXpresso_4.0.5_123\workspace\FreeRTOS_Library\Debug\libFreeRTOS_Library.a(port.o)
 .debug_loc     0x00001990       0x55 C:\Users\Envido32\Documents\LPCXpresso_4.0.5_123\workspace\FreeRTOS_Library\Debug\libFreeRTOS_Library.a(list.o)

.debug_pubnames
                0x00000000      0x8f0
 .debug_pubnames
                0x00000000       0xec ./cr_startup_lpc17.o
 .debug_pubnames
                0x000000ec       0x86 ./main.o
 .debug_pubnames
                0x00000172       0x4f C:\Users\Envido32\Documents\LPCXpresso_4.0.5_123\workspace\Lib_CMSISv1p30_LPC17xx\Debug\libCMSISv1p30_LPC17xx.a(system_LPC17xx.o)
 .debug_pubnames
                0x000001c1      0x196 C:\Users\Envido32\Documents\LPCXpresso_4.0.5_123\workspace\Lib_MCU\Debug\libLib_MCU.a(lpc17xx_gpio.o)
 .debug_pubnames
                0x00000357      0x149 C:\Users\Envido32\Documents\LPCXpresso_4.0.5_123\workspace\FreeRTOS_Library\Debug\libFreeRTOS_Library.a(queue.o)
 .debug_pubnames
                0x000004a0      0x26e C:\Users\Envido32\Documents\LPCXpresso_4.0.5_123\workspace\FreeRTOS_Library\Debug\libFreeRTOS_Library.a(tasks.o)
 .debug_pubnames
                0x0000070e       0x64 C:\Users\Envido32\Documents\LPCXpresso_4.0.5_123\workspace\FreeRTOS_Library\Debug\libFreeRTOS_Library.a(heap_2.o)
 .debug_pubnames
                0x00000772      0x10d C:\Users\Envido32\Documents\LPCXpresso_4.0.5_123\workspace\FreeRTOS_Library\Debug\libFreeRTOS_Library.a(port.o)
 .debug_pubnames
                0x0000087f       0x71 C:\Users\Envido32\Documents\LPCXpresso_4.0.5_123\workspace\FreeRTOS_Library\Debug\libFreeRTOS_Library.a(list.o)

.debug_pubtypes
                0x00000000      0x3e3
 .debug_pubtypes
                0x00000000       0x12 ./cr_startup_lpc17.o
 .debug_pubtypes
                0x00000012       0x49 ./main.o
 .debug_pubtypes
                0x0000005b       0x32 C:\Users\Envido32\Documents\LPCXpresso_4.0.5_123\workspace\Lib_CMSISv1p30_LPC17xx\Debug\libCMSISv1p30_LPC17xx.a(system_LPC17xx.o)
 .debug_pubtypes
                0x0000008d       0x7d C:\Users\Envido32\Documents\LPCXpresso_4.0.5_123\workspace\Lib_MCU\Debug\libLib_MCU.a(lpc17xx_gpio.o)
 .debug_pubtypes
                0x0000010a       0xd4 C:\Users\Envido32\Documents\LPCXpresso_4.0.5_123\workspace\FreeRTOS_Library\Debug\libFreeRTOS_Library.a(queue.o)
 .debug_pubtypes
                0x000001de      0x10c C:\Users\Envido32\Documents\LPCXpresso_4.0.5_123\workspace\FreeRTOS_Library\Debug\libFreeRTOS_Library.a(tasks.o)
 .debug_pubtypes
                0x000002ea       0x4c C:\Users\Envido32\Documents\LPCXpresso_4.0.5_123\workspace\FreeRTOS_Library\Debug\libFreeRTOS_Library.a(heap_2.o)
 .debug_pubtypes
                0x00000336       0x33 C:\Users\Envido32\Documents\LPCXpresso_4.0.5_123\workspace\FreeRTOS_Library\Debug\libFreeRTOS_Library.a(port.o)
 .debug_pubtypes
                0x00000369       0x7a C:\Users\Envido32\Documents\LPCXpresso_4.0.5_123\workspace\FreeRTOS_Library\Debug\libFreeRTOS_Library.a(list.o)

.debug_aranges  0x00000000      0x240
 .debug_aranges
                0x00000000       0x70 ./cr_startup_lpc17.o
 .debug_aranges
                0x00000070       0x40 ./main.o
 .debug_aranges
                0x000000b0       0x28 C:\Users\Envido32\Documents\LPCXpresso_4.0.5_123\workspace\Lib_CMSISv1p30_LPC17xx\Debug\libCMSISv1p30_LPC17xx.a(system_LPC17xx.o)
 .debug_aranges
                0x000000d8       0xc8 C:\Users\Envido32\Documents\LPCXpresso_4.0.5_123\workspace\Lib_MCU\Debug\libLib_MCU.a(lpc17xx_gpio.o)
 .debug_aranges
                0x000001a0       0x20 C:\Users\Envido32\Documents\LPCXpresso_4.0.5_123\workspace\FreeRTOS_Library\Debug\libFreeRTOS_Library.a(queue.o)
 .debug_aranges
                0x000001c0       0x20 C:\Users\Envido32\Documents\LPCXpresso_4.0.5_123\workspace\FreeRTOS_Library\Debug\libFreeRTOS_Library.a(tasks.o)
 .debug_aranges
                0x000001e0       0x20 C:\Users\Envido32\Documents\LPCXpresso_4.0.5_123\workspace\FreeRTOS_Library\Debug\libFreeRTOS_Library.a(heap_2.o)
 .debug_aranges
                0x00000200       0x20 C:\Users\Envido32\Documents\LPCXpresso_4.0.5_123\workspace\FreeRTOS_Library\Debug\libFreeRTOS_Library.a(port.o)
 .debug_aranges
                0x00000220       0x20 C:\Users\Envido32\Documents\LPCXpresso_4.0.5_123\workspace\FreeRTOS_Library\Debug\libFreeRTOS_Library.a(list.o)

.debug_ranges   0x00000000      0x1d0
 .debug_ranges  0x00000000       0x60 ./cr_startup_lpc17.o
 .debug_ranges  0x00000060       0x30 ./main.o
 .debug_ranges  0x00000090       0x18 C:\Users\Envido32\Documents\LPCXpresso_4.0.5_123\workspace\Lib_CMSISv1p30_LPC17xx\Debug\libCMSISv1p30_LPC17xx.a(system_LPC17xx.o)
 .debug_ranges  0x000000a8       0xb8 C:\Users\Envido32\Documents\LPCXpresso_4.0.5_123\workspace\Lib_MCU\Debug\libLib_MCU.a(lpc17xx_gpio.o)
 .debug_ranges  0x00000160       0x70 C:\Users\Envido32\Documents\LPCXpresso_4.0.5_123\workspace\FreeRTOS_Library\Debug\libFreeRTOS_Library.a(tasks.o)

.debug_str      0x00000000     0x1504
 .debug_str     0x00000000      0x1b4 ./cr_startup_lpc17.o
                                0x1e8 (size before relaxing)
 .debug_str     0x000001b4       0xdf ./main.o
                                0x1c8 (size before relaxing)
 .debug_str     0x00000293      0x1db C:\Users\Envido32\Documents\LPCXpresso_4.0.5_123\workspace\Lib_CMSISv1p30_LPC17xx\Debug\libCMSISv1p30_LPC17xx.a(system_LPC17xx.o)
                                0x26d (size before relaxing)
 .debug_str     0x0000046e      0x35f C:\Users\Envido32\Documents\LPCXpresso_4.0.5_123\workspace\Lib_MCU\Debug\libLib_MCU.a(lpc17xx_gpio.o)
                                0x442 (size before relaxing)
 .debug_str     0x000007cd      0x41c C:\Users\Envido32\Documents\LPCXpresso_4.0.5_123\workspace\FreeRTOS_Library\Debug\libFreeRTOS_Library.a(queue.o)
                                0x4fe (size before relaxing)
 .debug_str     0x00000be9      0x61f C:\Users\Envido32\Documents\LPCXpresso_4.0.5_123\workspace\FreeRTOS_Library\Debug\libFreeRTOS_Library.a(tasks.o)
                                0x821 (size before relaxing)
 .debug_str     0x00001208      0x150 C:\Users\Envido32\Documents\LPCXpresso_4.0.5_123\workspace\FreeRTOS_Library\Debug\libFreeRTOS_Library.a(heap_2.o)
                                0x24d (size before relaxing)
 .debug_str     0x00001358      0x11a C:\Users\Envido32\Documents\LPCXpresso_4.0.5_123\workspace\FreeRTOS_Library\Debug\libFreeRTOS_Library.a(port.o)
                                0x243 (size before relaxing)
 .debug_str     0x00001472       0x92 C:\Users\Envido32\Documents\LPCXpresso_4.0.5_123\workspace\FreeRTOS_Library\Debug\libFreeRTOS_Library.a(list.o)
                                0x231 (size before relaxing)

.comment        0x00000000       0x2a
 .comment       0x00000000       0x2a ./cr_startup_lpc17.o
                                 0x2b (size before relaxing)
 .comment       0x00000000       0x2b ./main.o
 .comment       0x00000000       0x2b C:\Users\Envido32\Documents\LPCXpresso_4.0.5_123\workspace\Lib_CMSISv1p30_LPC17xx\Debug\libCMSISv1p30_LPC17xx.a(system_LPC17xx.o)
 .comment       0x00000000       0x2b C:\Users\Envido32\Documents\LPCXpresso_4.0.5_123\workspace\Lib_MCU\Debug\libLib_MCU.a(lpc17xx_gpio.o)
 .comment       0x00000000       0x2b C:\Users\Envido32\Documents\LPCXpresso_4.0.5_123\workspace\FreeRTOS_Library\Debug\libFreeRTOS_Library.a(queue.o)
 .comment       0x00000000       0x2b C:\Users\Envido32\Documents\LPCXpresso_4.0.5_123\workspace\FreeRTOS_Library\Debug\libFreeRTOS_Library.a(tasks.o)
 .comment       0x00000000       0x2b C:\Users\Envido32\Documents\LPCXpresso_4.0.5_123\workspace\FreeRTOS_Library\Debug\libFreeRTOS_Library.a(heap_2.o)
 .comment       0x00000000       0x2b C:\Users\Envido32\Documents\LPCXpresso_4.0.5_123\workspace\FreeRTOS_Library\Debug\libFreeRTOS_Library.a(port.o)
 .comment       0x00000000       0x2b C:\Users\Envido32\Documents\LPCXpresso_4.0.5_123\workspace\FreeRTOS_Library\Debug\libFreeRTOS_Library.a(list.o)
 .comment       0x00000000       0x2b c:/nxp/lpcxpresso_4.0.5_123/lpcxpresso/tools/bin/../lib/gcc/arm-none-eabi/4.5.1/../../../../arm-none-eabi/lib/thumb2\libcr_c.a(fpprintf.o)
 .comment       0x00000000       0x2b c:/nxp/lpcxpresso_4.0.5_123/lpcxpresso/tools/bin/../lib/gcc/arm-none-eabi/4.5.1/../../../../arm-none-eabi/lib/thumb2\libcr_c.a(printf.o)
 .comment       0x00000000       0x2b c:/nxp/lpcxpresso_4.0.5_123/lpcxpresso/tools/bin/../lib/gcc/arm-none-eabi/4.5.1/../../../../arm-none-eabi/lib/thumb2\libcr_c.a(stdio.o)
 .comment       0x00000000       0x2b c:/nxp/lpcxpresso_4.0.5_123/lpcxpresso/tools/bin/../lib/gcc/arm-none-eabi/4.5.1/../../../../arm-none-eabi/lib/thumb2\libcr_c.a(strlen.o)
 .comment       0x00000000       0x2b c:/nxp/lpcxpresso_4.0.5_123/lpcxpresso/tools/bin/../lib/gcc/arm-none-eabi/4.5.1/../../../../arm-none-eabi/lib/thumb2\libcr_c.a(strncpy.o)
 .comment       0x00000000       0x2b c:/nxp/lpcxpresso_4.0.5_123/lpcxpresso/tools/bin/../lib/gcc/arm-none-eabi/4.5.1/../../../../arm-none-eabi/lib/thumb2\libcr_c.a(memcpy.o)
 .comment       0x00000000       0x2b c:/nxp/lpcxpresso_4.0.5_123/lpcxpresso/tools/bin/../lib/gcc/arm-none-eabi/4.5.1/../../../../arm-none-eabi/lib/thumb2\libcr_c.a(memset.o)
 .comment       0x00000000       0x2b c:/nxp/lpcxpresso_4.0.5_123/lpcxpresso/tools/bin/../lib/gcc/arm-none-eabi/4.5.1/../../../../arm-none-eabi/lib/thumb2\libcr_c.a(__fillbuf.o)
 .comment       0x00000000       0x2b c:/nxp/lpcxpresso_4.0.5_123/lpcxpresso/tools/bin/../lib/gcc/arm-none-eabi/4.5.1/../../../../arm-none-eabi/lib/thumb2\libcr_c.a(_deferredlazyseek.o)
 .comment       0x00000000       0x2b c:/nxp/lpcxpresso_4.0.5_123/lpcxpresso/tools/bin/../lib/gcc/arm-none-eabi/4.5.1/../../../../arm-none-eabi/lib/thumb2\libcr_c.a(_fflush.o)
 .comment       0x00000000       0x2b c:/nxp/lpcxpresso_4.0.5_123/lpcxpresso/tools/bin/../lib/gcc/arm-none-eabi/4.5.1/../../../../arm-none-eabi/lib/thumb2\libcr_c.a(_frexpl.o)
 .comment       0x00000000       0x2b c:/nxp/lpcxpresso_4.0.5_123/lpcxpresso/tools/bin/../lib/gcc/arm-none-eabi/4.5.1/../../../../arm-none-eabi/lib/thumb2\libcr_c.a(_ldexpl.o)
 .comment       0x00000000       0x2b c:/nxp/lpcxpresso_4.0.5_123/lpcxpresso/tools/bin/../lib/gcc/arm-none-eabi/4.5.1/../../../../arm-none-eabi/lib/thumb2\libcr_c.a(_writebuf.o)
 .comment       0x00000000       0x2b c:/nxp/lpcxpresso_4.0.5_123/lpcxpresso/tools/bin/../lib/gcc/arm-none-eabi/4.5.1/../../../../arm-none-eabi/lib/thumb2\libcr_c.a(alloc.o)
 .comment       0x00000000       0x2b c:/nxp/lpcxpresso_4.0.5_123/lpcxpresso/tools/bin/../lib/gcc/arm-none-eabi/4.5.1/../../../../arm-none-eabi/lib/thumb2\libcr_c.a(ctype.o)
 .comment       0x00000000       0x2b c:/nxp/lpcxpresso_4.0.5_123/lpcxpresso/tools/bin/../lib/gcc/arm-none-eabi/4.5.1/../../../../arm-none-eabi/lib/thumb2\libcr_c.a(errno.o)
 .comment       0x00000000       0x2b c:/nxp/lpcxpresso_4.0.5_123/lpcxpresso/tools/bin/../lib/gcc/arm-none-eabi/4.5.1/../../../../arm-none-eabi/lib/thumb2\libcr_c.a(fseek.o)
 .comment       0x00000000       0x2b c:/nxp/lpcxpresso_4.0.5_123/lpcxpresso/tools/bin/../lib/gcc/arm-none-eabi/4.5.1/../../../../arm-none-eabi/lib/thumb2\libcr_c.a(ftell.o)
 .comment       0x00000000       0x2b c:/nxp/lpcxpresso_4.0.5_123/lpcxpresso/tools/bin/../lib/gcc/arm-none-eabi/4.5.1/../../../../arm-none-eabi/lib/thumb2\libcr_c.a(__init_alloc.o)
 .comment       0x00000000       0x2b c:/nxp/lpcxpresso_4.0.5_123/lpcxpresso/tools/bin/../lib/gcc/arm-none-eabi/4.5.1/../../../../arm-none-eabi/lib/thumb2\libcr_c.a(_hugeval.o)
 .comment       0x00000000       0x2b c:/nxp/lpcxpresso_4.0.5_123/lpcxpresso/tools/bin/../lib/gcc/arm-none-eabi/4.5.1/thumb2\libcr_eabihelpers.a(double.o)
 .comment       0x00000000       0x2b c:/nxp/lpcxpresso_4.0.5_123/lpcxpresso/tools/bin/../lib/gcc/arm-none-eabi/4.5.1/../../../../arm-none-eabi/lib/thumb2\libcr_semihost.a(_cr_sbrk.o)
 .comment       0x00000000       0x2b c:/nxp/lpcxpresso_4.0.5_123/lpcxpresso/tools/bin/../lib/gcc/arm-none-eabi/4.5.1/../../../../arm-none-eabi/lib/thumb2\libcr_semihost.a(_cr_check_heap.o)

.ARM.attributes
                0x00000000       0x2f
 .ARM.attributes
                0x00000000       0x31 ./cr_startup_lpc17.o
 .ARM.attributes
                0x00000031       0x31 ./main.o
 .ARM.attributes
                0x00000062       0x31 C:\Users\Envido32\Documents\LPCXpresso_4.0.5_123\workspace\Lib_CMSISv1p30_LPC17xx\Debug\libCMSISv1p30_LPC17xx.a(system_LPC17xx.o)
 .ARM.attributes
                0x00000093       0x31 C:\Users\Envido32\Documents\LPCXpresso_4.0.5_123\workspace\Lib_MCU\Debug\libLib_MCU.a(lpc17xx_gpio.o)
 .ARM.attributes
                0x000000c4       0x31 C:\Users\Envido32\Documents\LPCXpresso_4.0.5_123\workspace\FreeRTOS_Library\Debug\libFreeRTOS_Library.a(queue.o)
 .ARM.attributes
                0x000000f5       0x31 C:\Users\Envido32\Documents\LPCXpresso_4.0.5_123\workspace\FreeRTOS_Library\Debug\libFreeRTOS_Library.a(tasks.o)
 .ARM.attributes
                0x00000126       0x31 C:\Users\Envido32\Documents\LPCXpresso_4.0.5_123\workspace\FreeRTOS_Library\Debug\libFreeRTOS_Library.a(heap_2.o)
 .ARM.attributes
                0x00000157       0x31 C:\Users\Envido32\Documents\LPCXpresso_4.0.5_123\workspace\FreeRTOS_Library\Debug\libFreeRTOS_Library.a(port.o)
 .ARM.attributes
                0x00000188       0x31 C:\Users\Envido32\Documents\LPCXpresso_4.0.5_123\workspace\FreeRTOS_Library\Debug\libFreeRTOS_Library.a(list.o)
 .ARM.attributes
                0x000001b9       0x31 c:/nxp/lpcxpresso_4.0.5_123/lpcxpresso/tools/bin/../lib/gcc/arm-none-eabi/4.5.1/../../../../arm-none-eabi/lib/thumb2\libcr_c.a(fpprintf.o)
 .ARM.attributes
                0x000001ea       0x31 c:/nxp/lpcxpresso_4.0.5_123/lpcxpresso/tools/bin/../lib/gcc/arm-none-eabi/4.5.1/../../../../arm-none-eabi/lib/thumb2\libcr_c.a(printf.o)
 .ARM.attributes
                0x0000021b       0x31 c:/nxp/lpcxpresso_4.0.5_123/lpcxpresso/tools/bin/../lib/gcc/arm-none-eabi/4.5.1/../../../../arm-none-eabi/lib/thumb2\libcr_c.a(stdio.o)
 .ARM.attributes
                0x0000024c       0x31 c:/nxp/lpcxpresso_4.0.5_123/lpcxpresso/tools/bin/../lib/gcc/arm-none-eabi/4.5.1/../../../../arm-none-eabi/lib/thumb2\libcr_c.a(strlen.o)
 .ARM.attributes
                0x0000027d       0x31 c:/nxp/lpcxpresso_4.0.5_123/lpcxpresso/tools/bin/../lib/gcc/arm-none-eabi/4.5.1/../../../../arm-none-eabi/lib/thumb2\libcr_c.a(strncpy.o)
 .ARM.attributes
                0x000002ae       0x31 c:/nxp/lpcxpresso_4.0.5_123/lpcxpresso/tools/bin/../lib/gcc/arm-none-eabi/4.5.1/../../../../arm-none-eabi/lib/thumb2\libcr_c.a(memcpy.o)
 .ARM.attributes
                0x000002df       0x31 c:/nxp/lpcxpresso_4.0.5_123/lpcxpresso/tools/bin/../lib/gcc/arm-none-eabi/4.5.1/../../../../arm-none-eabi/lib/thumb2\libcr_c.a(memset.o)
 .ARM.attributes
                0x00000310       0x31 c:/nxp/lpcxpresso_4.0.5_123/lpcxpresso/tools/bin/../lib/gcc/arm-none-eabi/4.5.1/../../../../arm-none-eabi/lib/thumb2\libcr_c.a(__fillbuf.o)
 .ARM.attributes
                0x00000341       0x31 c:/nxp/lpcxpresso_4.0.5_123/lpcxpresso/tools/bin/../lib/gcc/arm-none-eabi/4.5.1/../../../../arm-none-eabi/lib/thumb2\libcr_c.a(_deferredlazyseek.o)
 .ARM.attributes
                0x00000372       0x31 c:/nxp/lpcxpresso_4.0.5_123/lpcxpresso/tools/bin/../lib/gcc/arm-none-eabi/4.5.1/../../../../arm-none-eabi/lib/thumb2\libcr_c.a(_fflush.o)
 .ARM.attributes
                0x000003a3       0x31 c:/nxp/lpcxpresso_4.0.5_123/lpcxpresso/tools/bin/../lib/gcc/arm-none-eabi/4.5.1/../../../../arm-none-eabi/lib/thumb2\libcr_c.a(_frexpl.o)
 .ARM.attributes
                0x000003d4       0x31 c:/nxp/lpcxpresso_4.0.5_123/lpcxpresso/tools/bin/../lib/gcc/arm-none-eabi/4.5.1/../../../../arm-none-eabi/lib/thumb2\libcr_c.a(_ldexpl.o)
 .ARM.attributes
                0x00000405       0x31 c:/nxp/lpcxpresso_4.0.5_123/lpcxpresso/tools/bin/../lib/gcc/arm-none-eabi/4.5.1/../../../../arm-none-eabi/lib/thumb2\libcr_c.a(_writebuf.o)
 .ARM.attributes
                0x00000436       0x31 c:/nxp/lpcxpresso_4.0.5_123/lpcxpresso/tools/bin/../lib/gcc/arm-none-eabi/4.5.1/../../../../arm-none-eabi/lib/thumb2\libcr_c.a(alloc.o)
 .ARM.attributes
                0x00000467       0x31 c:/nxp/lpcxpresso_4.0.5_123/lpcxpresso/tools/bin/../lib/gcc/arm-none-eabi/4.5.1/../../../../arm-none-eabi/lib/thumb2\libcr_c.a(ctype.o)
 .ARM.attributes
                0x00000498       0x31 c:/nxp/lpcxpresso_4.0.5_123/lpcxpresso/tools/bin/../lib/gcc/arm-none-eabi/4.5.1/../../../../arm-none-eabi/lib/thumb2\libcr_c.a(errno.o)
 .ARM.attributes
                0x000004c9       0x31 c:/nxp/lpcxpresso_4.0.5_123/lpcxpresso/tools/bin/../lib/gcc/arm-none-eabi/4.5.1/../../../../arm-none-eabi/lib/thumb2\libcr_c.a(fseek.o)
 .ARM.attributes
                0x000004fa       0x31 c:/nxp/lpcxpresso_4.0.5_123/lpcxpresso/tools/bin/../lib/gcc/arm-none-eabi/4.5.1/../../../../arm-none-eabi/lib/thumb2\libcr_c.a(ftell.o)
 .ARM.attributes
                0x0000052b       0x31 c:/nxp/lpcxpresso_4.0.5_123/lpcxpresso/tools/bin/../lib/gcc/arm-none-eabi/4.5.1/../../../../arm-none-eabi/lib/thumb2\libcr_c.a(__init_alloc.o)
 .ARM.attributes
                0x0000055c       0x31 c:/nxp/lpcxpresso_4.0.5_123/lpcxpresso/tools/bin/../lib/gcc/arm-none-eabi/4.5.1/../../../../arm-none-eabi/lib/thumb2\libcr_c.a(_hugeval.o)
 .ARM.attributes
                0x0000058d       0x21 c:/nxp/lpcxpresso_4.0.5_123/lpcxpresso/tools/bin/../lib/gcc/arm-none-eabi/4.5.1/thumb2\libcr_eabihelpers.a(division.o)
 .ARM.attributes
                0x000005ae       0x31 c:/nxp/lpcxpresso_4.0.5_123/lpcxpresso/tools/bin/../lib/gcc/arm-none-eabi/4.5.1/thumb2\libcr_eabihelpers.a(double.o)
 .ARM.attributes
                0x000005df       0x21 c:/nxp/lpcxpresso_4.0.5_123/lpcxpresso/tools/bin/../lib/gcc/arm-none-eabi/4.5.1/thumb2\libcr_eabihelpers.a(memcpy.o)
 .ARM.attributes
                0x00000600       0x21 c:/nxp/lpcxpresso_4.0.5_123/lpcxpresso/tools/bin/../lib/gcc/arm-none-eabi/4.5.1/../../../../arm-none-eabi/lib/thumb2\libcr_semihost.a(__sys_appexit.o)
 .ARM.attributes
                0x00000621       0x21 c:/nxp/lpcxpresso_4.0.5_123/lpcxpresso/tools/bin/../lib/gcc/arm-none-eabi/4.5.1/../../../../arm-none-eabi/lib/thumb2\libcr_semihost.a(__sys_flen.o)
 .ARM.attributes
                0x00000642       0x21 c:/nxp/lpcxpresso_4.0.5_123/lpcxpresso/tools/bin/../lib/gcc/arm-none-eabi/4.5.1/../../../../arm-none-eabi/lib/thumb2\libcr_semihost.a(__sys_istty.o)
 .ARM.attributes
                0x00000663       0x21 c:/nxp/lpcxpresso_4.0.5_123/lpcxpresso/tools/bin/../lib/gcc/arm-none-eabi/4.5.1/../../../../arm-none-eabi/lib/thumb2\libcr_semihost.a(__sys_read.o)
 .ARM.attributes
                0x00000684       0x21 c:/nxp/lpcxpresso_4.0.5_123/lpcxpresso/tools/bin/../lib/gcc/arm-none-eabi/4.5.1/../../../../arm-none-eabi/lib/thumb2\libcr_semihost.a(__sys_readc.o)
 .ARM.attributes
                0x000006a5       0x21 c:/nxp/lpcxpresso_4.0.5_123/lpcxpresso/tools/bin/../lib/gcc/arm-none-eabi/4.5.1/../../../../arm-none-eabi/lib/thumb2\libcr_semihost.a(__sys_seek.o)
 .ARM.attributes
                0x000006c6       0x21 c:/nxp/lpcxpresso_4.0.5_123/lpcxpresso/tools/bin/../lib/gcc/arm-none-eabi/4.5.1/../../../../arm-none-eabi/lib/thumb2\libcr_semihost.a(__sys_write.o)
 .ARM.attributes
                0x000006e7       0x31 c:/nxp/lpcxpresso_4.0.5_123/lpcxpresso/tools/bin/../lib/gcc/arm-none-eabi/4.5.1/../../../../arm-none-eabi/lib/thumb2\libcr_semihost.a(_cr_sbrk.o)
 .ARM.attributes
                0x00000718       0x31 c:/nxp/lpcxpresso_4.0.5_123/lpcxpresso/tools/bin/../lib/gcc/arm-none-eabi/4.5.1/../../../../arm-none-eabi/lib/thumb2\libcr_semihost.a(_cr_check_heap.o)

.debug_frame    0x00000000      0xa70
 .debug_frame   0x00000000       0xc8 ./cr_startup_lpc17.o
 .debug_frame   0x000000c8       0xa4 ./main.o
 .debug_frame   0x0000016c       0x48 C:\Users\Envido32\Documents\LPCXpresso_4.0.5_123\workspace\Lib_CMSISv1p30_LPC17xx\Debug\libCMSISv1p30_LPC17xx.a(system_LPC17xx.o)
 .debug_frame   0x000001b4      0x2c4 C:\Users\Envido32\Documents\LPCXpresso_4.0.5_123\workspace\Lib_MCU\Debug\libLib_MCU.a(lpc17xx_gpio.o)
 .debug_frame   0x00000478      0x19c C:\Users\Envido32\Documents\LPCXpresso_4.0.5_123\workspace\FreeRTOS_Library\Debug\libFreeRTOS_Library.a(queue.o)
 .debug_frame   0x00000614      0x2c4 C:\Users\Envido32\Documents\LPCXpresso_4.0.5_123\workspace\FreeRTOS_Library\Debug\libFreeRTOS_Library.a(tasks.o)
 .debug_frame   0x000008d8       0x68 C:\Users\Envido32\Documents\LPCXpresso_4.0.5_123\workspace\FreeRTOS_Library\Debug\libFreeRTOS_Library.a(heap_2.o)
 .debug_frame   0x00000940       0xc8 C:\Users\Envido32\Documents\LPCXpresso_4.0.5_123\workspace\FreeRTOS_Library\Debug\libFreeRTOS_Library.a(port.o)
 .debug_frame   0x00000a08       0x68 C:\Users\Envido32\Documents\LPCXpresso_4.0.5_123\workspace\FreeRTOS_Library\Debug\libFreeRTOS_Library.a(list.o)
