Archive member included because of file (symbol)

C:\Users\Envido32\Documents\LPCXpresso_4.0.5_123\workspace\Lib_CMSISv1p30_LPC17xx\Debug\libCMSISv1p30_LPC17xx.a(system_LPC17xx.o)
                              ./cr_startup_lpc17.o (SystemInit)
C:\Users\Envido32\Documents\LPCXpresso_4.0.5_123\workspace\Lib_MCU\Debug\libLib_MCU.a(lpc17xx_adc.o)
                              ./main.o (ADC_Init)
C:\Users\Envido32\Documents\LPCXpresso_4.0.5_123\workspace\Lib_MCU\Debug\libLib_MCU.a(lpc17xx_clkpwr.o)
                              C:\Users\Envido32\Documents\LPCXpresso_4.0.5_123\workspace\Lib_MCU\Debug\libLib_MCU.a(lpc17xx_adc.o) (CLKPWR_GetPCLK)
C:\Users\Envido32\Documents\LPCXpresso_4.0.5_123\workspace\Lib_MCU\Debug\libLib_MCU.a(lpc17xx_gpio.o)
                              ./main.o (GPIO_SetDir)
C:\Users\Envido32\Documents\LPCXpresso_4.0.5_123\workspace\Lib_MCU\Debug\libLib_MCU.a(lpc17xx_libcfg_default.o)
                              C:\Users\Envido32\Documents\LPCXpresso_4.0.5_123\workspace\Lib_MCU\Debug\libLib_MCU.a(lpc17xx_adc.o) (check_failed)
C:\Users\Envido32\Documents\LPCXpresso_4.0.5_123\workspace\FreeRTOS_Library\Debug\libFreeRTOS_Library.a(tasks.o)
                              ./main.o (xTaskGenericCreate)
C:\Users\Envido32\Documents\LPCXpresso_4.0.5_123\workspace\FreeRTOS_Library\Debug\libFreeRTOS_Library.a(heap_2.o)
                              C:\Users\Envido32\Documents\LPCXpresso_4.0.5_123\workspace\FreeRTOS_Library\Debug\libFreeRTOS_Library.a(tasks.o) (pvPortMalloc)
C:\Users\Envido32\Documents\LPCXpresso_4.0.5_123\workspace\FreeRTOS_Library\Debug\libFreeRTOS_Library.a(port.o)
                              C:\Users\Envido32\Documents\LPCXpresso_4.0.5_123\workspace\FreeRTOS_Library\Debug\libFreeRTOS_Library.a(tasks.o) (pxPortInitialiseStack)
C:\Users\Envido32\Documents\LPCXpresso_4.0.5_123\workspace\FreeRTOS_Library\Debug\libFreeRTOS_Library.a(list.o)
                              C:\Users\Envido32\Documents\LPCXpresso_4.0.5_123\workspace\FreeRTOS_Library\Debug\libFreeRTOS_Library.a(tasks.o) (vListInitialise)
c:/nxp/lpcxpresso_4.0.5_123/lpcxpresso/tools/bin/../lib/gcc/arm-none-eabi/4.5.1/../../../../arm-none-eabi/lib/thumb2\libcr_c.a(fpprintf.o)
                              ./main.o (printf)
c:/nxp/lpcxpresso_4.0.5_123/lpcxpresso/tools/bin/../lib/gcc/arm-none-eabi/4.5.1/../../../../arm-none-eabi/lib/thumb2\libcr_c.a(printf.o)
                              c:/nxp/lpcxpresso_4.0.5_123/lpcxpresso/tools/bin/../lib/gcc/arm-none-eabi/4.5.1/../../../../arm-none-eabi/lib/thumb2\libcr_c.a(fpprintf.o) (__vfprintf)
c:/nxp/lpcxpresso_4.0.5_123/lpcxpresso/tools/bin/../lib/gcc/arm-none-eabi/4.5.1/../../../../arm-none-eabi/lib/thumb2\libcr_c.a(stdio.o)
                              c:/nxp/lpcxpresso_4.0.5_123/lpcxpresso/tools/bin/../lib/gcc/arm-none-eabi/4.5.1/../../../../arm-none-eabi/lib/thumb2\libcr_c.a(fpprintf.o) (__Ciob)
c:/nxp/lpcxpresso_4.0.5_123/lpcxpresso/tools/bin/../lib/gcc/arm-none-eabi/4.5.1/../../../../arm-none-eabi/lib/thumb2\libcr_c.a(strlen.o)
                              c:/nxp/lpcxpresso_4.0.5_123/lpcxpresso/tools/bin/../lib/gcc/arm-none-eabi/4.5.1/../../../../arm-none-eabi/lib/thumb2\libcr_c.a(printf.o) (strlen)
c:/nxp/lpcxpresso_4.0.5_123/lpcxpresso/tools/bin/../lib/gcc/arm-none-eabi/4.5.1/../../../../arm-none-eabi/lib/thumb2\libcr_c.a(strncpy.o)
                              C:\Users\Envido32\Documents\LPCXpresso_4.0.5_123\workspace\FreeRTOS_Library\Debug\libFreeRTOS_Library.a(tasks.o) (strncpy)
c:/nxp/lpcxpresso_4.0.5_123/lpcxpresso/tools/bin/../lib/gcc/arm-none-eabi/4.5.1/../../../../arm-none-eabi/lib/thumb2\libcr_c.a(memset.o)
                              C:\Users\Envido32\Documents\LPCXpresso_4.0.5_123\workspace\FreeRTOS_Library\Debug\libFreeRTOS_Library.a(tasks.o) (memset)
c:/nxp/lpcxpresso_4.0.5_123/lpcxpresso/tools/bin/../lib/gcc/arm-none-eabi/4.5.1/../../../../arm-none-eabi/lib/thumb2\libcr_c.a(__fillbuf.o)
                              c:/nxp/lpcxpresso_4.0.5_123/lpcxpresso/tools/bin/../lib/gcc/arm-none-eabi/4.5.1/../../../../arm-none-eabi/lib/thumb2\libcr_c.a(stdio.o) (__filbuf)
c:/nxp/lpcxpresso_4.0.5_123/lpcxpresso/tools/bin/../lib/gcc/arm-none-eabi/4.5.1/../../../../arm-none-eabi/lib/thumb2\libcr_c.a(_deferredlazyseek.o)
                              c:/nxp/lpcxpresso_4.0.5_123/lpcxpresso/tools/bin/../lib/gcc/arm-none-eabi/4.5.1/../../../../arm-none-eabi/lib/thumb2\libcr_c.a(__fillbuf.o) (_deferredlazyseek)
c:/nxp/lpcxpresso_4.0.5_123/lpcxpresso/tools/bin/../lib/gcc/arm-none-eabi/4.5.1/../../../../arm-none-eabi/lib/thumb2\libcr_c.a(_fflush.o)
                              c:/nxp/lpcxpresso_4.0.5_123/lpcxpresso/tools/bin/../lib/gcc/arm-none-eabi/4.5.1/../../../../arm-none-eabi/lib/thumb2\libcr_c.a(__fillbuf.o) (_fflush)
c:/nxp/lpcxpresso_4.0.5_123/lpcxpresso/tools/bin/../lib/gcc/arm-none-eabi/4.5.1/../../../../arm-none-eabi/lib/thumb2\libcr_c.a(_frexpl.o)
                              c:/nxp/lpcxpresso_4.0.5_123/lpcxpresso/tools/bin/../lib/gcc/arm-none-eabi/4.5.1/../../../../arm-none-eabi/lib/thumb2\libcr_c.a(fpprintf.o) (_frexpl)
c:/nxp/lpcxpresso_4.0.5_123/lpcxpresso/tools/bin/../lib/gcc/arm-none-eabi/4.5.1/../../../../arm-none-eabi/lib/thumb2\libcr_c.a(_ldexpl.o)
                              c:/nxp/lpcxpresso_4.0.5_123/lpcxpresso/tools/bin/../lib/gcc/arm-none-eabi/4.5.1/../../../../arm-none-eabi/lib/thumb2\libcr_c.a(fpprintf.o) (_ldexpl)
c:/nxp/lpcxpresso_4.0.5_123/lpcxpresso/tools/bin/../lib/gcc/arm-none-eabi/4.5.1/../../../../arm-none-eabi/lib/thumb2\libcr_c.a(_writebuf.o)
                              c:/nxp/lpcxpresso_4.0.5_123/lpcxpresso/tools/bin/../lib/gcc/arm-none-eabi/4.5.1/../../../../arm-none-eabi/lib/thumb2\libcr_c.a(_deferredlazyseek.o) (_Cwritebuf)
c:/nxp/lpcxpresso_4.0.5_123/lpcxpresso/tools/bin/../lib/gcc/arm-none-eabi/4.5.1/../../../../arm-none-eabi/lib/thumb2\libcr_c.a(alloc.o)
                              c:/nxp/lpcxpresso_4.0.5_123/lpcxpresso/tools/bin/../lib/gcc/arm-none-eabi/4.5.1/../../../../arm-none-eabi/lib/thumb2\libcr_c.a(fpprintf.o) (malloc)
c:/nxp/lpcxpresso_4.0.5_123/lpcxpresso/tools/bin/../lib/gcc/arm-none-eabi/4.5.1/../../../../arm-none-eabi/lib/thumb2\libcr_c.a(ctype.o)
                              c:/nxp/lpcxpresso_4.0.5_123/lpcxpresso/tools/bin/../lib/gcc/arm-none-eabi/4.5.1/../../../../arm-none-eabi/lib/thumb2\libcr_c.a(printf.o) (__ctype)
c:/nxp/lpcxpresso_4.0.5_123/lpcxpresso/tools/bin/../lib/gcc/arm-none-eabi/4.5.1/../../../../arm-none-eabi/lib/thumb2\libcr_c.a(errno.o)
                              c:/nxp/lpcxpresso_4.0.5_123/lpcxpresso/tools/bin/../lib/gcc/arm-none-eabi/4.5.1/../../../../arm-none-eabi/lib/thumb2\libcr_c.a(_ldexpl.o) (errno)
c:/nxp/lpcxpresso_4.0.5_123/lpcxpresso/tools/bin/../lib/gcc/arm-none-eabi/4.5.1/../../../../arm-none-eabi/lib/thumb2\libcr_c.a(fseek.o)
                              c:/nxp/lpcxpresso_4.0.5_123/lpcxpresso/tools/bin/../lib/gcc/arm-none-eabi/4.5.1/../../../../arm-none-eabi/lib/thumb2\libcr_c.a(_deferredlazyseek.o) (fseek)
c:/nxp/lpcxpresso_4.0.5_123/lpcxpresso/tools/bin/../lib/gcc/arm-none-eabi/4.5.1/../../../../arm-none-eabi/lib/thumb2\libcr_c.a(ftell.o)
                              c:/nxp/lpcxpresso_4.0.5_123/lpcxpresso/tools/bin/../lib/gcc/arm-none-eabi/4.5.1/../../../../arm-none-eabi/lib/thumb2\libcr_c.a(fseek.o) (ftell)
c:/nxp/lpcxpresso_4.0.5_123/lpcxpresso/tools/bin/../lib/gcc/arm-none-eabi/4.5.1/../../../../arm-none-eabi/lib/thumb2\libcr_c.a(memcpy.o)
                              c:/nxp/lpcxpresso_4.0.5_123/lpcxpresso/tools/bin/../lib/gcc/arm-none-eabi/4.5.1/../../../../arm-none-eabi/lib/thumb2\libcr_c.a(alloc.o) (memcpy)
c:/nxp/lpcxpresso_4.0.5_123/lpcxpresso/tools/bin/../lib/gcc/arm-none-eabi/4.5.1/../../../../arm-none-eabi/lib/thumb2\libcr_c.a(__init_alloc.o)
                              c:/nxp/lpcxpresso_4.0.5_123/lpcxpresso/tools/bin/../lib/gcc/arm-none-eabi/4.5.1/../../../../arm-none-eabi/lib/thumb2\libcr_c.a(alloc.o) (__heaps)
c:/nxp/lpcxpresso_4.0.5_123/lpcxpresso/tools/bin/../lib/gcc/arm-none-eabi/4.5.1/../../../../arm-none-eabi/lib/thumb2\libcr_c.a(_hugeval.o)
                              c:/nxp/lpcxpresso_4.0.5_123/lpcxpresso/tools/bin/../lib/gcc/arm-none-eabi/4.5.1/../../../../arm-none-eabi/lib/thumb2\libcr_c.a(_ldexpl.o) (__huge_vall)
c:/nxp/lpcxpresso_4.0.5_123/lpcxpresso/tools/bin/../lib/gcc/arm-none-eabi/4.5.1/thumb2\libcr_eabihelpers.a(division.o)
                              C:\Users\Envido32\Documents\LPCXpresso_4.0.5_123\workspace\Lib_CMSISv1p30_LPC17xx\Debug\libCMSISv1p30_LPC17xx.a(system_LPC17xx.o) (__aeabi_uldivmod)
c:/nxp/lpcxpresso_4.0.5_123/lpcxpresso/tools/bin/../lib/gcc/arm-none-eabi/4.5.1/thumb2\libcr_eabihelpers.a(double.o)
                              c:/nxp/lpcxpresso_4.0.5_123/lpcxpresso/tools/bin/../lib/gcc/arm-none-eabi/4.5.1/../../../../arm-none-eabi/lib/thumb2\libcr_c.a(fpprintf.o) (__aeabi_dmul)
c:/nxp/lpcxpresso_4.0.5_123/lpcxpresso/tools/bin/../lib/gcc/arm-none-eabi/4.5.1/thumb2\libcr_eabihelpers.a(memcpy.o)
                              c:/nxp/lpcxpresso_4.0.5_123/lpcxpresso/tools/bin/../lib/gcc/arm-none-eabi/4.5.1/../../../../arm-none-eabi/lib/thumb2\libcr_c.a(memcpy.o) (__aeabi_memcpy)
c:/nxp/lpcxpresso_4.0.5_123/lpcxpresso/tools/bin/../lib/gcc/arm-none-eabi/4.5.1/../../../../arm-none-eabi/lib/thumb2\libcr_semihost.a(__sys_appexit.o)
                              c:/nxp/lpcxpresso_4.0.5_123/lpcxpresso/tools/bin/../lib/gcc/arm-none-eabi/4.5.1/../../../../arm-none-eabi/lib/thumb2\libcr_c.a(alloc.o) (__sys_appexit)
c:/nxp/lpcxpresso_4.0.5_123/lpcxpresso/tools/bin/../lib/gcc/arm-none-eabi/4.5.1/../../../../arm-none-eabi/lib/thumb2\libcr_semihost.a(__sys_flen.o)
                              c:/nxp/lpcxpresso_4.0.5_123/lpcxpresso/tools/bin/../lib/gcc/arm-none-eabi/4.5.1/../../../../arm-none-eabi/lib/thumb2\libcr_c.a(_writebuf.o) (__sys_flen)
c:/nxp/lpcxpresso_4.0.5_123/lpcxpresso/tools/bin/../lib/gcc/arm-none-eabi/4.5.1/../../../../arm-none-eabi/lib/thumb2\libcr_semihost.a(__sys_istty.o)
                              c:/nxp/lpcxpresso_4.0.5_123/lpcxpresso/tools/bin/../lib/gcc/arm-none-eabi/4.5.1/../../../../arm-none-eabi/lib/thumb2\libcr_c.a(_deferredlazyseek.o) (__sys_istty)
c:/nxp/lpcxpresso_4.0.5_123/lpcxpresso/tools/bin/../lib/gcc/arm-none-eabi/4.5.1/../../../../arm-none-eabi/lib/thumb2\libcr_semihost.a(__sys_read.o)
                              c:/nxp/lpcxpresso_4.0.5_123/lpcxpresso/tools/bin/../lib/gcc/arm-none-eabi/4.5.1/../../../../arm-none-eabi/lib/thumb2\libcr_c.a(__fillbuf.o) (__sys_read)
c:/nxp/lpcxpresso_4.0.5_123/lpcxpresso/tools/bin/../lib/gcc/arm-none-eabi/4.5.1/../../../../arm-none-eabi/lib/thumb2\libcr_semihost.a(__sys_readc.o)
                              c:/nxp/lpcxpresso_4.0.5_123/lpcxpresso/tools/bin/../lib/gcc/arm-none-eabi/4.5.1/../../../../arm-none-eabi/lib/thumb2\libcr_c.a(__fillbuf.o) (__sys_readc)
c:/nxp/lpcxpresso_4.0.5_123/lpcxpresso/tools/bin/../lib/gcc/arm-none-eabi/4.5.1/../../../../arm-none-eabi/lib/thumb2\libcr_semihost.a(__sys_seek.o)
                              c:/nxp/lpcxpresso_4.0.5_123/lpcxpresso/tools/bin/../lib/gcc/arm-none-eabi/4.5.1/../../../../arm-none-eabi/lib/thumb2\libcr_c.a(__fillbuf.o) (__sys_seek)
c:/nxp/lpcxpresso_4.0.5_123/lpcxpresso/tools/bin/../lib/gcc/arm-none-eabi/4.5.1/../../../../arm-none-eabi/lib/thumb2\libcr_semihost.a(__sys_write.o)
                              c:/nxp/lpcxpresso_4.0.5_123/lpcxpresso/tools/bin/../lib/gcc/arm-none-eabi/4.5.1/../../../../arm-none-eabi/lib/thumb2\libcr_c.a(fpprintf.o) (__sys_write)
c:/nxp/lpcxpresso_4.0.5_123/lpcxpresso/tools/bin/../lib/gcc/arm-none-eabi/4.5.1/../../../../arm-none-eabi/lib/thumb2\libcr_semihost.a(_cr_sbrk.o)
                              c:/nxp/lpcxpresso_4.0.5_123/lpcxpresso/tools/bin/../lib/gcc/arm-none-eabi/4.5.1/../../../../arm-none-eabi/lib/thumb2\libcr_c.a(alloc.o) (_sbrk)
c:/nxp/lpcxpresso_4.0.5_123/lpcxpresso/tools/bin/../lib/gcc/arm-none-eabi/4.5.1/../../../../arm-none-eabi/lib/thumb2\libcr_semihost.a(_cr_check_heap.o)
                              c:/nxp/lpcxpresso_4.0.5_123/lpcxpresso/tools/bin/../lib/gcc/arm-none-eabi/4.5.1/../../../../arm-none-eabi/lib/thumb2\libcr_semihost.a(_cr_sbrk.o) (__check_heap_overflow)

Allocating common symbols
Common symbol       size              file

__heaps             0x4               c:/nxp/lpcxpresso_4.0.5_123/lpcxpresso/tools/bin/../lib/gcc/arm-none-eabi/4.5.1/../../../../arm-none-eabi/lib/thumb2\libcr_c.a(__init_alloc.o)
__end_of_heap       0x4               c:/nxp/lpcxpresso_4.0.5_123/lpcxpresso/tools/bin/../lib/gcc/arm-none-eabi/4.5.1/../../../../arm-none-eabi/lib/thumb2\libcr_c.a(__init_alloc.o)
__Ciob              0x140             c:/nxp/lpcxpresso_4.0.5_123/lpcxpresso/tools/bin/../lib/gcc/arm-none-eabi/4.5.1/../../../../arm-none-eabi/lib/thumb2\libcr_c.a(stdio.o)

Discarded input sections

 .text          0x00000000        0x0 ./cr_startup_lpc17.o
 .data          0x00000000        0x0 ./cr_startup_lpc17.o
 .bss           0x00000000        0x0 ./cr_startup_lpc17.o
 .text.SVCall_Handler
                0x00000000        0x4 ./cr_startup_lpc17.o
 .text.PendSV_Handler
                0x00000000        0x4 ./cr_startup_lpc17.o
 .text.SysTick_Handler
                0x00000000        0x4 ./cr_startup_lpc17.o
 .text          0x00000000        0x0 ./main.o
 .data          0x00000000        0x0 ./main.o
 .text          0x00000000        0x0 C:\Users\Envido32\Documents\LPCXpresso_4.0.5_123\workspace\Lib_CMSISv1p30_LPC17xx\Debug\libCMSISv1p30_LPC17xx.a(system_LPC17xx.o)
 .bss           0x00000000        0x0 C:\Users\Envido32\Documents\LPCXpresso_4.0.5_123\workspace\Lib_CMSISv1p30_LPC17xx\Debug\libCMSISv1p30_LPC17xx.a(system_LPC17xx.o)
 .text.SystemCoreClockUpdate
                0x00000000      0x2e4 C:\Users\Envido32\Documents\LPCXpresso_4.0.5_123\workspace\Lib_CMSISv1p30_LPC17xx\Debug\libCMSISv1p30_LPC17xx.a(system_LPC17xx.o)
 .text          0x00000000        0x0 C:\Users\Envido32\Documents\LPCXpresso_4.0.5_123\workspace\Lib_MCU\Debug\libLib_MCU.a(lpc17xx_adc.o)
 .data          0x00000000        0x0 C:\Users\Envido32\Documents\LPCXpresso_4.0.5_123\workspace\Lib_MCU\Debug\libLib_MCU.a(lpc17xx_adc.o)
 .bss           0x00000000        0x0 C:\Users\Envido32\Documents\LPCXpresso_4.0.5_123\workspace\Lib_MCU\Debug\libLib_MCU.a(lpc17xx_adc.o)
Memory Configuration

Name             Origin             Length             Attributes
MFlash512        0x00000000         0x00080000         xr
RamLoc32         0x10000000         0x00008000         xrw
RamAHB32         0x2007c000         0x00008000         xrw
CANAccFilterRAM  0x40038000         0x00000800         xrw
*default*        0x00000000         0xffffffff

Linker script and memory map

LOAD ./cr_startup_lpc17.o
LOAD ./main.o
LOAD C:\Users\Envido32\Documents\LPCXpresso_4.0.5_123\workspace\Lib_CMSISv1p30_LPC17xx\Debug\libCMSISv1p30_LPC17xx.a
LOAD C:\Users\Envido32\Documents\LPCXpresso_4.0.5_123\workspace\Lib_EaBaseBoard\Debug\libLib_EaBaseBoard.a
LOAD C:\Users\Envido32\Documents\LPCXpresso_4.0.5_123\workspace\Lib_MCU\Debug\libLib_MCU.a
LOAD C:\Users\Envido32\Documents\LPCXpresso_4.0.5_123\workspace\FreeRTOS_Library\Debug\libFreeRTOS_Library.a
START GROUP
LOAD c:/nxp/lpcxpresso_4.0.5_123/lpcxpresso/tools/bin/../lib/gcc/arm-none-eabi/4.5.1/../../../../arm-none-eabi/lib/thumb2\libcr_semihost.a
LOAD c:/nxp/lpcxpresso_4.0.5_123/lpcxpresso/tools/bin/../lib/gcc/arm-none-eabi/4.5.1/../../../../arm-none-eabi/lib/thumb2\libcr_c.a
LOAD c:/nxp/lpcxpresso_4.0.5_123/lpcxpresso/tools/bin/../lib/gcc/arm-none-eabi/4.5.1/thumb2\libcr_eabihelpers.a
END GROUP
                0x00080000                __top_MFlash512 = 0x80000
                0x10008000                __top_RamLoc32 = 0x10008000
                0x20084000                __top_RamAHB32 = 0x20084000
                0x40038800                __top_CANAccFilterRAM = 0x40038800

.text           0x00000000     0x3f50
 FILL mask 0xff
 *(.isr_vector)
 .isr_vector    0x00000000       0xc4 ./cr_startup_lpc17.o
                0x00000000                g_pfnVectors
                0x000000c4                . = ALIGN (0x4)
                0x000000c4                __section_table_start = .
                0x000000c4                __data_section_table = .
                0x000000c4        0x4 LONG 0x3f50 LOADADDR (.data)
                0x000000c8        0x4 LONG 0x10000000 ADDR (.data)
                0x000000cc        0x4 LONG 0x8 SIZEOF (.data)
                0x000000d0        0x4 LONG 0x3f50 LOADADDR (.data_RAM2)
                0x000000d4        0x4 LONG 0x2007c000 ADDR (.data_RAM2)
                0x000000d8        0x4 LONG 0x0 SIZEOF (.data_RAM2)
                0x000000dc        0x4 LONG 0x3f50 LOADADDR (.data_RAM3)
                0x000000e0        0x4 LONG 0x40038000 ADDR (.data_RAM3)
                0x000000e4        0x4 LONG 0x0 SIZEOF (.data_RAM3)
                0x000000e8                __data_section_table_end = .
                0x000000e8                __bss_section_table = .
                0x000000e8        0x4 LONG 0x10000008 ADDR (.bss)
                0x000000ec        0x4 LONG 0x2a74 SIZEOF (.bss)
                0x000000f0        0x4 LONG 0x2007c000 ADDR (.bss_RAM2)
                0x000000f4        0x4 LONG 0x0 SIZEOF (.bss_RAM2)
                0x000000f8        0x4 LONG 0x40038000 ADDR (.bss_RAM3)
                0x000000fc        0x4 LONG 0x0 SIZEOF (.bss_RAM3)
                0x00000100                __bss_section_table_end = .
                0x00000100                __section_table_end = .
 *(.after_vectors*)
 *(.text*)
 .text.NMI_Handler
                0x00000100        0x4 ./cr_startup_lpc17.o
                0x00000100                NMI_Handler
 .text.HardFault_Handler
                0x00000104        0x4 ./cr_startup_lpc17.o
                0x00000104                HardFault_Handler
 .text.MemManage_Handler
                0x00000108        0x4 ./cr_startup_lpc17.o
                0x00000108                MemManage_Handler
 .text.BusFault_Handler
                0x0000010c        0x4 ./cr_startup_lpc17.o
                0x0000010c                BusFault_Handler
 .text.UsageFault_Handler
                0x00000110        0x4 ./cr_startup_lpc17.o
                0x00000110                UsageFault_Handler
 .text.DebugMon_Handler
                0x00000114        0x4 ./cr_startup_lpc17.o
                0x00000114                DebugMon_Handler
 .text.Reset_Handler
                0x00000118       0x70 ./cr_startup_lpc17.o
                0x00000118                ResetISR
                0x00000118                Reset_Handler
 .text.IntDefaultHandler
                0x00000188        0x4 ./cr_startup_lpc17.o
                0x00000188                TIMER2_IRQHandler
                0x00000188                RIT_IRQHandler
                0x00000188                I2C0_IRQHandler
                0x00000188                PWM1_IRQHandler
                0x00000188                I2C1_IRQHandler
                0x00000188                EINT2_IRQHandler
                0x00000188                UART1_IRQHandler
                0x00000188                EINT3_IRQHandler
                0x00000188                TIMER3_IRQHandler
                0x00000188                UART0_IRQHandler
                0x00000188                PLL0_IRQHandler
                0x00000188                CAN_IRQHandler
                0x00000188                PLL1_IRQHandler
                0x00000188                SSP0_IRQHandler
                0x00000188                I2S_IRQHandler
                0x00000188                I2C2_IRQHandler
                0x00000188                RTC_IRQHandler
                0x00000188                TIMER0_IRQHandler
                0x00000188                SPI_IRQHandler
                0x00000188                EINT1_IRQHandler
                0x00000188                TIMER1_IRQHandler
                0x00000188                UART2_IRQHandler
                0x00000188                ADC_IRQHandler
                0x00000188                SSP1_IRQHandler
                0x00000188                USB_IRQHandler
                0x00000188                BOD_IRQHandler
                0x00000188                WDT_IRQHandler
                0x00000188                QEI_IRQHandler
                0x00000188                EINT0_IRQHandler
                0x00000188                DMA_IRQHandler
                0x00000188                UART3_IRQHandler
                0x00000188                MCPWM_IRQHandler
                0x00000188                ENET_IRQHandler
 .text.vLEDs    0x0000018c       0x88 ./main.o
                0x0000018c                vLEDs
 .text.vADC     0x00000214       0x28 ./main.o
                0x00000214                vADC
 .text.main     0x0000023c       0x64 ./main.o
                0x0000023c                main
 .text.SystemInit
                0x000002a0      0x22c C:\Users\Envido32\Documents\LPCXpresso_4.0.5_123\workspace\Lib_CMSISv1p30_LPC17xx\Debug\libCMSISv1p30_LPC17xx.a(system_LPC17xx.o)
                0x000002a0                SystemInit
 .text.ADC_Init
                0x000004cc       0x94 C:\Users\Envido32\Documents\LPCXpresso_4.0.5_123\workspace\Lib_MCU\Debug\libLib_MCU.a(lpc17xx_adc.o)
                0x000004cc                ADC_Init
 .text.ADC_ChannelGetData
                0x00000560       0x58 C:\Users\Envido32\Documents\LPCXpresso_4.0.5_123\workspace\Lib_MCU\Debug\libLib_MCU.a(lpc17xx_adc.o)
                0x00000560                ADC_ChannelGetData
 .text.CLKPWR_GetPCLKSEL
                0x000005b8       0x54 C:\Users\Envido32\Documents\LPCXpresso_4.0.5_123\workspace\Lib_MCU\Debug\libLib_MCU.a(lpc17xx_clkpwr.o)
                0x000005b8                CLKPWR_GetPCLKSEL
 .text.CLKPWR_GetPCLK
                0x0000060c       0x70 C:\Users\Envido32\Documents\LPCXpresso_4.0.5_123\workspace\Lib_MCU\Debug\libLib_MCU.a(lpc17xx_clkpwr.o)
                0x0000060c                CLKPWR_GetPCLK
 .text.CLKPWR_ConfigPPWR
                0x0000067c       0x80 C:\Users\Envido32\Documents\LPCXpresso_4.0.5_123\workspace\Lib_MCU\Debug\libLib_MCU.a(lpc17xx_clkpwr.o)
                0x0000067c                CLKPWR_ConfigPPWR
 .text.GPIO_GetPointer
                0x000006fc       0x7c C:\Users\Envido32\Documents\LPCXpresso_4.0.5_123\workspace\Lib_MCU\Debug\libLib_MCU.a(lpc17xx_gpio.o)
 .text.GPIO_SetDir
                0x00000778       0x50 C:\Users\Envido32\Documents\LPCXpresso_4.0.5_123\workspace\Lib_MCU\Debug\libLib_MCU.a(lpc17xx_gpio.o)
                0x00000778                GPIO_SetDir
 .text.GPIO_SetValue
                0x000007c8       0x2c C:\Users\Envido32\Documents\LPCXpresso_4.0.5_123\workspace\Lib_MCU\Debug\libLib_MCU.a(lpc17xx_gpio.o)
                0x000007c8                GPIO_SetValue
 .text.GPIO_ClearValue
                0x000007f4       0x2c C:\Users\Envido32\Documents\LPCXpresso_4.0.5_123\workspace\Lib_MCU\Debug\libLib_MCU.a(lpc17xx_gpio.o)
                0x000007f4                GPIO_ClearValue
 .text.check_failed
                0x00000820        0xc C:\Users\Envido32\Documents\LPCXpresso_4.0.5_123\workspace\Lib_MCU\Debug\libLib_MCU.a(lpc17xx_libcfg_default.o)
                0x00000820                check_failed
 .text          0x0000082c      0xbf0 C:\Users\Envido32\Documents\LPCXpresso_4.0.5_123\workspace\FreeRTOS_Library\Debug\libFreeRTOS_Library.a(tasks.o)
                0x0000082c                xTaskGenericCreate
                0x00000a28                vTaskDelete
                0x00000aa4                uxTaskPriorityGet
                0x00000ac4                vTaskPrioritySet
                0x00000b78                vTaskSuspend
                0x00000bd0                xTaskIsTaskSuspended
                0x00000bfc                vTaskResume
                0x00000c78                xTaskResumeFromISR
                0x00000cf8                vTaskStartScheduler
                0x00000d4c                vTaskEndScheduler
                0x00000d6c                vTaskSuspendAll
                0x00000d84                xTaskGetTickCount
                0x00000da0                uxTaskGetNumberOfTasks
                0x00000dac                vTaskIncrementTick
                0x00000e74                xTaskResumeAll
                0x00000fec                vTaskDelay
                0x00001044                vTaskDelayUntil
                0x000010e0                vTaskSwitchContext
                0x00001194                vTaskPlaceOnEventList
                0x00001200                xTaskRemoveFromEventList
                0x00001288                vTaskSetTimeOutState
                0x000012a0                xTaskCheckForTimeOut
                0x0000131c                vTaskMissedYield
                0x00001330                xTaskGetCurrentTaskHandle
                0x0000133c                vTaskPriorityInherit
                0x000013c8                vTaskPriorityDisinherit
 .text          0x0000141c      0x144 C:\Users\Envido32\Documents\LPCXpresso_4.0.5_123\workspace\FreeRTOS_Library\Debug\libFreeRTOS_Library.a(heap_2.o)
                0x0000141c                pvPortMalloc
                0x00001508                vPortFree
                0x0000154c                xPortGetFreeHeapSize
                0x0000155c                vPortInitialiseBlocks
 .text          0x00001560      0x15c C:\Users\Envido32\Documents\LPCXpresso_4.0.5_123\workspace\FreeRTOS_Library\Debug\libFreeRTOS_Library.a(port.o)
                0x00001560                pxPortInitialiseStack
                0x0000158c                vPortSVCHandler
                0x000015ac                vPortStartFirstTask
                0x000015b8                xPortStartScheduler
                0x00001608                vPortEndScheduler
                0x0000160c                vPortYieldFromISR
                0x0000161c                vPortEnterCritical
                0x00001638                vPortExitCritical
                0x00001654                xPortPendSVHandler
                0x00001690                xPortSysTickHandler
 .text          0x000016bc       0xa4 C:\Users\Envido32\Documents\LPCXpresso_4.0.5_123\workspace\FreeRTOS_Library\Debug\libFreeRTOS_Library.a(list.o)
                0x000016bc                vListInitialise
                0x000016d4                vListInitialiseItem
                0x000016dc                vListInsertEnd
                0x000016fc                vListInsert
                0x00001738                vListRemove
 .text.fp_round
                0x00001760       0x56 c:/nxp/lpcxpresso_4.0.5_123/lpcxpresso/tools/bin/../lib/gcc/arm-none-eabi/4.5.1/../../../../arm-none-eabi/lib/thumb2\libcr_c.a(fpprintf.o)
 .text.lose_trailing_zeros
                0x000017b6       0x1e c:/nxp/lpcxpresso_4.0.5_123/lpcxpresso/tools/bin/../lib/gcc/arm-none-eabi/4.5.1/../../../../arm-none-eabi/lib/thumb2\libcr_c.a(fpprintf.o)
 .text.pr_dec.clone.0
                0x000017d4       0x24 c:/nxp/lpcxpresso_4.0.5_123/lpcxpresso/tools/bin/../lib/gcc/arm-none-eabi/4.5.1/../../../../arm-none-eabi/lib/thumb2\libcr_c.a(fpprintf.o)
 .text.sprintf  0x000017f8       0x70 c:/nxp/lpcxpresso_4.0.5_123/lpcxpresso/tools/bin/../lib/gcc/arm-none-eabi/4.5.1/../../../../arm-none-eabi/lib/thumb2\libcr_c.a(fpprintf.o)
                0x000017f8                sprintf
 .text.fp_display
                0x00001868      0x918 c:/nxp/lpcxpresso_4.0.5_123/lpcxpresso/tools/bin/../lib/gcc/arm-none-eabi/4.5.1/../../../../arm-none-eabi/lib/thumb2\libcr_c.a(fpprintf.o)
 .text.vsnprintf
                0x00002180       0x5c c:/nxp/lpcxpresso_4.0.5_123/lpcxpresso/tools/bin/../lib/gcc/arm-none-eabi/4.5.1/../../../../arm-none-eabi/lib/thumb2\libcr_c.a(fpprintf.o)
                0x00002180                vsnprintf
 .text.printf   0x000021dc       0x50 c:/nxp/lpcxpresso_4.0.5_123/lpcxpresso/tools/bin/../lib/gcc/arm-none-eabi/4.5.1/../../../../arm-none-eabi/lib/thumb2\libcr_c.a(fpprintf.o)
                0x000021dc                printf
 .text.__vfprintf
                0x0000222c      0xc3c c:/nxp/lpcxpresso_4.0.5_123/lpcxpresso/tools/bin/../lib/gcc/arm-none-eabi/4.5.1/../../../../arm-none-eabi/lib/thumb2\libcr_c.a(printf.o)
                0x0000222c                __vfprintf
 .text.strlen   0x00002e68       0x4e c:/nxp/lpcxpresso_4.0.5_123/lpcxpresso/tools/bin/../lib/gcc/arm-none-eabi/4.5.1/../../../../arm-none-eabi/lib/thumb2\libcr_c.a(strlen.o)
                0x00002e68                strlen
 .text.strncpy  0x00002eb6       0x58 c:/nxp/lpcxpresso_4.0.5_123/lpcxpresso/tools/bin/../lib/gcc/arm-none-eabi/4.5.1/../../../../arm-none-eabi/lib/thumb2\libcr_c.a(strncpy.o)
                0x00002eb6                strncpy
 .text.memset   0x00002f0e        0x4 c:/nxp/lpcxpresso_4.0.5_123/lpcxpresso/tools/bin/../lib/gcc/arm-none-eabi/4.5.1/../../../../arm-none-eabi/lib/thumb2\libcr_c.a(memset.o)
                0x00002f0e                memset
 .text._deferredlazyseek
                0x00002f12       0x44 c:/nxp/lpcxpresso_4.0.5_123/lpcxpresso/tools/bin/../lib/gcc/arm-none-eabi/4.5.1/../../../../arm-none-eabi/lib/thumb2\libcr_c.a(_deferredlazyseek.o)
                0x00002f12                _deferredlazyseek
 .text.__flsbuf
                0x00002f56      0x15e c:/nxp/lpcxpresso_4.0.5_123/lpcxpresso/tools/bin/../lib/gcc/arm-none-eabi/4.5.1/../../../../arm-none-eabi/lib/thumb2\libcr_c.a(_deferredlazyseek.o)
                0x00002f56                __flsbuf
 .text._fflush  0x000030b4       0x58 c:/nxp/lpcxpresso_4.0.5_123/lpcxpresso/tools/bin/../lib/gcc/arm-none-eabi/4.5.1/../../../../arm-none-eabi/lib/thumb2\libcr_c.a(_fflush.o)
                0x000030b4                _fflush
 .text._frexpl  0x0000310c       0x62 c:/nxp/lpcxpresso_4.0.5_123/lpcxpresso/tools/bin/../lib/gcc/arm-none-eabi/4.5.1/../../../../arm-none-eabi/lib/thumb2\libcr_c.a(_frexpl.o)
                0x0000310c                _frexpl
 *fill*         0x0000316e        0x2 00
 .text._ldexpl  0x00003170       0x50 c:/nxp/lpcxpresso_4.0.5_123/lpcxpresso/tools/bin/../lib/gcc/arm-none-eabi/4.5.1/../../../../arm-none-eabi/lib/thumb2\libcr_c.a(_ldexpl.o)
                0x00003170                _ldexpl
 .text._Cwritebuf
                0x000031c0       0x88 c:/nxp/lpcxpresso_4.0.5_123/lpcxpresso/tools/bin/../lib/gcc/arm-none-eabi/4.5.1/../../../../arm-none-eabi/lib/thumb2\libcr_c.a(_writebuf.o)
                0x000031c0                _Cwritebuf
 .text.malloc   0x00003248       0xd0 c:/nxp/lpcxpresso_4.0.5_123/lpcxpresso/tools/bin/../lib/gcc/arm-none-eabi/4.5.1/../../../../arm-none-eabi/lib/thumb2\libcr_c.a(alloc.o)
                0x00003248                malloc
 .text.free     0x00003318        0xa c:/nxp/lpcxpresso_4.0.5_123/lpcxpresso/tools/bin/../lib/gcc/arm-none-eabi/4.5.1/../../../../arm-none-eabi/lib/thumb2\libcr_c.a(alloc.o)
                0x00003318                free
 *fill*         0x00003322        0x2 00
 .text._Csys_alloc
                0x00003324       0x20 c:/nxp/lpcxpresso_4.0.5_123/lpcxpresso/tools/bin/../lib/gcc/arm-none-eabi/4.5.1/../../../../arm-none-eabi/lib/thumb2\libcr_c.a(alloc.o)
                0x00003324                _Csys_alloc
 .text.fseek    0x00003344      0x110 c:/nxp/lpcxpresso_4.0.5_123/lpcxpresso/tools/bin/../lib/gcc/arm-none-eabi/4.5.1/../../../../arm-none-eabi/lib/thumb2\libcr_c.a(fseek.o)
                0x00003344                fseek
 .text.ftell    0x00003454       0x50 c:/nxp/lpcxpresso_4.0.5_123/lpcxpresso/tools/bin/../lib/gcc/arm-none-eabi/4.5.1/../../../../arm-none-eabi/lib/thumb2\libcr_c.a(ftell.o)
                0x00003454                ftell
 .text.__aeabi_dmul
                0x000034a4      0x128 c:/nxp/lpcxpresso_4.0.5_123/lpcxpresso/tools/bin/../lib/gcc/arm-none-eabi/4.5.1/thumb2\libcr_eabihelpers.a(double.o)
                0x000034a4                __aeabi_dmul
 .text.__aeabi_ddiv
                0x000035cc      0x144 c:/nxp/lpcxpresso_4.0.5_123/lpcxpresso/tools/bin/../lib/gcc/arm-none-eabi/4.5.1/thumb2\libcr_eabihelpers.a(double.o)
                0x000035cc                __aeabi_ddiv
 .text.__aeabi_dsub
                0x00003710      0x1d8 c:/nxp/lpcxpresso_4.0.5_123/lpcxpresso/tools/bin/../lib/gcc/arm-none-eabi/4.5.1/thumb2\libcr_eabihelpers.a(double.o)
                0x00003710                __aeabi_dsub
 .text.__aeabi_dadd
                0x000038e8      0x13c c:/nxp/lpcxpresso_4.0.5_123/lpcxpresso/tools/bin/../lib/gcc/arm-none-eabi/4.5.1/thumb2\libcr_eabihelpers.a(double.o)
                0x000038e8                __aeabi_dadd
 .text.__aeabi_d2iz
                0x00003a24       0x3e c:/nxp/lpcxpresso_4.0.5_123/lpcxpresso/tools/bin/../lib/gcc/arm-none-eabi/4.5.1/thumb2\libcr_eabihelpers.a(double.o)
                0x00003a24                __aeabi_d2iz
 .text.__bhs_ui2d
                0x00003a62       0x50 c:/nxp/lpcxpresso_4.0.5_123/lpcxpresso/tools/bin/../lib/gcc/arm-none-eabi/4.5.1/thumb2\libcr_eabihelpers.a(double.o)
                0x00003a62                __bhs_ui2d
 .text.__aeabi_i2d
                0x00003ab2       0x10 c:/nxp/lpcxpresso_4.0.5_123/lpcxpresso/tools/bin/../lib/gcc/arm-none-eabi/4.5.1/thumb2\libcr_eabihelpers.a(double.o)
                0x00003ab2                __aeabi_i2d
 .text.__aeabi_dcmpeq
                0x00003ac2       0x36 c:/nxp/lpcxpresso_4.0.5_123/lpcxpresso/tools/bin/../lib/gcc/arm-none-eabi/4.5.1/thumb2\libcr_eabihelpers.a(double.o)
                0x00003ac2                __aeabi_dcmpeq
 .text.__aeabi_dcmplt
                0x00003af8       0x5a c:/nxp/lpcxpresso_4.0.5_123/lpcxpresso/tools/bin/../lib/gcc/arm-none-eabi/4.5.1/thumb2\libcr_eabihelpers.a(double.o)
                0x00003af8                __aeabi_dcmplt
 .text.__aeabi_dcmple
                0x00003b52       0x5a c:/nxp/lpcxpresso_4.0.5_123/lpcxpresso/tools/bin/../lib/gcc/arm-none-eabi/4.5.1/thumb2\libcr_eabihelpers.a(double.o)
                0x00003b52                __aeabi_dcmple
 .text.__aeabi_dcmpge
                0x00003bac       0x5a c:/nxp/lpcxpresso_4.0.5_123/lpcxpresso/tools/bin/../lib/gcc/arm-none-eabi/4.5.1/thumb2\libcr_eabihelpers.a(double.o)
                0x00003bac                __aeabi_dcmpge
 .text.__aeabi_memset_lowlevel
                0x00003c06       0x24 c:/nxp/lpcxpresso_4.0.5_123/lpcxpresso/tools/bin/../lib/gcc/arm-none-eabi/4.5.1/thumb2\libcr_eabihelpers.a(memcpy.o)
                0x00003c06                __aeabi_lowlevel_memset
 *fill*         0x00003c2a        0x2 00
 .text.__sys_appexit
                0x00003c2c        0xc c:/nxp/lpcxpresso_4.0.5_123/lpcxpresso/tools/bin/../lib/gcc/arm-none-eabi/4.5.1/../../../../arm-none-eabi/lib/thumb2\libcr_semihost.a(__sys_appexit.o)
                0x00003c2c                __sys_appexit
                0x00003c2c                __exit
 .text.__sys_flen
                0x00003c38        0xc c:/nxp/lpcxpresso_4.0.5_123/lpcxpresso/tools/bin/../lib/gcc/arm-none-eabi/4.5.1/../../../../arm-none-eabi/lib/thumb2\libcr_semihost.a(__sys_flen.o)
                0x00003c38                __sys_flen
 .text.__sys_istty
                0x00003c44        0xc c:/nxp/lpcxpresso_4.0.5_123/lpcxpresso/tools/bin/../lib/gcc/arm-none-eabi/4.5.1/../../../../arm-none-eabi/lib/thumb2\libcr_semihost.a(__sys_istty.o)
                0x00003c44                __sys_istty
 .text.__sys_seek
                0x00003c50        0xc c:/nxp/lpcxpresso_4.0.5_123/lpcxpresso/tools/bin/../lib/gcc/arm-none-eabi/4.5.1/../../../../arm-none-eabi/lib/thumb2\libcr_semihost.a(__sys_seek.o)
                0x00003c50                __sys_seek
 .text.__sys_write
                0x00003c5c        0xc c:/nxp/lpcxpresso_4.0.5_123/lpcxpresso/tools/bin/../lib/gcc/arm-none-eabi/4.5.1/../../../../arm-none-eabi/lib/thumb2\libcr_semihost.a(__sys_write.o)
                0x00003c5c                __sys_write
                0x00003c5c                __write
 .text._sbrk    0x00003c68       0x40 c:/nxp/lpcxpresso_4.0.5_123/lpcxpresso/tools/bin/../lib/gcc/arm-none-eabi/4.5.1/../../../../arm-none-eabi/lib/thumb2\libcr_semihost.a(_cr_sbrk.o)
                0x00003c68                _sbrk
 .text.__check_heap_overflow
                0x00003ca8       0x2c c:/nxp/lpcxpresso_4.0.5_123/lpcxpresso/tools/bin/../lib/gcc/arm-none-eabi/4.5.1/../../../../arm-none-eabi/lib/thumb2\libcr_semihost.a(_cr_check_heap.o)
                0x00003ca8                __check_heap_overflow
 *(.rodata .rodata.*)
 .rodata        0x00003cd4       0x40 ./main.o
                0x00003cd4                LED
 .rodata.str1.4
                0x00003d14        0xd ./main.o
                                 0x10 (size before relaxing)
 *fill*         0x00003d21        0x3 00
 .rodata        0x00003d24       0x18 C:\Users\Envido32\Documents\LPCXpresso_4.0.5_123\workspace\Lib_MCU\Debug\libLib_MCU.a(lpc17xx_adc.o)
 .rodata.str1.4
                0x00003d3c        0x8 C:\Users\Envido32\Documents\LPCXpresso_4.0.5_123\workspace\FreeRTOS_Library\Debug\libFreeRTOS_Library.a(tasks.o)
 .rodata.str1.1
                0x00003d44       0x34 c:/nxp/lpcxpresso_4.0.5_123/lpcxpresso/tools/bin/../lib/gcc/arm-none-eabi/4.5.1/../../../../arm-none-eabi/lib/thumb2\libcr_c.a(fpprintf.o)
                                 0x35 (size before relaxing)
 .rodata.str1.1
                0x00003d78       0x31 c:/nxp/lpcxpresso_4.0.5_123/lpcxpresso/tools/bin/../lib/gcc/arm-none-eabi/4.5.1/../../../../arm-none-eabi/lib/thumb2\libcr_c.a(printf.o)
                                 0x38 (size before relaxing)
 .rodata.str1.1
                0x00003da9       0x18 c:/nxp/lpcxpresso_4.0.5_123/lpcxpresso/tools/bin/../lib/gcc/arm-none-eabi/4.5.1/../../../../arm-none-eabi/lib/thumb2\libcr_c.a(alloc.o)
 .rodata.__ctype
                0x00003dc1      0x180 c:/nxp/lpcxpresso_4.0.5_123/lpcxpresso/tools/bin/../lib/gcc/arm-none-eabi/4.5.1/../../../../arm-none-eabi/lib/thumb2\libcr_c.a(ctype.o)
                0x00003dc1                __ctype
 *fill*         0x00003f41        0x7 00
 .rodata.__huge_vall
                0x00003f48        0x8 c:/nxp/lpcxpresso_4.0.5_123/lpcxpresso/tools/bin/../lib/gcc/arm-none-eabi/4.5.1/../../../../arm-none-eabi/lib/thumb2\libcr_c.a(_hugeval.o)
                0x00003f48                __huge_vall
                0x00003f50                . = ALIGN (0x4)

.glue_7         0x00003f50        0x0
 .glue_7        0x00000000        0x0 linker stubs

.glue_7t        0x00003f50        0x0
 .glue_7t       0x00000000        0x0 linker stubs

.vfp11_veneer   0x00003f50        0x0
 .vfp11_veneer  0x00000000        0x0 linker stubs

.v4_bx          0x00003f50        0x0
 .v4_bx         0x00000000        0x0 linker stubs

.ARM.extab
 *(.ARM.extab* .gnu.linkonce.armextab.*)
                0x00003f50                __exidx_start = .

.ARM.exidx
 *(.ARM.exidx* .gnu.linkonce.armexidx.*)
                0x00003f50                __exidx_end = .
                0x00003f50                _etext = .

.data_RAM2      0x2007c000        0x0 load address 0x00003f50
 FILL mask 0xff
 *(.data.$RAM2*)
 *(.data.$RamAHB32*)
                0x2007c000                . = ALIGN (0x4)

.data_RAM3      0x40038000        0x0 load address 0x00003f50
 FILL mask 0xff
 *(.data.$RAM3*)
 *(.data.$CANAccFilterRAM*)
                0x40038000                . = ALIGN (0x4)

.uninit_RESERVED
 *(.bss.$RESERVED*)

.data           0x10000000        0x8 load address 0x00003f50
 FILL mask 0xff
                0x10000000                _data = .
 *(vtable)
 *(.data*)
 .data          0x10000000        0x4 C:\Users\Envido32\Documents\LPCXpresso_4.0.5_123\workspace\Lib_CMSISv1p30_LPC17xx\Debug\libCMSISv1p30_LPC17xx.a(system_LPC17xx.o)
                0x10000000                SystemCoreClock
 .data          0x10000004        0x4 C:\Users\Envido32\Documents\LPCXpresso_4.0.5_123\workspace\FreeRTOS_Library\Debug\libFreeRTOS_Library.a(port.o)
                0x10000008                . = ALIGN (0x4)
                0x10000008                _edata = .

.bss_RAM2       0x2007c000        0x0
 *(.bss.$RAM2*)
 *(.bss.$RamAHB32*)
                0x2007c000                . = ALIGN (0x4)

.bss_RAM3       0x40038000        0x0
 *(.bss.$RAM3*)
 *(.bss.$CANAccFilterRAM*)
                0x40038000                . = ALIGN (0x4)

.bss            0x10000008     0x2a74
                0x10000008                _bss = .
 *(.bss*)
 .bss           0x10000008        0x2 ./main.o
                0x10000008                estadoADC
 *fill*         0x1000000a        0x2 00
 .bss           0x1000000c      0x100 C:\Users\Envido32\Documents\LPCXpresso_4.0.5_123\workspace\FreeRTOS_Library\Debug\libFreeRTOS_Library.a(tasks.o)
                0x10000010                pxCurrentTCB
 *fill*         0x1000010c        0x4 00
 .bss           0x10000110     0x2820 C:\Users\Envido32\Documents\LPCXpresso_4.0.5_123\workspace\FreeRTOS_Library\Debug\libFreeRTOS_Library.a(heap_2.o)
 .bss.errno     0x10002930        0x4 c:/nxp/lpcxpresso_4.0.5_123/lpcxpresso/tools/bin/../lib/gcc/arm-none-eabi/4.5.1/../../../../arm-none-eabi/lib/thumb2\libcr_c.a(errno.o)
                0x10002930                errno
 *(COMMON)
 COMMON         0x10002934      0x140 c:/nxp/lpcxpresso_4.0.5_123/lpcxpresso/tools/bin/../lib/gcc/arm-none-eabi/4.5.1/../../../../arm-none-eabi/lib/thumb2\libcr_c.a(stdio.o)
                0x10002934                __Ciob
 COMMON         0x10002a74        0x8 c:/nxp/lpcxpresso_4.0.5_123/lpcxpresso/tools/bin/../lib/gcc/arm-none-eabi/4.5.1/../../../../arm-none-eabi/lib/thumb2\libcr_c.a(__init_alloc.o)
                0x10002a74                __heaps
                0x10002a78                __end_of_heap
                0x10002a7c                . = ALIGN (0x4)
                0x10002a7c                _ebss = .
                0x10002a7c                PROVIDE (end, .)
                0x10002a7c                PROVIDE (_pvHeapStart, .)
                0x10008000                PROVIDE (_vStackTop, (__top_RamLoc32 - 0x0))
OUTPUT(Example01.axf elf32-littlearm)

.debug_abbrev   0x00000000      0xe04
 .debug_abbrev  0x00000000       0xe3 ./cr_startup_lpc17.o
 .debug_abbrev  0x000000e3      0x190 ./main.o
 .debug_abbrev  0x00000273       0xce C:\Users\Envido32\Documents\LPCXpresso_4.0.5_123\workspace\Lib_CMSISv1p30_LPC17xx\Debug\libCMSISv1p30_LPC17xx.a(system_LPC17xx.o)
 .debug_abbrev  0x00000341      0x13f C:\Users\Envido32\Documents\LPCXpresso_4.0.5_123\workspace\Lib_MCU\Debug\libLib_MCU.a(lpc17xx_adc.o)
 .debug_abbrev  0x00000480      0x174 C:\Users\Envido32\Documents\LPCXpresso_4.0.5_123\workspace\Lib_MCU\Debug\libLib_MCU.a(lpc17xx_clkpwr.o)
 .debug_abbrev  0x000005f4      0x185 C:\Users\Envido32\Documents\LPCXpresso_4.0.5_123\workspace\Lib_MCU\Debug\libLib_MCU.a(lpc17xx_gpio.o)
 .debug_abbrev  0x00000779       0x6a C:\Users\Envido32\Documents\LPCXpresso_4.0.5_123\workspace\Lib_MCU\Debug\libLib_MCU.a(lpc17xx_libcfg_default.o)
 .debug_abbrev  0x000007e3      0x285 C:\Users\Envido32\Documents\LPCXpresso_4.0.5_123\workspace\FreeRTOS_Library\Debug\libFreeRTOS_Library.a(tasks.o)
 .debug_abbrev  0x00000a68      0x19a C:\Users\Envido32\Documents\LPCXpresso_4.0.5_123\workspace\FreeRTOS_Library\Debug\libFreeRTOS_Library.a(heap_2.o)
 .debug_abbrev  0x00000c02      0x128 C:\Users\Envido32\Documents\LPCXpresso_4.0.5_123\workspace\FreeRTOS_Library\Debug\libFreeRTOS_Library.a(port.o)
 .debug_abbrev  0x00000d2a       0xda C:\Users\Envido32\Documents\LPCXpresso_4.0.5_123\workspace\FreeRTOS_Library\Debug\libFreeRTOS_Library.a(list.o)

.debug_info     0x00000000     0x36b5
 .debug_info    0x00000000      0x215 ./cr_startup_lpc17.o
 .debug_info    0x00000215      0x33c ./main.o
 .debug_info    0x00000551      0x357 C:\Users\Envido32\Documents\LPCXpresso_4.0.5_123\workspace\Lib_CMSISv1p30_LPC17xx\Debug\libCMSISv1p30_LPC17xx.a(system_LPC17xx.o)
 .debug_info    0x000008a8      0x61b C:\Users\Envido32\Documents\LPCXpresso_4.0.5_123\workspace\Lib_MCU\Debug\libLib_MCU.a(lpc17xx_adc.o)
 .debug_info    0x00000ec3      0x641 C:\Users\Envido32\Documents\LPCXpresso_4.0.5_123\workspace\Lib_MCU\Debug\libLib_MCU.a(lpc17xx_clkpwr.o)
 .debug_info    0x00001504      0xb95 C:\Users\Envido32\Documents\LPCXpresso_4.0.5_123\workspace\Lib_MCU\Debug\libLib_MCU.a(lpc17xx_gpio.o)
 .debug_info    0x00002099       0xcd C:\Users\Envido32\Documents\LPCXpresso_4.0.5_123\workspace\Lib_MCU\Debug\libLib_MCU.a(lpc17xx_libcfg_default.o)
 .debug_info    0x00002166      0xd97 C:\Users\Envido32\Documents\LPCXpresso_4.0.5_123\workspace\FreeRTOS_Library\Debug\libFreeRTOS_Library.a(tasks.o)
 .debug_info    0x00002efd      0x2d3 C:\Users\Envido32\Documents\LPCXpresso_4.0.5_123\workspace\FreeRTOS_Library\Debug\libFreeRTOS_Library.a(heap_2.o)
 .debug_info    0x000031d0      0x220 C:\Users\Envido32\Documents\LPCXpresso_4.0.5_123\workspace\FreeRTOS_Library\Debug\libFreeRTOS_Library.a(port.o)
 .debug_info    0x000033f0      0x2c5 C:\Users\Envido32\Documents\LPCXpresso_4.0.5_123\workspace\FreeRTOS_Library\Debug\libFreeRTOS_Library.a(list.o)

.debug_line     0x00000000     0x3936
 .debug_line    0x00000000      0x424 ./cr_startup_lpc17.o
 .debug_line    0x00000424      0x595 ./main.o
 .debug_line    0x000009b9      0x415 C:\Users\Envido32\Documents\LPCXpresso_4.0.5_123\workspace\Lib_CMSISv1p30_LPC17xx\Debug\libCMSISv1p30_LPC17xx.a(system_LPC17xx.o)
 .debug_line    0x00000dce      0x60a C:\Users\Envido32\Documents\LPCXpresso_4.0.5_123\workspace\Lib_MCU\Debug\libLib_MCU.a(lpc17xx_adc.o)
 .debug_line    0x000013d8      0x4cc C:\Users\Envido32\Documents\LPCXpresso_4.0.5_123\workspace\Lib_MCU\Debug\libLib_MCU.a(lpc17xx_clkpwr.o)
 .debug_line    0x000018a4      0x5fa C:\Users\Envido32\Documents\LPCXpresso_4.0.5_123\workspace\Lib_MCU\Debug\libLib_MCU.a(lpc17xx_gpio.o)
 .debug_line    0x00001e9e      0x38c C:\Users\Envido32\Documents\LPCXpresso_4.0.5_123\workspace\Lib_MCU\Debug\libLib_MCU.a(lpc17xx_libcfg_default.o)
 .debug_line    0x0000222a      0x7b7 C:\Users\Envido32\Documents\LPCXpresso_4.0.5_123\workspace\FreeRTOS_Library\Debug\libFreeRTOS_Library.a(tasks.o)
 .debug_line    0x000029e1      0x54b C:\Users\Envido32\Documents\LPCXpresso_4.0.5_123\workspace\FreeRTOS_Library\Debug\libFreeRTOS_Library.a(heap_2.o)
 .debug_line    0x00002f2c      0x504 C:\Users\Envido32\Documents\LPCXpresso_4.0.5_123\workspace\FreeRTOS_Library\Debug\libFreeRTOS_Library.a(port.o)
 .debug_line    0x00003430      0x506 C:\Users\Envido32\Documents\LPCXpresso_4.0.5_123\workspace\FreeRTOS_Library\Debug\libFreeRTOS_Library.a(list.o)

.debug_macinfo  0x00000000    0x55c58
 .debug_macinfo
                0x00000000     0x3113 ./cr_startup_lpc17.o
 .debug_macinfo
                0x00003113     0x9cba ./main.o
 .debug_macinfo
                0x0000cdcd     0x77f2 C:\Users\Envido32\Documents\LPCXpresso_4.0.5_123\workspace\Lib_CMSISv1p30_LPC17xx\Debug\libCMSISv1p30_LPC17xx.a(system_LPC17xx.o)
 .debug_macinfo
                0x000145bf     0x9428 C:\Users\Envido32\Documents\LPCXpresso_4.0.5_123\workspace\Lib_MCU\Debug\libLib_MCU.a(lpc17xx_adc.o)
 .debug_macinfo
                0x0001d9e7     0x89f3 C:\Users\Envido32\Documents\LPCXpresso_4.0.5_123\workspace\Lib_MCU\Debug\libLib_MCU.a(lpc17xx_clkpwr.o)
 .debug_macinfo
                0x000263da     0x7ab2 C:\Users\Envido32\Documents\LPCXpresso_4.0.5_123\workspace\Lib_MCU\Debug\libLib_MCU.a(lpc17xx_gpio.o)
 .debug_macinfo
                0x0002de8c     0x3407 C:\Users\Envido32\Documents\LPCXpresso_4.0.5_123\workspace\Lib_MCU\Debug\libLib_MCU.a(lpc17xx_libcfg_default.o)
 .debug_macinfo
                0x00031293     0x979a C:\Users\Envido32\Documents\LPCXpresso_4.0.5_123\workspace\FreeRTOS_Library\Debug\libFreeRTOS_Library.a(tasks.o)
 .debug_macinfo
                0x0003aa2d     0x9398 C:\Users\Envido32\Documents\LPCXpresso_4.0.5_123\workspace\FreeRTOS_Library\Debug\libFreeRTOS_Library.a(heap_2.o)
 .debug_macinfo
                0x00043dc5     0x91d5 C:\Users\Envido32\Documents\LPCXpresso_4.0.5_123\workspace\FreeRTOS_Library\Debug\libFreeRTOS_Library.a(port.o)
 .debug_macinfo
                0x0004cf9a     0x8cbe C:\Users\Envido32\Documents\LPCXpresso_4.0.5_123\workspace\FreeRTOS_Library\Debug\libFreeRTOS_Library.a(list.o)

.debug_loc      0x00000000     0x177f
 .debug_loc     0x00000000       0x33 ./cr_startup_lpc17.o
 .debug_loc     0x00000033       0xb1 ./main.o
 .debug_loc     0x000000e4       0x58 C:\Users\Envido32\Documents\LPCXpresso_4.0.5_123\workspace\Lib_CMSISv1p30_LPC17xx\Debug\libCMSISv1p30_LPC17xx.a(system_LPC17xx.o)
 .debug_loc     0x0000013c      0x2d8 C:\Users\Envido32\Documents\LPCXpresso_4.0.5_123\workspace\Lib_MCU\Debug\libLib_MCU.a(lpc17xx_adc.o)
 .debug_loc     0x00000414      0x1bc C:\Users\Envido32\Documents\LPCXpresso_4.0.5_123\workspace\Lib_MCU\Debug\libLib_MCU.a(lpc17xx_clkpwr.o)
 .debug_loc     0x000005d0      0x4d0 C:\Users\Envido32\Documents\LPCXpresso_4.0.5_123\workspace\Lib_MCU\Debug\libLib_MCU.a(lpc17xx_gpio.o)
 .debug_loc     0x00000aa0       0x38 C:\Users\Envido32\Documents\LPCXpresso_4.0.5_123\workspace\Lib_MCU\Debug\libLib_MCU.a(lpc17xx_libcfg_default.o)
 .debug_loc     0x00000ad8      0x9cc C:\Users\Envido32\Documents\LPCXpresso_4.0.5_123\workspace\FreeRTOS_Library\Debug\libFreeRTOS_Library.a(tasks.o)
 .debug_loc     0x000014a4      0x1fd C:\Users\Envido32\Documents\LPCXpresso_4.0.5_123\workspace\FreeRTOS_Library\Debug\libFreeRTOS_Library.a(heap_2.o)
 .debug_loc     0x000016a1       0x89 C:\Users\Envido32\Documents\LPCXpresso_4.0.5_123\workspace\FreeRTOS_Library\Debug\libFreeRTOS_Library.a(port.o)
 .debug_loc     0x0000172a       0x55 C:\Users\Envido32\Documents\LPCXpresso_4.0.5_123\workspace\FreeRTOS_Library\Debug\libFreeRTOS_Library.a(list.o)

.debug_pubnames
                0x00000000      0x953
 .debug_pubnames
                0x00000000       0xec ./cr_startup_lpc17.o
 .debug_pubnames
                0x000000ec       0x44 ./main.o
 .debug_pubnames
                0x00000130       0x4f C:\Users\Envido32\Documents\LPCXpresso_4.0.5_123\workspace\Lib_CMSISv1p30_LPC17xx\Debug\libCMSISv1p30_LPC17xx.a(system_LPC17xx.o)
 .debug_pubnames
                0x0000017f      0x110 C:\Users\Envido32\Documents\LPCXpresso_4.0.5_123\workspace\Lib_MCU\Debug\libLib_MCU.a(lpc17xx_adc.o)
 .debug_pubnames
                0x0000028f       0xbb C:\Users\Envido32\Documents\LPCXpresso_4.0.5_123\workspace\Lib_MCU\Debug\libLib_MCU.a(lpc17xx_clkpwr.o)
 .debug_pubnames
                0x0000034a      0x196 C:\Users\Envido32\Documents\LPCXpresso_4.0.5_123\workspace\Lib_MCU\Debug\libLib_MCU.a(lpc17xx_gpio.o)
 .debug_pubnames
                0x000004e0       0x23 C:\Users\Envido32\Documents\LPCXpresso_4.0.5_123\workspace\Lib_MCU\Debug\libLib_MCU.a(lpc17xx_libcfg_default.o)
 .debug_pubnames
                0x00000503      0x26e C:\Users\Envido32\Documents\LPCXpresso_4.0.5_123\workspace\FreeRTOS_Library\Debug\libFreeRTOS_Library.a(tasks.o)
 .debug_pubnames
                0x00000771       0x64 C:\Users\Envido32\Documents\LPCXpresso_4.0.5_123\workspace\FreeRTOS_Library\Debug\libFreeRTOS_Library.a(heap_2.o)
 .debug_pubnames
                0x000007d5      0x10d C:\Users\Envido32\Documents\LPCXpresso_4.0.5_123\workspace\FreeRTOS_Library\Debug\libFreeRTOS_Library.a(port.o)
 .debug_pubnames
                0x000008e2       0x71 C:\Users\Envido32\Documents\LPCXpresso_4.0.5_123\workspace\FreeRTOS_Library\Debug\libFreeRTOS_Library.a(list.o)

.debug_pubtypes
                0x00000000      0x414
 .debug_pubtypes
                0x00000000       0x12 ./cr_startup_lpc17.o
 .debug_pubtypes
                0x00000012       0x40 ./main.o
 .debug_pubtypes
                0x00000052       0x32 C:\Users\Envido32\Documents\LPCXpresso_4.0.5_123\workspace\Lib_CMSISv1p30_LPC17xx\Debug\libCMSISv1p30_LPC17xx.a(system_LPC17xx.o)
 .debug_pubtypes
                0x00000084       0x84 C:\Users\Envido32\Documents\LPCXpresso_4.0.5_123\workspace\Lib_MCU\Debug\libLib_MCU.a(lpc17xx_adc.o)
 .debug_pubtypes
                0x00000108       0x5f C:\Users\Envido32\Documents\LPCXpresso_4.0.5_123\workspace\Lib_MCU\Debug\libLib_MCU.a(lpc17xx_clkpwr.o)
 .debug_pubtypes
                0x00000167       0x7d C:\Users\Envido32\Documents\LPCXpresso_4.0.5_123\workspace\Lib_MCU\Debug\libLib_MCU.a(lpc17xx_gpio.o)
 .debug_pubtypes
                0x000001e4       0x2b C:\Users\Envido32\Documents\LPCXpresso_4.0.5_123\workspace\Lib_MCU\Debug\libLib_MCU.a(lpc17xx_libcfg_default.o)
 .debug_pubtypes
                0x0000020f      0x10c C:\Users\Envido32\Documents\LPCXpresso_4.0.5_123\workspace\FreeRTOS_Library\Debug\libFreeRTOS_Library.a(tasks.o)
 .debug_pubtypes
                0x0000031b       0x4c C:\Users\Envido32\Documents\LPCXpresso_4.0.5_123\workspace\FreeRTOS_Library\Debug\libFreeRTOS_Library.a(heap_2.o)
 .debug_pubtypes
                0x00000367       0x33 C:\Users\Envido32\Documents\LPCXpresso_4.0.5_123\workspace\FreeRTOS_Library\Debug\libFreeRTOS_Library.a(port.o)
 .debug_pubtypes
                0x0000039a       0x7a C:\Users\Envido32\Documents\LPCXpresso_4.0.5_123\workspace\FreeRTOS_Library\Debug\libFreeRTOS_Library.a(list.o)

.debug_aranges  0x00000000      0x310
 .debug_aranges
                0x00000000       0x70 ./cr_startup_lpc17.o
 .debug_aranges
                0x00000070       0x30 ./main.o
 .debug_aranges
                0x000000a0       0x28 C:\Users\Envido32\Documents\LPCXpresso_4.0.5_123\workspace\Lib_CMSISv1p30_LPC17xx\Debug\libCMSISv1p30_LPC17xx.a(system_LPC17xx.o)
 .debug_aranges
                0x000000c8       0x80 C:\Users\Envido32\Documents\LPCXpresso_4.0.5_123\workspace\Lib_MCU\Debug\libLib_MCU.a(lpc17xx_adc.o)
 .debug_aranges
                0x00000148       0x60 C:\Users\Envido32\Documents\LPCXpresso_4.0.5_123\workspace\Lib_MCU\Debug\libLib_MCU.a(lpc17xx_clkpwr.o)
 .debug_aranges
                0x000001a8       0xc8 C:\Users\Envido32\Documents\LPCXpresso_4.0.5_123\workspace\Lib_MCU\Debug\libLib_MCU.a(lpc17xx_gpio.o)
 .debug_aranges
                0x00000270       0x20 C:\Users\Envido32\Documents\LPCXpresso_4.0.5_123\workspace\Lib_MCU\Debug\libLib_MCU.a(lpc17xx_libcfg_default.o)
 .debug_aranges
                0x00000290       0x20 C:\Users\Envido32\Documents\LPCXpresso_4.0.5_123\workspace\FreeRTOS_Library\Debug\libFreeRTOS_Library.a(tasks.o)
 .debug_aranges
                0x000002b0       0x20 C:\Users\Envido32\Documents\LPCXpresso_4.0.5_123\workspace\FreeRTOS_Library\Debug\libFreeRTOS_Library.a(heap_2.o)
 .debug_aranges
                0x000002d0       0x20 C:\Users\Envido32\Documents\LPCXpresso_4.0.5_123\workspace\FreeRTOS_Library\Debug\libFreeRTOS_Library.a(port.o)
 .debug_aranges
                0x000002f0       0x20 C:\Users\Envido32\Documents\LPCXpresso_4.0.5_123\workspace\FreeRTOS_Library\Debug\libFreeRTOS_Library.a(list.o)

.debug_ranges   0x00000000      0x290
 .debug_ranges  0x00000000       0x60 ./cr_startup_lpc17.o
 .debug_ranges  0x00000060       0x20 ./main.o
 .debug_ranges  0x00000080       0x18 C:\Users\Envido32\Documents\LPCXpresso_4.0.5_123\workspace\Lib_CMSISv1p30_LPC17xx\Debug\libCMSISv1p30_LPC17xx.a(system_LPC17xx.o)
 .debug_ranges  0x00000098       0x70 C:\Users\Envido32\Documents\LPCXpresso_4.0.5_123\workspace\Lib_MCU\Debug\libLib_MCU.a(lpc17xx_adc.o)
 .debug_ranges  0x00000108       0x50 C:\Users\Envido32\Documents\LPCXpresso_4.0.5_123\workspace\Lib_MCU\Debug\libLib_MCU.a(lpc17xx_clkpwr.o)
 .debug_ranges  0x00000158       0xb8 C:\Users\Envido32\Documents\LPCXpresso_4.0.5_123\workspace\Lib_MCU\Debug\libLib_MCU.a(lpc17xx_gpio.o)
 .debug_ranges  0x00000210       0x10 C:\Users\Envido32\Documents\LPCXpresso_4.0.5_123\workspace\Lib_MCU\Debug\libLib_MCU.a(lpc17xx_libcfg_default.o)
 .debug_ranges  0x00000220       0x70 C:\Users\Envido32\Documents\LPCXpresso_4.0.5_123\workspace\FreeRTOS_Library\Debug\libFreeRTOS_Library.a(tasks.o)

.debug_str      0x00000000     0x16ac
 .debug_str     0x00000000      0x1b0 ./cr_startup_lpc17.o
                                0x1e4 (size before relaxing)
 .debug_str     0x000001b0      0x111 ./main.o
                                0x1f6 (size before relaxing)
 .debug_str     0x000002c1      0x1c8 C:\Users\Envido32\Documents\LPCXpresso_4.0.5_123\workspace\Lib_CMSISv1p30_LPC17xx\Debug\libCMSISv1p30_LPC17xx.a(system_LPC17xx.o)
                                0x26d (size before relaxing)
 .debug_str     0x00000489      0x374 C:\Users\Envido32\Documents\LPCXpresso_4.0.5_123\workspace\Lib_MCU\Debug\libLib_MCU.a(lpc17xx_adc.o)
                                0x4a3 (size before relaxing)
 .debug_str     0x000007fd      0x119 C:\Users\Envido32\Documents\LPCXpresso_4.0.5_123\workspace\Lib_MCU\Debug\libLib_MCU.a(lpc17xx_clkpwr.o)
                                0x373 (size before relaxing)
 .debug_str     0x00000916      0x314 C:\Users\Envido32\Documents\LPCXpresso_4.0.5_123\workspace\Lib_MCU\Debug\libLib_MCU.a(lpc17xx_gpio.o)
                                0x442 (size before relaxing)
 .debug_str     0x00000c2a       0x37 C:\Users\Envido32\Documents\LPCXpresso_4.0.5_123\workspace\Lib_MCU\Debug\libLib_MCU.a(lpc17xx_libcfg_default.o)
                                0x11b (size before relaxing)
 .debug_str     0x00000c61      0x74f C:\Users\Envido32\Documents\LPCXpresso_4.0.5_123\workspace\FreeRTOS_Library\Debug\libFreeRTOS_Library.a(tasks.o)
                                0x821 (size before relaxing)
 .debug_str     0x000013b0      0x150 C:\Users\Envido32\Documents\LPCXpresso_4.0.5_123\workspace\FreeRTOS_Library\Debug\libFreeRTOS_Library.a(heap_2.o)
                                0x24d (size before relaxing)
 .debug_str     0x00001500      0x11a C:\Users\Envido32\Documents\LPCXpresso_4.0.5_123\workspace\FreeRTOS_Library\Debug\libFreeRTOS_Library.a(port.o)
                                0x243 (size before relaxing)
 .debug_str     0x0000161a       0x92 C:\Users\Envido32\Documents\LPCXpresso_4.0.5_123\workspace\FreeRTOS_Library\Debug\libFreeRTOS_Library.a(list.o)
                                0x231 (size before relaxing)

.comment        0x00000000       0x2a
 .comment       0x00000000       0x2a ./cr_startup_lpc17.o
                                 0x2b (size before relaxing)
 .comment       0x00000000       0x2b ./main.o
 .comment       0x00000000       0x2b C:\Users\Envido32\Documents\LPCXpresso_4.0.5_123\workspace\Lib_CMSISv1p30_LPC17xx\Debug\libCMSISv1p30_LPC17xx.a(system_LPC17xx.o)
 .comment       0x00000000       0x2b C:\Users\Envido32\Documents\LPCXpresso_4.0.5_123\workspace\Lib_MCU\Debug\libLib_MCU.a(lpc17xx_adc.o)
 .comment       0x00000000       0x2b C:\Users\Envido32\Documents\LPCXpresso_4.0.5_123\workspace\Lib_MCU\Debug\libLib_MCU.a(lpc17xx_clkpwr.o)
 .comment       0x00000000       0x2b C:\Users\Envido32\Documents\LPCXpresso_4.0.5_123\workspace\Lib_MCU\Debug\libLib_MCU.a(lpc17xx_gpio.o)
 .comment       0x00000000       0x2b C:\Users\Envido32\Documents\LPCXpresso_4.0.5_123\workspace\Lib_MCU\Debug\libLib_MCU.a(lpc17xx_libcfg_default.o)
 .comment       0x00000000       0x2b C:\Users\Envido32\Documents\LPCXpresso_4.0.5_123\workspace\FreeRTOS_Library\Debug\libFreeRTOS_Library.a(tasks.o)
 .comment       0x00000000       0x2b C:\Users\Envido32\Documents\LPCXpresso_4.0.5_123\workspace\FreeRTOS_Library\Debug\libFreeRTOS_Library.a(heap_2.o)
 .comment       0x00000000       0x2b C:\Users\Envido32\Documents\LPCXpresso_4.0.5_123\workspace\FreeRTOS_Library\Debug\libFreeRTOS_Library.a(port.o)
 .comment       0x00000000       0x2b C:\Users\Envido32\Documents\LPCXpresso_4.0.5_123\workspace\FreeRTOS_Library\Debug\libFreeRTOS_Library.a(list.o)
 .comment       0x00000000       0x2b c:/nxp/lpcxpresso_4.0.5_123/lpcxpresso/tools/bin/../lib/gcc/arm-none-eabi/4.5.1/../../../../arm-none-eabi/lib/thumb2\libcr_c.a(fpprintf.o)
 .comment       0x00000000       0x2b c:/nxp/lpcxpresso_4.0.5_123/lpcxpresso/tools/bin/../lib/gcc/arm-none-eabi/4.5.1/../../../../arm-none-eabi/lib/thumb2\libcr_c.a(printf.o)
 .comment       0x00000000       0x2b c:/nxp/lpcxpresso_4.0.5_123/lpcxpresso/tools/bin/../lib/gcc/arm-none-eabi/4.5.1/../../../../arm-none-eabi/lib/thumb2\libcr_c.a(stdio.o)
 .comment       0x00000000       0x2b c:/nxp/lpcxpresso_4.0.5_123/lpcxpresso/tools/bin/../lib/gcc/arm-none-eabi/4.5.1/../../../../arm-none-eabi/lib/thumb2\libcr_c.a(strlen.o)
 .comment       0x00000000       0x2b c:/nxp/lpcxpresso_4.0.5_123/lpcxpresso/tools/bin/../lib/gcc/arm-none-eabi/4.5.1/../../../../arm-none-eabi/lib/thumb2\libcr_c.a(strncpy.o)
 .comment       0x00000000       0x2b c:/nxp/lpcxpresso_4.0.5_123/lpcxpresso/tools/bin/../lib/gcc/arm-none-eabi/4.5.1/../../../../arm-none-eabi/lib/thumb2\libcr_c.a(memset.o)
 .comment       0x00000000       0x2b c:/nxp/lpcxpresso_4.0.5_123/lpcxpresso/tools/bin/../lib/gcc/arm-none-eabi/4.5.1/../../../../arm-none-eabi/lib/thumb2\libcr_c.a(__fillbuf.o)
 .comment       0x00000000       0x2b c:/nxp/lpcxpresso_4.0.5_123/lpcxpresso/tools/bin/../lib/gcc/arm-none-eabi/4.5.1/../../../../arm-none-eabi/lib/thumb2\libcr_c.a(_deferredlazyseek.o)
 .comment       0x00000000       0x2b c:/nxp/lpcxpresso_4.0.5_123/lpcxpresso/tools/bin/../lib/gcc/arm-none-eabi/4.5.1/../../../../arm-none-eabi/lib/thumb2\libcr_c.a(_fflush.o)
 .comment       0x00000000       0x2b c:/nxp/lpcxpresso_4.0.5_123/lpcxpresso/tools/bin/../lib/gcc/arm-none-eabi/4.5.1/../../../../arm-none-eabi/lib/thumb2\libcr_c.a(_frexpl.o)
 .comment       0x00000000       0x2b c:/nxp/lpcxpresso_4.0.5_123/lpcxpresso/tools/bin/../lib/gcc/arm-none-eabi/4.5.1/../../../../arm-none-eabi/lib/thumb2\libcr_c.a(_ldexpl.o)
 .comment       0x00000000       0x2b c:/nxp/lpcxpresso_4.0.5_123/lpcxpresso/tools/bin/../lib/gcc/arm-none-eabi/4.5.1/../../../../arm-none-eabi/lib/thumb2\libcr_c.a(_writebuf.o)
 .comment       0x00000000       0x2b c:/nxp/lpcxpresso_4.0.5_123/lpcxpresso/tools/bin/../lib/gcc/arm-none-eabi/4.5.1/../../../../arm-none-eabi/lib/thumb2\libcr_c.a(alloc.o)
 .comment       0x00000000       0x2b c:/nxp/lpcxpresso_4.0.5_123/lpcxpresso/tools/bin/../lib/gcc/arm-none-eabi/4.5.1/../../../../arm-none-eabi/lib/thumb2\libcr_c.a(ctype.o)
 .comment       0x00000000       0x2b c:/nxp/lpcxpresso_4.0.5_123/lpcxpresso/tools/bin/../lib/gcc/arm-none-eabi/4.5.1/../../../../arm-none-eabi/lib/thumb2\libcr_c.a(errno.o)
 .comment       0x00000000       0x2b c:/nxp/lpcxpresso_4.0.5_123/lpcxpresso/tools/bin/../lib/gcc/arm-none-eabi/4.5.1/../../../../arm-none-eabi/lib/thumb2\libcr_c.a(fseek.o)
 .comment       0x00000000       0x2b c:/nxp/lpcxpresso_4.0.5_123/lpcxpresso/tools/bin/../lib/gcc/arm-none-eabi/4.5.1/../../../../arm-none-eabi/lib/thumb2\libcr_c.a(ftell.o)
 .comment       0x00000000       0x2b c:/nxp/lpcxpresso_4.0.5_123/lpcxpresso/tools/bin/../lib/gcc/arm-none-eabi/4.5.1/../../../../arm-none-eabi/lib/thumb2\libcr_c.a(memcpy.o)
 .comment       0x00000000       0x2b c:/nxp/lpcxpresso_4.0.5_123/lpcxpresso/tools/bin/../lib/gcc/arm-none-eabi/4.5.1/../../../../arm-none-eabi/lib/thumb2\libcr_c.a(__init_alloc.o)
 .comment       0x00000000       0x2b c:/nxp/lpcxpresso_4.0.5_123/lpcxpresso/tools/bin/../lib/gcc/arm-none-eabi/4.5.1/../../../../arm-none-eabi/lib/thumb2\libcr_c.a(_hugeval.o)
 .comment       0x00000000       0x2b c:/nxp/lpcxpresso_4.0.5_123/lpcxpresso/tools/bin/../lib/gcc/arm-none-eabi/4.5.1/thumb2\libcr_eabihelpers.a(double.o)
 .comment       0x00000000       0x2b c:/nxp/lpcxpresso_4.0.5_123/lpcxpresso/tools/bin/../lib/gcc/arm-none-eabi/4.5.1/../../../../arm-none-eabi/lib/thumb2\libcr_semihost.a(_cr_sbrk.o)
 .comment       0x00000000       0x2b c:/nxp/lpcxpresso_4.0.5_123/lpcxpresso/tools/bin/../lib/gcc/arm-none-eabi/4.5.1/../../../../arm-none-eabi/lib/thumb2\libcr_semihost.a(_cr_check_heap.o)

.ARM.attributes
                0x00000000       0x2f
 .ARM.attributes
                0x00000000       0x31 ./cr_startup_lpc17.o
 .ARM.attributes
                0x00000031       0x31 ./main.o
 .ARM.attributes
                0x00000062       0x31 C:\Users\Envido32\Documents\LPCXpresso_4.0.5_123\workspace\Lib_CMSISv1p30_LPC17xx\Debug\libCMSISv1p30_LPC17xx.a(system_LPC17xx.o)
 .ARM.attributes
                0x00000093       0x31 C:\Users\Envido32\Documents\LPCXpresso_4.0.5_123\workspace\Lib_MCU\Debug\libLib_MCU.a(lpc17xx_adc.o)
 .ARM.attributes
                0x000000c4       0x31 C:\Users\Envido32\Documents\LPCXpresso_4.0.5_123\workspace\Lib_MCU\Debug\libLib_MCU.a(lpc17xx_clkpwr.o)
 .ARM.attributes
                0x000000f5       0x31 C:\Users\Envido32\Documents\LPCXpresso_4.0.5_123\workspace\Lib_MCU\Debug\libLib_MCU.a(lpc17xx_gpio.o)
 .ARM.attributes
                0x00000126       0x31 C:\Users\Envido32\Documents\LPCXpresso_4.0.5_123\workspace\Lib_MCU\Debug\libLib_MCU.a(lpc17xx_libcfg_default.o)
 .ARM.attributes
                0x00000157       0x31 C:\Users\Envido32\Documents\LPCXpresso_4.0.5_123\workspace\FreeRTOS_Library\Debug\libFreeRTOS_Library.a(tasks.o)
 .ARM.attributes
                0x00000188       0x31 C:\Users\Envido32\Documents\LPCXpresso_4.0.5_123\workspace\FreeRTOS_Library\Debug\libFreeRTOS_Library.a(heap_2.o)
 .ARM.attributes
                0x000001b9       0x31 C:\Users\Envido32\Documents\LPCXpresso_4.0.5_123\workspace\FreeRTOS_Library\Debug\libFreeRTOS_Library.a(port.o)
 .ARM.attributes
                0x000001ea       0x31 C:\Users\Envido32\Documents\LPCXpresso_4.0.5_123\workspace\FreeRTOS_Library\Debug\libFreeRTOS_Library.a(list.o)
 .ARM.attributes
                0x0000021b       0x31 c:/nxp/lpcxpresso_4.0.5_123/lpcxpresso/tools/bin/../lib/gcc/arm-none-eabi/4.5.1/../../../../arm-none-eabi/lib/thumb2\libcr_c.a(fpprintf.o)
 .ARM.attributes
                0x0000024c       0x31 c:/nxp/lpcxpresso_4.0.5_123/lpcxpresso/tools/bin/../lib/gcc/arm-none-eabi/4.5.1/../../../../arm-none-eabi/lib/thumb2\libcr_c.a(printf.o)
 .ARM.attributes
                0x0000027d       0x31 c:/nxp/lpcxpresso_4.0.5_123/lpcxpresso/tools/bin/../lib/gcc/arm-none-eabi/4.5.1/../../../../arm-none-eabi/lib/thumb2\libcr_c.a(stdio.o)
 .ARM.attributes
                0x000002ae       0x31 c:/nxp/lpcxpresso_4.0.5_123/lpcxpresso/tools/bin/../lib/gcc/arm-none-eabi/4.5.1/../../../../arm-none-eabi/lib/thumb2\libcr_c.a(strlen.o)
 .ARM.attributes
                0x000002df       0x31 c:/nxp/lpcxpresso_4.0.5_123/lpcxpresso/tools/bin/../lib/gcc/arm-none-eabi/4.5.1/../../../../arm-none-eabi/lib/thumb2\libcr_c.a(strncpy.o)
 .ARM.attributes
                0x00000310       0x31 c:/nxp/lpcxpresso_4.0.5_123/lpcxpresso/tools/bin/../lib/gcc/arm-none-eabi/4.5.1/../../../../arm-none-eabi/lib/thumb2\libcr_c.a(memset.o)
 .ARM.attributes
                0x00000341       0x31 c:/nxp/lpcxpresso_4.0.5_123/lpcxpresso/tools/bin/../lib/gcc/arm-none-eabi/4.5.1/../../../../arm-none-eabi/lib/thumb2\libcr_c.a(__fillbuf.o)
 .ARM.attributes
                0x00000372       0x31 c:/nxp/lpcxpresso_4.0.5_123/lpcxpresso/tools/bin/../lib/gcc/arm-none-eabi/4.5.1/../../../../arm-none-eabi/lib/thumb2\libcr_c.a(_deferredlazyseek.o)
 .ARM.attributes
                0x000003a3       0x31 c:/nxp/lpcxpresso_4.0.5_123/lpcxpresso/tools/bin/../lib/gcc/arm-none-eabi/4.5.1/../../../../arm-none-eabi/lib/thumb2\libcr_c.a(_fflush.o)
 .ARM.attributes
                0x000003d4       0x31 c:/nxp/lpcxpresso_4.0.5_123/lpcxpresso/tools/bin/../lib/gcc/arm-none-eabi/4.5.1/../../../../arm-none-eabi/lib/thumb2\libcr_c.a(_frexpl.o)
 .ARM.attributes
                0x00000405       0x31 c:/nxp/lpcxpresso_4.0.5_123/lpcxpresso/tools/bin/../lib/gcc/arm-none-eabi/4.5.1/../../../../arm-none-eabi/lib/thumb2\libcr_c.a(_ldexpl.o)
 .ARM.attributes
                0x00000436       0x31 c:/nxp/lpcxpresso_4.0.5_123/lpcxpresso/tools/bin/../lib/gcc/arm-none-eabi/4.5.1/../../../../arm-none-eabi/lib/thumb2\libcr_c.a(_writebuf.o)
 .ARM.attributes
                0x00000467       0x31 c:/nxp/lpcxpresso_4.0.5_123/lpcxpresso/tools/bin/../lib/gcc/arm-none-eabi/4.5.1/../../../../arm-none-eabi/lib/thumb2\libcr_c.a(alloc.o)
 .ARM.attributes
                0x00000498       0x31 c:/nxp/lpcxpresso_4.0.5_123/lpcxpresso/tools/bin/../lib/gcc/arm-none-eabi/4.5.1/../../../../arm-none-eabi/lib/thumb2\libcr_c.a(ctype.o)
 .ARM.attributes
                0x000004c9       0x31 c:/nxp/lpcxpresso_4.0.5_123/lpcxpresso/tools/bin/../lib/gcc/arm-none-eabi/4.5.1/../../../../arm-none-eabi/lib/thumb2\libcr_c.a(errno.o)
 .ARM.attributes
                0x000004fa       0x31 c:/nxp/lpcxpresso_4.0.5_123/lpcxpresso/tools/bin/../lib/gcc/arm-none-eabi/4.5.1/../../../../arm-none-eabi/lib/thumb2\libcr_c.a(fseek.o)
 .ARM.attributes
                0x0000052b       0x31 c:/nxp/lpcxpresso_4.0.5_123/lpcxpresso/tools/bin/../lib/gcc/arm-none-eabi/4.5.1/../../../../arm-none-eabi/lib/thumb2\libcr_c.a(ftell.o)
 .ARM.attributes
                0x0000055c       0x31 c:/nxp/lpcxpresso_4.0.5_123/lpcxpresso/tools/bin/../lib/gcc/arm-none-eabi/4.5.1/../../../../arm-none-eabi/lib/thumb2\libcr_c.a(memcpy.o)
 .ARM.attributes
                0x0000058d       0x31 c:/nxp/lpcxpresso_4.0.5_123/lpcxpresso/tools/bin/../lib/gcc/arm-none-eabi/4.5.1/../../../../arm-none-eabi/lib/thumb2\libcr_c.a(__init_alloc.o)
 .ARM.attributes
                0x000005be       0x31 c:/nxp/lpcxpresso_4.0.5_123/lpcxpresso/tools/bin/../lib/gcc/arm-none-eabi/4.5.1/../../../../arm-none-eabi/lib/thumb2\libcr_c.a(_hugeval.o)
 .ARM.attributes
                0x000005ef       0x21 c:/nxp/lpcxpresso_4.0.5_123/lpcxpresso/tools/bin/../lib/gcc/arm-none-eabi/4.5.1/thumb2\libcr_eabihelpers.a(division.o)
 .ARM.attributes
                0x00000610       0x31 c:/nxp/lpcxpresso_4.0.5_123/lpcxpresso/tools/bin/../lib/gcc/arm-none-eabi/4.5.1/thumb2\libcr_eabihelpers.a(double.o)
 .ARM.attributes
                0x00000641       0x21 c:/nxp/lpcxpresso_4.0.5_123/lpcxpresso/tools/bin/../lib/gcc/arm-none-eabi/4.5.1/thumb2\libcr_eabihelpers.a(memcpy.o)
 .ARM.attributes
                0x00000662       0x21 c:/nxp/lpcxpresso_4.0.5_123/lpcxpresso/tools/bin/../lib/gcc/arm-none-eabi/4.5.1/../../../../arm-none-eabi/lib/thumb2\libcr_semihost.a(__sys_appexit.o)
 .ARM.attributes
                0x00000683       0x21 c:/nxp/lpcxpresso_4.0.5_123/lpcxpresso/tools/bin/../lib/gcc/arm-none-eabi/4.5.1/../../../../arm-none-eabi/lib/thumb2\libcr_semihost.a(__sys_flen.o)
 .ARM.attributes
                0x000006a4       0x21 c:/nxp/lpcxpresso_4.0.5_123/lpcxpresso/tools/bin/../lib/gcc/arm-none-eabi/4.5.1/../../../../arm-none-eabi/lib/thumb2\libcr_semihost.a(__sys_istty.o)
 .ARM.attributes
                0x000006c5       0x21 c:/nxp/lpcxpresso_4.0.5_123/lpcxpresso/tools/bin/../lib/gcc/arm-none-eabi/4.5.1/../../../../arm-none-eabi/lib/thumb2\libcr_semihost.a(__sys_read.o)
 .ARM.attributes
                0x000006e6       0x21 c:/nxp/lpcxpresso_4.0.5_123/lpcxpresso/tools/bin/../lib/gcc/arm-none-eabi/4.5.1/../../../../arm-none-eabi/lib/thumb2\libcr_semihost.a(__sys_readc.o)
 .ARM.attributes
                0x00000707       0x21 c:/nxp/lpcxpresso_4.0.5_123/lpcxpresso/tools/bin/../lib/gcc/arm-none-eabi/4.5.1/../../../../arm-none-eabi/lib/thumb2\libcr_semihost.a(__sys_seek.o)
 .ARM.attributes
                0x00000728       0x21 c:/nxp/lpcxpresso_4.0.5_123/lpcxpresso/tools/bin/../lib/gcc/arm-none-eabi/4.5.1/../../../../arm-none-eabi/lib/thumb2\libcr_semihost.a(__sys_write.o)
 .ARM.attributes
                0x00000749       0x31 c:/nxp/lpcxpresso_4.0.5_123/lpcxpresso/tools/bin/../lib/gcc/arm-none-eabi/4.5.1/../../../../arm-none-eabi/lib/thumb2\libcr_semihost.a(_cr_sbrk.o)
 .ARM.attributes
                0x0000077a       0x31 c:/nxp/lpcxpresso_4.0.5_123/lpcxpresso/tools/bin/../lib/gcc/arm-none-eabi/4.5.1/../../../../arm-none-eabi/lib/thumb2\libcr_semihost.a(_cr_check_heap.o)

.debug_frame    0x00000000      0xb80
 .debug_frame   0x00000000       0xc8 ./cr_startup_lpc17.o
 .debug_frame   0x000000c8       0x6c ./main.o
 .debug_frame   0x00000134       0x48 C:\Users\Envido32\Documents\LPCXpresso_4.0.5_123\workspace\Lib_CMSISv1p30_LPC17xx\Debug\libCMSISv1p30_LPC17xx.a(system_LPC17xx.o)
 .debug_frame   0x0000017c      0x1ac C:\Users\Envido32\Documents\LPCXpresso_4.0.5_123\workspace\Lib_MCU\Debug\libLib_MCU.a(lpc17xx_adc.o)
 .debug_frame   0x00000328      0x10c C:\Users\Envido32\Documents\LPCXpresso_4.0.5_123\workspace\Lib_MCU\Debug\libLib_MCU.a(lpc17xx_clkpwr.o)
 .debug_frame   0x00000434      0x2c4 C:\Users\Envido32\Documents\LPCXpresso_4.0.5_123\workspace\Lib_MCU\Debug\libLib_MCU.a(lpc17xx_gpio.o)
 .debug_frame   0x000006f8       0x2c C:\Users\Envido32\Documents\LPCXpresso_4.0.5_123\workspace\Lib_MCU\Debug\libLib_MCU.a(lpc17xx_libcfg_default.o)
 .debug_frame   0x00000724      0x2c4 C:\Users\Envido32\Documents\LPCXpresso_4.0.5_123\workspace\FreeRTOS_Library\Debug\libFreeRTOS_Library.a(tasks.o)
 .debug_frame   0x000009e8       0x68 C:\Users\Envido32\Documents\LPCXpresso_4.0.5_123\workspace\FreeRTOS_Library\Debug\libFreeRTOS_Library.a(heap_2.o)
 .debug_frame   0x00000a50       0xc8 C:\Users\Envido32\Documents\LPCXpresso_4.0.5_123\workspace\FreeRTOS_Library\Debug\libFreeRTOS_Library.a(port.o)
 .debug_frame   0x00000b18       0x68 C:\Users\Envido32\Documents\LPCXpresso_4.0.5_123\workspace\FreeRTOS_Library\Debug\libFreeRTOS_Library.a(list.o)
