Archive member included because of file (symbol)

C:\Users\Envido32\Documents\LPCXpresso_4.0.5_123\workspace\Lib_CMSISv1p30_LPC17xx\Debug\libCMSISv1p30_LPC17xx.a(system_LPC17xx.o)
                              ./cr_startup_lpc17.o (SystemInit)
C:\Users\Envido32\Documents\LPCXpresso_4.0.5_123\workspace\Lib_MCU\Debug\libLib_MCU.a(lpc17xx_gpio.o)
                              ./main.o (GPIO_SetDir)
C:\Users\Envido32\Documents\LPCXpresso_4.0.5_123\workspace\FreeRTOS_Library\Debug\libFreeRTOS_Library.a(queue.o)
                              ./main.o (xQueueCreate)
C:\Users\Envido32\Documents\LPCXpresso_4.0.5_123\workspace\FreeRTOS_Library\Debug\libFreeRTOS_Library.a(tasks.o)
                              ./main.o (xTaskGenericCreate)
C:\Users\Envido32\Documents\LPCXpresso_4.0.5_123\workspace\FreeRTOS_Library\Debug\libFreeRTOS_Library.a(heap_2.o)
                              C:\Users\Envido32\Documents\LPCXpresso_4.0.5_123\workspace\FreeRTOS_Library\Debug\libFreeRTOS_Library.a(queue.o) (pvPortMalloc)
C:\Users\Envido32\Documents\LPCXpresso_4.0.5_123\workspace\FreeRTOS_Library\Debug\libFreeRTOS_Library.a(port.o)
                              C:\Users\Envido32\Documents\LPCXpresso_4.0.5_123\workspace\FreeRTOS_Library\Debug\libFreeRTOS_Library.a(tasks.o) (pxPortInitialiseStack)
C:\Users\Envido32\Documents\LPCXpresso_4.0.5_123\workspace\FreeRTOS_Library\Debug\libFreeRTOS_Library.a(list.o)
                              C:\Users\Envido32\Documents\LPCXpresso_4.0.5_123\workspace\FreeRTOS_Library\Debug\libFreeRTOS_Library.a(queue.o) (vListInitialise)
c:/nxp/lpcxpresso_4.0.5_123/lpcxpresso/tools/bin/../lib/gcc/arm-none-eabi/4.5.1/../../../../arm-none-eabi/lib/thumb2\libcr_c.a(fpprintf.o)
                              ./main.o (printf)
c:/nxp/lpcxpresso_4.0.5_123/lpcxpresso/tools/bin/../lib/gcc/arm-none-eabi/4.5.1/../../../../arm-none-eabi/lib/thumb2\libcr_c.a(printf.o)
                              c:/nxp/lpcxpresso_4.0.5_123/lpcxpresso/tools/bin/../lib/gcc/arm-none-eabi/4.5.1/../../../../arm-none-eabi/lib/thumb2\libcr_c.a(fpprintf.o) (__vfprintf)
c:/nxp/lpcxpresso_4.0.5_123/lpcxpresso/tools/bin/../lib/gcc/arm-none-eabi/4.5.1/../../../../arm-none-eabi/lib/thumb2\libcr_c.a(stdio.o)
                              c:/nxp/lpcxpresso_4.0.5_123/lpcxpresso/tools/bin/../lib/gcc/arm-none-eabi/4.5.1/../../../../arm-none-eabi/lib/thumb2\libcr_c.a(fpprintf.o) (__Ciob)
c:/nxp/lpcxpresso_4.0.5_123/lpcxpresso/tools/bin/../lib/gcc/arm-none-eabi/4.5.1/../../../../arm-none-eabi/lib/thumb2\libcr_c.a(strlen.o)
                              c:/nxp/lpcxpresso_4.0.5_123/lpcxpresso/tools/bin/../lib/gcc/arm-none-eabi/4.5.1/../../../../arm-none-eabi/lib/thumb2\libcr_c.a(printf.o) (strlen)
c:/nxp/lpcxpresso_4.0.5_123/lpcxpresso/tools/bin/../lib/gcc/arm-none-eabi/4.5.1/../../../../arm-none-eabi/lib/thumb2\libcr_c.a(strncpy.o)
                              C:\Users\Envido32\Documents\LPCXpresso_4.0.5_123\workspace\FreeRTOS_Library\Debug\libFreeRTOS_Library.a(tasks.o) (strncpy)
c:/nxp/lpcxpresso_4.0.5_123/lpcxpresso/tools/bin/../lib/gcc/arm-none-eabi/4.5.1/../../../../arm-none-eabi/lib/thumb2\libcr_c.a(memcpy.o)
                              C:\Users\Envido32\Documents\LPCXpresso_4.0.5_123\workspace\FreeRTOS_Library\Debug\libFreeRTOS_Library.a(queue.o) (memcpy)
c:/nxp/lpcxpresso_4.0.5_123/lpcxpresso/tools/bin/../lib/gcc/arm-none-eabi/4.5.1/../../../../arm-none-eabi/lib/thumb2\libcr_c.a(memset.o)
                              C:\Users\Envido32\Documents\LPCXpresso_4.0.5_123\workspace\FreeRTOS_Library\Debug\libFreeRTOS_Library.a(tasks.o) (memset)
c:/nxp/lpcxpresso_4.0.5_123/lpcxpresso/tools/bin/../lib/gcc/arm-none-eabi/4.5.1/../../../../arm-none-eabi/lib/thumb2\libcr_c.a(__fillbuf.o)
                              c:/nxp/lpcxpresso_4.0.5_123/lpcxpresso/tools/bin/../lib/gcc/arm-none-eabi/4.5.1/../../../../arm-none-eabi/lib/thumb2\libcr_c.a(stdio.o) (__filbuf)
c:/nxp/lpcxpresso_4.0.5_123/lpcxpresso/tools/bin/../lib/gcc/arm-none-eabi/4.5.1/../../../../arm-none-eabi/lib/thumb2\libcr_c.a(_deferredlazyseek.o)
                              c:/nxp/lpcxpresso_4.0.5_123/lpcxpresso/tools/bin/../lib/gcc/arm-none-eabi/4.5.1/../../../../arm-none-eabi/lib/thumb2\libcr_c.a(__fillbuf.o) (_deferredlazyseek)
c:/nxp/lpcxpresso_4.0.5_123/lpcxpresso/tools/bin/../lib/gcc/arm-none-eabi/4.5.1/../../../../arm-none-eabi/lib/thumb2\libcr_c.a(_fflush.o)
                              c:/nxp/lpcxpresso_4.0.5_123/lpcxpresso/tools/bin/../lib/gcc/arm-none-eabi/4.5.1/../../../../arm-none-eabi/lib/thumb2\libcr_c.a(__fillbuf.o) (_fflush)
c:/nxp/lpcxpresso_4.0.5_123/lpcxpresso/tools/bin/../lib/gcc/arm-none-eabi/4.5.1/../../../../arm-none-eabi/lib/thumb2\libcr_c.a(_frexpl.o)
                              c:/nxp/lpcxpresso_4.0.5_123/lpcxpresso/tools/bin/../lib/gcc/arm-none-eabi/4.5.1/../../../../arm-none-eabi/lib/thumb2\libcr_c.a(fpprintf.o) (_frexpl)
c:/nxp/lpcxpresso_4.0.5_123/lpcxpresso/tools/bin/../lib/gcc/arm-none-eabi/4.5.1/../../../../arm-none-eabi/lib/thumb2\libcr_c.a(_ldexpl.o)
                              c:/nxp/lpcxpresso_4.0.5_123/lpcxpresso/tools/bin/../lib/gcc/arm-none-eabi/4.5.1/../../../../arm-none-eabi/lib/thumb2\libcr_c.a(fpprintf.o) (_ldexpl)
c:/nxp/lpcxpresso_4.0.5_123/lpcxpresso/tools/bin/../lib/gcc/arm-none-eabi/4.5.1/../../../../arm-none-eabi/lib/thumb2\libcr_c.a(_writebuf.o)
                              c:/nxp/lpcxpresso_4.0.5_123/lpcxpresso/tools/bin/../lib/gcc/arm-none-eabi/4.5.1/../../../../arm-none-eabi/lib/thumb2\libcr_c.a(_deferredlazyseek.o) (_Cwritebuf)
c:/nxp/lpcxpresso_4.0.5_123/lpcxpresso/tools/bin/../lib/gcc/arm-none-eabi/4.5.1/../../../../arm-none-eabi/lib/thumb2\libcr_c.a(alloc.o)
                              c:/nxp/lpcxpresso_4.0.5_123/lpcxpresso/tools/bin/../lib/gcc/arm-none-eabi/4.5.1/../../../../arm-none-eabi/lib/thumb2\libcr_c.a(fpprintf.o) (malloc)
c:/nxp/lpcxpresso_4.0.5_123/lpcxpresso/tools/bin/../lib/gcc/arm-none-eabi/4.5.1/../../../../arm-none-eabi/lib/thumb2\libcr_c.a(ctype.o)
                              c:/nxp/lpcxpresso_4.0.5_123/lpcxpresso/tools/bin/../lib/gcc/arm-none-eabi/4.5.1/../../../../arm-none-eabi/lib/thumb2\libcr_c.a(printf.o) (__ctype)
c:/nxp/lpcxpresso_4.0.5_123/lpcxpresso/tools/bin/../lib/gcc/arm-none-eabi/4.5.1/../../../../arm-none-eabi/lib/thumb2\libcr_c.a(errno.o)
                              c:/nxp/lpcxpresso_4.0.5_123/lpcxpresso/tools/bin/../lib/gcc/arm-none-eabi/4.5.1/../../../../arm-none-eabi/lib/thumb2\libcr_c.a(_ldexpl.o) (errno)
c:/nxp/lpcxpresso_4.0.5_123/lpcxpresso/tools/bin/../lib/gcc/arm-none-eabi/4.5.1/../../../../arm-none-eabi/lib/thumb2\libcr_c.a(fseek.o)
                              c:/nxp/lpcxpresso_4.0.5_123/lpcxpresso/tools/bin/../lib/gcc/arm-none-eabi/4.5.1/../../../../arm-none-eabi/lib/thumb2\libcr_c.a(_deferredlazyseek.o) (fseek)
c:/nxp/lpcxpresso_4.0.5_123/lpcxpresso/tools/bin/../lib/gcc/arm-none-eabi/4.5.1/../../../../arm-none-eabi/lib/thumb2\libcr_c.a(ftell.o)
                              c:/nxp/lpcxpresso_4.0.5_123/lpcxpresso/tools/bin/../lib/gcc/arm-none-eabi/4.5.1/../../../../arm-none-eabi/lib/thumb2\libcr_c.a(fseek.o) (ftell)
c:/nxp/lpcxpresso_4.0.5_123/lpcxpresso/tools/bin/../lib/gcc/arm-none-eabi/4.5.1/../../../../arm-none-eabi/lib/thumb2\libcr_c.a(__init_alloc.o)
                              c:/nxp/lpcxpresso_4.0.5_123/lpcxpresso/tools/bin/../lib/gcc/arm-none-eabi/4.5.1/../../../../arm-none-eabi/lib/thumb2\libcr_c.a(alloc.o) (__heaps)
c:/nxp/lpcxpresso_4.0.5_123/lpcxpresso/tools/bin/../lib/gcc/arm-none-eabi/4.5.1/../../../../arm-none-eabi/lib/thumb2\libcr_c.a(_hugeval.o)
                              c:/nxp/lpcxpresso_4.0.5_123/lpcxpresso/tools/bin/../lib/gcc/arm-none-eabi/4.5.1/../../../../arm-none-eabi/lib/thumb2\libcr_c.a(_ldexpl.o) (__huge_vall)
c:/nxp/lpcxpresso_4.0.5_123/lpcxpresso/tools/bin/../lib/gcc/arm-none-eabi/4.5.1/thumb2\libcr_eabihelpers.a(division.o)
                              C:\Users\Envido32\Documents\LPCXpresso_4.0.5_123\workspace\Lib_CMSISv1p30_LPC17xx\Debug\libCMSISv1p30_LPC17xx.a(system_LPC17xx.o) (__aeabi_uldivmod)
c:/nxp/lpcxpresso_4.0.5_123/lpcxpresso/tools/bin/../lib/gcc/arm-none-eabi/4.5.1/thumb2\libcr_eabihelpers.a(double.o)
                              c:/nxp/lpcxpresso_4.0.5_123/lpcxpresso/tools/bin/../lib/gcc/arm-none-eabi/4.5.1/../../../../arm-none-eabi/lib/thumb2\libcr_c.a(fpprintf.o) (__aeabi_dmul)
c:/nxp/lpcxpresso_4.0.5_123/lpcxpresso/tools/bin/../lib/gcc/arm-none-eabi/4.5.1/thumb2\libcr_eabihelpers.a(memcpy.o)
                              c:/nxp/lpcxpresso_4.0.5_123/lpcxpresso/tools/bin/../lib/gcc/arm-none-eabi/4.5.1/../../../../arm-none-eabi/lib/thumb2\libcr_c.a(memcpy.o) (__aeabi_memcpy)
c:/nxp/lpcxpresso_4.0.5_123/lpcxpresso/tools/bin/../lib/gcc/arm-none-eabi/4.5.1/../../../../arm-none-eabi/lib/thumb2\libcr_semihost.a(__sys_appexit.o)
                              c:/nxp/lpcxpresso_4.0.5_123/lpcxpresso/tools/bin/../lib/gcc/arm-none-eabi/4.5.1/../../../../arm-none-eabi/lib/thumb2\libcr_c.a(alloc.o) (__sys_appexit)
c:/nxp/lpcxpresso_4.0.5_123/lpcxpresso/tools/bin/../lib/gcc/arm-none-eabi/4.5.1/../../../../arm-none-eabi/lib/thumb2\libcr_semihost.a(__sys_flen.o)
                              c:/nxp/lpcxpresso_4.0.5_123/lpcxpresso/tools/bin/../lib/gcc/arm-none-eabi/4.5.1/../../../../arm-none-eabi/lib/thumb2\libcr_c.a(_writebuf.o) (__sys_flen)
c:/nxp/lpcxpresso_4.0.5_123/lpcxpresso/tools/bin/../lib/gcc/arm-none-eabi/4.5.1/../../../../arm-none-eabi/lib/thumb2\libcr_semihost.a(__sys_istty.o)
                              c:/nxp/lpcxpresso_4.0.5_123/lpcxpresso/tools/bin/../lib/gcc/arm-none-eabi/4.5.1/../../../../arm-none-eabi/lib/thumb2\libcr_c.a(_deferredlazyseek.o) (__sys_istty)
c:/nxp/lpcxpresso_4.0.5_123/lpcxpresso/tools/bin/../lib/gcc/arm-none-eabi/4.5.1/../../../../arm-none-eabi/lib/thumb2\libcr_semihost.a(__sys_read.o)
                              c:/nxp/lpcxpresso_4.0.5_123/lpcxpresso/tools/bin/../lib/gcc/arm-none-eabi/4.5.1/../../../../arm-none-eabi/lib/thumb2\libcr_c.a(__fillbuf.o) (__sys_read)
c:/nxp/lpcxpresso_4.0.5_123/lpcxpresso/tools/bin/../lib/gcc/arm-none-eabi/4.5.1/../../../../arm-none-eabi/lib/thumb2\libcr_semihost.a(__sys_readc.o)
                              c:/nxp/lpcxpresso_4.0.5_123/lpcxpresso/tools/bin/../lib/gcc/arm-none-eabi/4.5.1/../../../../arm-none-eabi/lib/thumb2\libcr_c.a(__fillbuf.o) (__sys_readc)
c:/nxp/lpcxpresso_4.0.5_123/lpcxpresso/tools/bin/../lib/gcc/arm-none-eabi/4.5.1/../../../../arm-none-eabi/lib/thumb2\libcr_semihost.a(__sys_seek.o)
                              c:/nxp/lpcxpresso_4.0.5_123/lpcxpresso/tools/bin/../lib/gcc/arm-none-eabi/4.5.1/../../../../arm-none-eabi/lib/thumb2\libcr_c.a(__fillbuf.o) (__sys_seek)
c:/nxp/lpcxpresso_4.0.5_123/lpcxpresso/tools/bin/../lib/gcc/arm-none-eabi/4.5.1/../../../../arm-none-eabi/lib/thumb2\libcr_semihost.a(__sys_write.o)
                              c:/nxp/lpcxpresso_4.0.5_123/lpcxpresso/tools/bin/../lib/gcc/arm-none-eabi/4.5.1/../../../../arm-none-eabi/lib/thumb2\libcr_c.a(fpprintf.o) (__sys_write)
c:/nxp/lpcxpresso_4.0.5_123/lpcxpresso/tools/bin/../lib/gcc/arm-none-eabi/4.5.1/../../../../arm-none-eabi/lib/thumb2\libcr_semihost.a(_cr_sbrk.o)
                              c:/nxp/lpcxpresso_4.0.5_123/lpcxpresso/tools/bin/../lib/gcc/arm-none-eabi/4.5.1/../../../../arm-none-eabi/lib/thumb2\libcr_c.a(alloc.o) (_sbrk)
c:/nxp/lpcxpresso_4.0.5_123/lpcxpresso/tools/bin/../lib/gcc/arm-none-eabi/4.5.1/../../../../arm-none-eabi/lib/thumb2\libcr_semihost.a(_cr_check_heap.o)
                              c:/nxp/lpcxpresso_4.0.5_123/lpcxpresso/tools/bin/../lib/gcc/arm-none-eabi/4.5.1/../../../../arm-none-eabi/lib/thumb2\libcr_semihost.a(_cr_sbrk.o) (__check_heap_overflow)

Allocating common symbols
Common symbol       size              file

xQueue              0x4               ./main.o
__heaps             0x4               c:/nxp/lpcxpresso_4.0.5_123/lpcxpresso/tools/bin/../lib/gcc/arm-none-eabi/4.5.1/../../../../arm-none-eabi/lib/thumb2\libcr_c.a(__init_alloc.o)
__end_of_heap       0x4               c:/nxp/lpcxpresso_4.0.5_123/lpcxpresso/tools/bin/../lib/gcc/arm-none-eabi/4.5.1/../../../../arm-none-eabi/lib/thumb2\libcr_c.a(__init_alloc.o)
__Ciob              0x140             c:/nxp/lpcxpresso_4.0.5_123/lpcxpresso/tools/bin/../lib/gcc/arm-none-eabi/4.5.1/../../../../arm-none-eabi/lib/thumb2\libcr_c.a(stdio.o)

Discarded input sections

 .text          0x00000000        0x0 ./cr_startup_lpc17.o
 .data          0x00000000        0x0 ./cr_startup_lpc17.o
 .bss           0x00000000        0x0 ./cr_startup_lpc17.o
 .text.SVCall_Handler
                0x00000000        0x4 ./cr_startup_lpc17.o
 .text.PendSV_Handler
                0x00000000        0x4 ./cr_startup_lpc17.o
 .text.SysTick_Handler
                0x00000000        0x4 ./cr_startup_lpc17.o
 .text          0x00000000        0x0 ./main.o
 .data          0x00000000        0x0 ./main.o
 .bss           0x00000000        0x0 ./main.o
 .text          0x00000000        0x0 C:\Users\Envido32\Documents\LPCXpresso_4.0.5_123\workspace\Lib_CMSISv1p30_LPC17xx\Debug\libCMSISv1p30_LPC17xx.a(system_LPC17xx.o)
 .data          0x00000000        0x4 C:\Users\Envido32\Documents\LPCXpresso_4.0.5_123\workspace\Lib_CMSISv1p30_LPC17xx\Debug\libCMSISv1p30_LPC17xx.a(system_LPC17xx.o)
 .bss           0x00000000        0x0 C:\Users\Envido32\Documents\LPCXpresso_4.0.5_123\workspace\Lib_CMSISv1p30_LPC17xx\Debug\libCMSISv1p30_LPC17xx.a(system_LPC17xx.o)
 .text.SystemCoreClockUpdate
                0x00000000      0x2e4 C:\Users\Envido32\Documents\LPCXpresso_4.0.5_123\workspace\Lib_CMSISv1p30_LPC17xx\Debug\libCMSISv1p30_LPC17xx.a(system_LPC17xx.o)
 .text          0x00000000        0x0 C:\Users\Envido32\Documents\LPCXpresso_4.0.5_123\workspace\Lib_MCU\Debug\libLib_MCU.a(lpc17xx_gpio.o)
Memory Configuration

Name             Origin             Length             Attributes
MFlash512        0x00000000         0x00080000         xr
RamLoc32         0x10000000         0x00008000         xrw
RamAHB32         0x2007c000         0x00008000         xrw
CANAccFilterRAM  0x40038000         0x00000800         xrw
*default*        0x00000000         0xffffffff

Linker script and memory map

LOAD ./cr_startup_lpc17.o
LOAD ./main.o
LOAD C:\Users\Envido32\Documents\LPCXpresso_4.0.5_123\workspace\Lib_CMSISv1p30_LPC17xx\Debug\libCMSISv1p30_LPC17xx.a
LOAD C:\Users\Envido32\Documents\LPCXpresso_4.0.5_123\workspace\Lib_EaBaseBoard\Debug\libLib_EaBaseBoard.a
LOAD C:\Users\Envido32\Documents\LPCXpresso_4.0.5_123\workspace\Lib_MCU\Debug\libLib_MCU.a
LOAD C:\Users\Envido32\Documents\LPCXpresso_4.0.5_123\workspace\FreeRTOS_Library\Debug\libFreeRTOS_Library.a
START GROUP
LOAD c:/nxp/lpcxpresso_4.0.5_123/lpcxpresso/tools/bin/../lib/gcc/arm-none-eabi/4.5.1/../../../../arm-none-eabi/lib/thumb2\libcr_semihost.a
LOAD c:/nxp/lpcxpresso_4.0.5_123/lpcxpresso/tools/bin/../lib/gcc/arm-none-eabi/4.5.1/../../../../arm-none-eabi/lib/thumb2\libcr_c.a
LOAD c:/nxp/lpcxpresso_4.0.5_123/lpcxpresso/tools/bin/../lib/gcc/arm-none-eabi/4.5.1/thumb2\libcr_eabihelpers.a
END GROUP
                0x00080000                __top_MFlash512 = 0x80000
                0x10008000                __top_RamLoc32 = 0x10008000
                0x20084000                __top_RamAHB32 = 0x20084000
                0x40038800                __top_CANAccFilterRAM = 0x40038800

.text           0x00000000     0x4190
 FILL mask 0xff
 *(.isr_vector)
 .isr_vector    0x00000000       0xc4 ./cr_startup_lpc17.o
                0x00000000                g_pfnVectors
                0x000000c4                . = ALIGN (0x4)
                0x000000c4                __section_table_start = .
                0x000000c4                __data_section_table = .
                0x000000c4        0x4 LONG 0x4190 LOADADDR (.data)
                0x000000c8        0x4 LONG 0x10000000 ADDR (.data)
                0x000000cc        0x4 LONG 0x4 SIZEOF (.data)
                0x000000d0        0x4 LONG 0x4190 LOADADDR (.data_RAM2)
                0x000000d4        0x4 LONG 0x2007c000 ADDR (.data_RAM2)
                0x000000d8        0x4 LONG 0x0 SIZEOF (.data_RAM2)
                0x000000dc        0x4 LONG 0x4190 LOADADDR (.data_RAM3)
                0x000000e0        0x4 LONG 0x40038000 ADDR (.data_RAM3)
                0x000000e4        0x4 LONG 0x0 SIZEOF (.data_RAM3)
                0x000000e8                __data_section_table_end = .
                0x000000e8                __bss_section_table = .
                0x000000e8        0x4 LONG 0x10000008 ADDR (.bss)
                0x000000ec        0x4 LONG 0x2a70 SIZEOF (.bss)
                0x000000f0        0x4 LONG 0x2007c000 ADDR (.bss_RAM2)
                0x000000f4        0x4 LONG 0x0 SIZEOF (.bss_RAM2)
                0x000000f8        0x4 LONG 0x40038000 ADDR (.bss_RAM3)
                0x000000fc        0x4 LONG 0x0 SIZEOF (.bss_RAM3)
                0x00000100                __bss_section_table_end = .
                0x00000100                __section_table_end = .
 *(.after_vectors*)
 *(.text*)
 .text.NMI_Handler
                0x00000100        0x4 ./cr_startup_lpc17.o
                0x00000100                NMI_Handler
 .text.HardFault_Handler
                0x00000104        0x4 ./cr_startup_lpc17.o
                0x00000104                HardFault_Handler
 .text.MemManage_Handler
                0x00000108        0x4 ./cr_startup_lpc17.o
                0x00000108                MemManage_Handler
 .text.BusFault_Handler
                0x0000010c        0x4 ./cr_startup_lpc17.o
                0x0000010c                BusFault_Handler
 .text.UsageFault_Handler
                0x00000110        0x4 ./cr_startup_lpc17.o
                0x00000110                UsageFault_Handler
 .text.DebugMon_Handler
                0x00000114        0x4 ./cr_startup_lpc17.o
                0x00000114                DebugMon_Handler
 .text.Reset_Handler
                0x00000118       0x70 ./cr_startup_lpc17.o
                0x00000118                ResetISR
                0x00000118                Reset_Handler
 .text.IntDefaultHandler
                0x00000188        0x4 ./cr_startup_lpc17.o
                0x00000188                TIMER2_IRQHandler
                0x00000188                RIT_IRQHandler
                0x00000188                I2C0_IRQHandler
                0x00000188                PWM1_IRQHandler
                0x00000188                I2C1_IRQHandler
                0x00000188                EINT2_IRQHandler
                0x00000188                UART1_IRQHandler
                0x00000188                EINT3_IRQHandler
                0x00000188                TIMER3_IRQHandler
                0x00000188                UART0_IRQHandler
                0x00000188                PLL0_IRQHandler
                0x00000188                CAN_IRQHandler
                0x00000188                PLL1_IRQHandler
                0x00000188                SSP0_IRQHandler
                0x00000188                I2S_IRQHandler
                0x00000188                I2C2_IRQHandler
                0x00000188                RTC_IRQHandler
                0x00000188                TIMER0_IRQHandler
                0x00000188                SPI_IRQHandler
                0x00000188                EINT1_IRQHandler
                0x00000188                TIMER1_IRQHandler
                0x00000188                UART2_IRQHandler
                0x00000188                ADC_IRQHandler
                0x00000188                SSP1_IRQHandler
                0x00000188                USB_IRQHandler
                0x00000188                BOD_IRQHandler
                0x00000188                WDT_IRQHandler
                0x00000188                QEI_IRQHandler
                0x00000188                EINT0_IRQHandler
                0x00000188                DMA_IRQHandler
                0x00000188                UART3_IRQHandler
                0x00000188                MCPWM_IRQHandler
                0x00000188                ENET_IRQHandler
 .text.main     0x0000018c       0x54 ./main.o
                0x0000018c                main
 .text.Pulso    0x000001e0       0x34 ./main.o
                0x000001e0                Pulso
 .text.vTareaOndaCuadrada
                0x00000214       0x64 ./main.o
                0x00000214                vTareaOndaCuadrada
 .text.SystemInit
                0x00000278      0x22c C:\Users\Envido32\Documents\LPCXpresso_4.0.5_123\workspace\Lib_CMSISv1p30_LPC17xx\Debug\libCMSISv1p30_LPC17xx.a(system_LPC17xx.o)
                0x00000278                SystemInit
 .text.GPIO_GetPointer
                0x000004a4       0x7c C:\Users\Envido32\Documents\LPCXpresso_4.0.5_123\workspace\Lib_MCU\Debug\libLib_MCU.a(lpc17xx_gpio.o)
 .text.GPIO_SetDir
                0x00000520       0x50 C:\Users\Envido32\Documents\LPCXpresso_4.0.5_123\workspace\Lib_MCU\Debug\libLib_MCU.a(lpc17xx_gpio.o)
                0x00000520                GPIO_SetDir
 .text.GPIO_SetValue
                0x00000570       0x2c C:\Users\Envido32\Documents\LPCXpresso_4.0.5_123\workspace\Lib_MCU\Debug\libLib_MCU.a(lpc17xx_gpio.o)
                0x00000570                GPIO_SetValue
 .text.GPIO_ClearValue
                0x0000059c       0x2c C:\Users\Envido32\Documents\LPCXpresso_4.0.5_123\workspace\Lib_MCU\Debug\libLib_MCU.a(lpc17xx_gpio.o)
                0x0000059c                GPIO_ClearValue
 .text          0x000005c8      0x4dc C:\Users\Envido32\Documents\LPCXpresso_4.0.5_123\workspace\FreeRTOS_Library\Debug\libFreeRTOS_Library.a(queue.o)
                0x000006d0                xQueueCreate
                0x0000073c                xQueueCreateCountingSemaphore
                0x00000754                xQueueGenericSend
                0x00000838                xQueueCreateMutex
                0x00000884                xQueueGenericSendFromISR
                0x000008e0                xQueueGenericReceive
                0x000009fc                xQueueReceiveFromISR
                0x00000a5c                uxQueueMessagesWaiting
                0x00000a70                uxQueueMessagesWaitingFromISR
                0x00000a74                vQueueDelete
                0x00000a88                xQueueIsQueueEmptyFromISR
                0x00000a94                xQueueIsQueueFullFromISR
 .text          0x00000aa4      0xbf0 C:\Users\Envido32\Documents\LPCXpresso_4.0.5_123\workspace\FreeRTOS_Library\Debug\libFreeRTOS_Library.a(tasks.o)
                0x00000aa4                xTaskGenericCreate
                0x00000ca0                vTaskDelete
                0x00000d1c                uxTaskPriorityGet
                0x00000d3c                vTaskPrioritySet
                0x00000df0                vTaskSuspend
                0x00000e48                xTaskIsTaskSuspended
                0x00000e74                vTaskResume
                0x00000ef0                xTaskResumeFromISR
                0x00000f70                vTaskStartScheduler
                0x00000fc4                vTaskEndScheduler
                0x00000fe4                vTaskSuspendAll
                0x00000ffc                xTaskGetTickCount
                0x00001018                uxTaskGetNumberOfTasks
                0x00001024                vTaskIncrementTick
                0x000010ec                xTaskResumeAll
                0x00001264                vTaskDelay
                0x000012bc                vTaskDelayUntil
                0x00001358                vTaskSwitchContext
                0x0000140c                vTaskPlaceOnEventList
                0x00001478                xTaskRemoveFromEventList
                0x00001500                vTaskSetTimeOutState
                0x00001518                xTaskCheckForTimeOut
                0x00001594                vTaskMissedYield
                0x000015a8                xTaskGetCurrentTaskHandle
                0x000015b4                vTaskPriorityInherit
                0x00001640                vTaskPriorityDisinherit
 .text          0x00001694      0x144 C:\Users\Envido32\Documents\LPCXpresso_4.0.5_123\workspace\FreeRTOS_Library\Debug\libFreeRTOS_Library.a(heap_2.o)
                0x00001694                pvPortMalloc
                0x00001780                vPortFree
                0x000017c4                xPortGetFreeHeapSize
                0x000017d4                vPortInitialiseBlocks
 .text          0x000017d8      0x15c C:\Users\Envido32\Documents\LPCXpresso_4.0.5_123\workspace\FreeRTOS_Library\Debug\libFreeRTOS_Library.a(port.o)
                0x000017d8                pxPortInitialiseStack
                0x00001804                vPortSVCHandler
                0x00001824                vPortStartFirstTask
                0x00001830                xPortStartScheduler
                0x00001880                vPortEndScheduler
                0x00001884                vPortYieldFromISR
                0x00001894                vPortEnterCritical
                0x000018b0                vPortExitCritical
                0x000018cc                xPortPendSVHandler
                0x00001908                xPortSysTickHandler
 .text          0x00001934       0xa4 C:\Users\Envido32\Documents\LPCXpresso_4.0.5_123\workspace\FreeRTOS_Library\Debug\libFreeRTOS_Library.a(list.o)
                0x00001934                vListInitialise
                0x0000194c                vListInitialiseItem
                0x00001954                vListInsertEnd
                0x00001974                vListInsert
                0x000019b0                vListRemove
 .text.fp_round
                0x000019d8       0x56 c:/nxp/lpcxpresso_4.0.5_123/lpcxpresso/tools/bin/../lib/gcc/arm-none-eabi/4.5.1/../../../../arm-none-eabi/lib/thumb2\libcr_c.a(fpprintf.o)
 .text.lose_trailing_zeros
                0x00001a2e       0x1e c:/nxp/lpcxpresso_4.0.5_123/lpcxpresso/tools/bin/../lib/gcc/arm-none-eabi/4.5.1/../../../../arm-none-eabi/lib/thumb2\libcr_c.a(fpprintf.o)
 .text.pr_dec.clone.0
                0x00001a4c       0x24 c:/nxp/lpcxpresso_4.0.5_123/lpcxpresso/tools/bin/../lib/gcc/arm-none-eabi/4.5.1/../../../../arm-none-eabi/lib/thumb2\libcr_c.a(fpprintf.o)
 .text.sprintf  0x00001a70       0x70 c:/nxp/lpcxpresso_4.0.5_123/lpcxpresso/tools/bin/../lib/gcc/arm-none-eabi/4.5.1/../../../../arm-none-eabi/lib/thumb2\libcr_c.a(fpprintf.o)
                0x00001a70                sprintf
 .text.fp_display
                0x00001ae0      0x918 c:/nxp/lpcxpresso_4.0.5_123/lpcxpresso/tools/bin/../lib/gcc/arm-none-eabi/4.5.1/../../../../arm-none-eabi/lib/thumb2\libcr_c.a(fpprintf.o)
 .text.vsnprintf
                0x000023f8       0x5c c:/nxp/lpcxpresso_4.0.5_123/lpcxpresso/tools/bin/../lib/gcc/arm-none-eabi/4.5.1/../../../../arm-none-eabi/lib/thumb2\libcr_c.a(fpprintf.o)
                0x000023f8                vsnprintf
 .text.printf   0x00002454       0x50 c:/nxp/lpcxpresso_4.0.5_123/lpcxpresso/tools/bin/../lib/gcc/arm-none-eabi/4.5.1/../../../../arm-none-eabi/lib/thumb2\libcr_c.a(fpprintf.o)
                0x00002454                printf
 .text.__vfprintf
                0x000024a4      0xc3c c:/nxp/lpcxpresso_4.0.5_123/lpcxpresso/tools/bin/../lib/gcc/arm-none-eabi/4.5.1/../../../../arm-none-eabi/lib/thumb2\libcr_c.a(printf.o)
                0x000024a4                __vfprintf
 .text.strlen   0x000030e0       0x4e c:/nxp/lpcxpresso_4.0.5_123/lpcxpresso/tools/bin/../lib/gcc/arm-none-eabi/4.5.1/../../../../arm-none-eabi/lib/thumb2\libcr_c.a(strlen.o)
                0x000030e0                strlen
 .text.strncpy  0x0000312e       0x58 c:/nxp/lpcxpresso_4.0.5_123/lpcxpresso/tools/bin/../lib/gcc/arm-none-eabi/4.5.1/../../../../arm-none-eabi/lib/thumb2\libcr_c.a(strncpy.o)
                0x0000312e                strncpy
 .text.memcpy   0x00003186        0x4 c:/nxp/lpcxpresso_4.0.5_123/lpcxpresso/tools/bin/../lib/gcc/arm-none-eabi/4.5.1/../../../../arm-none-eabi/lib/thumb2\libcr_c.a(memcpy.o)
                0x00003186                memcpy
 .text.memset   0x0000318a        0x4 c:/nxp/lpcxpresso_4.0.5_123/lpcxpresso/tools/bin/../lib/gcc/arm-none-eabi/4.5.1/../../../../arm-none-eabi/lib/thumb2\libcr_c.a(memset.o)
                0x0000318a                memset
 .text._deferredlazyseek
                0x0000318e       0x44 c:/nxp/lpcxpresso_4.0.5_123/lpcxpresso/tools/bin/../lib/gcc/arm-none-eabi/4.5.1/../../../../arm-none-eabi/lib/thumb2\libcr_c.a(_deferredlazyseek.o)
                0x0000318e                _deferredlazyseek
 .text.__flsbuf
                0x000031d2      0x15e c:/nxp/lpcxpresso_4.0.5_123/lpcxpresso/tools/bin/../lib/gcc/arm-none-eabi/4.5.1/../../../../arm-none-eabi/lib/thumb2\libcr_c.a(_deferredlazyseek.o)
                0x000031d2                __flsbuf
 .text._fflush  0x00003330       0x58 c:/nxp/lpcxpresso_4.0.5_123/lpcxpresso/tools/bin/../lib/gcc/arm-none-eabi/4.5.1/../../../../arm-none-eabi/lib/thumb2\libcr_c.a(_fflush.o)
                0x00003330                _fflush
 .text._frexpl  0x00003388       0x62 c:/nxp/lpcxpresso_4.0.5_123/lpcxpresso/tools/bin/../lib/gcc/arm-none-eabi/4.5.1/../../../../arm-none-eabi/lib/thumb2\libcr_c.a(_frexpl.o)
                0x00003388                _frexpl
 *fill*         0x000033ea        0x2 00
 .text._ldexpl  0x000033ec       0x50 c:/nxp/lpcxpresso_4.0.5_123/lpcxpresso/tools/bin/../lib/gcc/arm-none-eabi/4.5.1/../../../../arm-none-eabi/lib/thumb2\libcr_c.a(_ldexpl.o)
                0x000033ec                _ldexpl
 .text._Cwritebuf
                0x0000343c       0x88 c:/nxp/lpcxpresso_4.0.5_123/lpcxpresso/tools/bin/../lib/gcc/arm-none-eabi/4.5.1/../../../../arm-none-eabi/lib/thumb2\libcr_c.a(_writebuf.o)
                0x0000343c                _Cwritebuf
 .text.malloc   0x000034c4       0xd0 c:/nxp/lpcxpresso_4.0.5_123/lpcxpresso/tools/bin/../lib/gcc/arm-none-eabi/4.5.1/../../../../arm-none-eabi/lib/thumb2\libcr_c.a(alloc.o)
                0x000034c4                malloc
 .text.free     0x00003594        0xa c:/nxp/lpcxpresso_4.0.5_123/lpcxpresso/tools/bin/../lib/gcc/arm-none-eabi/4.5.1/../../../../arm-none-eabi/lib/thumb2\libcr_c.a(alloc.o)
                0x00003594                free
 *fill*         0x0000359e        0x2 00
 .text._Csys_alloc
                0x000035a0       0x20 c:/nxp/lpcxpresso_4.0.5_123/lpcxpresso/tools/bin/../lib/gcc/arm-none-eabi/4.5.1/../../../../arm-none-eabi/lib/thumb2\libcr_c.a(alloc.o)
                0x000035a0                _Csys_alloc
 .text.fseek    0x000035c0      0x110 c:/nxp/lpcxpresso_4.0.5_123/lpcxpresso/tools/bin/../lib/gcc/arm-none-eabi/4.5.1/../../../../arm-none-eabi/lib/thumb2\libcr_c.a(fseek.o)
                0x000035c0                fseek
 .text.ftell    0x000036d0       0x50 c:/nxp/lpcxpresso_4.0.5_123/lpcxpresso/tools/bin/../lib/gcc/arm-none-eabi/4.5.1/../../../../arm-none-eabi/lib/thumb2\libcr_c.a(ftell.o)
                0x000036d0                ftell
 .text.__aeabi_dmul
                0x00003720      0x128 c:/nxp/lpcxpresso_4.0.5_123/lpcxpresso/tools/bin/../lib/gcc/arm-none-eabi/4.5.1/thumb2\libcr_eabihelpers.a(double.o)
                0x00003720                __aeabi_dmul
 .text.__aeabi_ddiv
                0x00003848      0x144 c:/nxp/lpcxpresso_4.0.5_123/lpcxpresso/tools/bin/../lib/gcc/arm-none-eabi/4.5.1/thumb2\libcr_eabihelpers.a(double.o)
                0x00003848                __aeabi_ddiv
 .text.__aeabi_dsub
                0x0000398c      0x1d8 c:/nxp/lpcxpresso_4.0.5_123/lpcxpresso/tools/bin/../lib/gcc/arm-none-eabi/4.5.1/thumb2\libcr_eabihelpers.a(double.o)
                0x0000398c                __aeabi_dsub
 .text.__aeabi_dadd
                0x00003b64      0x13c c:/nxp/lpcxpresso_4.0.5_123/lpcxpresso/tools/bin/../lib/gcc/arm-none-eabi/4.5.1/thumb2\libcr_eabihelpers.a(double.o)
                0x00003b64                __aeabi_dadd
 .text.__aeabi_d2iz
                0x00003ca0       0x3e c:/nxp/lpcxpresso_4.0.5_123/lpcxpresso/tools/bin/../lib/gcc/arm-none-eabi/4.5.1/thumb2\libcr_eabihelpers.a(double.o)
                0x00003ca0                __aeabi_d2iz
 .text.__bhs_ui2d
                0x00003cde       0x50 c:/nxp/lpcxpresso_4.0.5_123/lpcxpresso/tools/bin/../lib/gcc/arm-none-eabi/4.5.1/thumb2\libcr_eabihelpers.a(double.o)
                0x00003cde                __bhs_ui2d
 .text.__aeabi_i2d
                0x00003d2e       0x10 c:/nxp/lpcxpresso_4.0.5_123/lpcxpresso/tools/bin/../lib/gcc/arm-none-eabi/4.5.1/thumb2\libcr_eabihelpers.a(double.o)
                0x00003d2e                __aeabi_i2d
 .text.__aeabi_dcmpeq
                0x00003d3e       0x36 c:/nxp/lpcxpresso_4.0.5_123/lpcxpresso/tools/bin/../lib/gcc/arm-none-eabi/4.5.1/thumb2\libcr_eabihelpers.a(double.o)
                0x00003d3e                __aeabi_dcmpeq
 .text.__aeabi_dcmplt
                0x00003d74       0x5a c:/nxp/lpcxpresso_4.0.5_123/lpcxpresso/tools/bin/../lib/gcc/arm-none-eabi/4.5.1/thumb2\libcr_eabihelpers.a(double.o)
                0x00003d74                __aeabi_dcmplt
 .text.__aeabi_dcmple
                0x00003dce       0x5a c:/nxp/lpcxpresso_4.0.5_123/lpcxpresso/tools/bin/../lib/gcc/arm-none-eabi/4.5.1/thumb2\libcr_eabihelpers.a(double.o)
                0x00003dce                __aeabi_dcmple
 .text.__aeabi_dcmpge
                0x00003e28       0x5a c:/nxp/lpcxpresso_4.0.5_123/lpcxpresso/tools/bin/../lib/gcc/arm-none-eabi/4.5.1/thumb2\libcr_eabihelpers.a(double.o)
                0x00003e28                __aeabi_dcmpge
 .text.__aeabi_memcpy
                0x00003e82       0x26 c:/nxp/lpcxpresso_4.0.5_123/lpcxpresso/tools/bin/../lib/gcc/arm-none-eabi/4.5.1/thumb2\libcr_eabihelpers.a(memcpy.o)
                0x00003e82                __aeabi_memcpy4
                0x00003e82                __aeabi_memcpy8
                0x00003e82                __aeabi_memcpy
 .text.__aeabi_memset_lowlevel
                0x00003ea8       0x24 c:/nxp/lpcxpresso_4.0.5_123/lpcxpresso/tools/bin/../lib/gcc/arm-none-eabi/4.5.1/thumb2\libcr_eabihelpers.a(memcpy.o)
                0x00003ea8                __aeabi_lowlevel_memset
 .text.__sys_appexit
                0x00003ecc        0xc c:/nxp/lpcxpresso_4.0.5_123/lpcxpresso/tools/bin/../lib/gcc/arm-none-eabi/4.5.1/../../../../arm-none-eabi/lib/thumb2\libcr_semihost.a(__sys_appexit.o)
                0x00003ecc                __sys_appexit
                0x00003ecc                __exit
 .text.__sys_flen
                0x00003ed8        0xc c:/nxp/lpcxpresso_4.0.5_123/lpcxpresso/tools/bin/../lib/gcc/arm-none-eabi/4.5.1/../../../../arm-none-eabi/lib/thumb2\libcr_semihost.a(__sys_flen.o)
                0x00003ed8                __sys_flen
 .text.__sys_istty
                0x00003ee4        0xc c:/nxp/lpcxpresso_4.0.5_123/lpcxpresso/tools/bin/../lib/gcc/arm-none-eabi/4.5.1/../../../../arm-none-eabi/lib/thumb2\libcr_semihost.a(__sys_istty.o)
                0x00003ee4                __sys_istty
 .text.__sys_seek
                0x00003ef0        0xc c:/nxp/lpcxpresso_4.0.5_123/lpcxpresso/tools/bin/../lib/gcc/arm-none-eabi/4.5.1/../../../../arm-none-eabi/lib/thumb2\libcr_semihost.a(__sys_seek.o)
                0x00003ef0                __sys_seek
 .text.__sys_write
                0x00003efc        0xc c:/nxp/lpcxpresso_4.0.5_123/lpcxpresso/tools/bin/../lib/gcc/arm-none-eabi/4.5.1/../../../../arm-none-eabi/lib/thumb2\libcr_semihost.a(__sys_write.o)
                0x00003efc                __sys_write
                0x00003efc                __write
 .text._sbrk    0x00003f08       0x40 c:/nxp/lpcxpresso_4.0.5_123/lpcxpresso/tools/bin/../lib/gcc/arm-none-eabi/4.5.1/../../../../arm-none-eabi/lib/thumb2\libcr_semihost.a(_cr_sbrk.o)
                0x00003f08                _sbrk
 .text.__check_heap_overflow
                0x00003f48       0x2c c:/nxp/lpcxpresso_4.0.5_123/lpcxpresso/tools/bin/../lib/gcc/arm-none-eabi/4.5.1/../../../../arm-none-eabi/lib/thumb2\libcr_semihost.a(_cr_check_heap.o)
                0x00003f48                __check_heap_overflow
 *(.rodata .rodata.*)
 .rodata.str1.4
                0x00003f74        0xc ./main.o
 .rodata.str1.4
                0x00003f80        0x8 C:\Users\Envido32\Documents\LPCXpresso_4.0.5_123\workspace\FreeRTOS_Library\Debug\libFreeRTOS_Library.a(tasks.o)
 .rodata.str1.1
                0x00003f88       0x34 c:/nxp/lpcxpresso_4.0.5_123/lpcxpresso/tools/bin/../lib/gcc/arm-none-eabi/4.5.1/../../../../arm-none-eabi/lib/thumb2\libcr_c.a(fpprintf.o)
                                 0x35 (size before relaxing)
 .rodata.str1.1
                0x00003fbc       0x31 c:/nxp/lpcxpresso_4.0.5_123/lpcxpresso/tools/bin/../lib/gcc/arm-none-eabi/4.5.1/../../../../arm-none-eabi/lib/thumb2\libcr_c.a(printf.o)
                                 0x38 (size before relaxing)
 .rodata.str1.1
                0x00003fed       0x18 c:/nxp/lpcxpresso_4.0.5_123/lpcxpresso/tools/bin/../lib/gcc/arm-none-eabi/4.5.1/../../../../arm-none-eabi/lib/thumb2\libcr_c.a(alloc.o)
 .rodata.__ctype
                0x00004005      0x180 c:/nxp/lpcxpresso_4.0.5_123/lpcxpresso/tools/bin/../lib/gcc/arm-none-eabi/4.5.1/../../../../arm-none-eabi/lib/thumb2\libcr_c.a(ctype.o)
                0x00004005                __ctype
 *fill*         0x00004185        0x3 00
 .rodata.__huge_vall
                0x00004188        0x8 c:/nxp/lpcxpresso_4.0.5_123/lpcxpresso/tools/bin/../lib/gcc/arm-none-eabi/4.5.1/../../../../arm-none-eabi/lib/thumb2\libcr_c.a(_hugeval.o)
                0x00004188                __huge_vall
                0x00004190                . = ALIGN (0x4)

.glue_7         0x00004190        0x0
 .glue_7        0x00000000        0x0 linker stubs

.glue_7t        0x00004190        0x0
 .glue_7t       0x00000000        0x0 linker stubs

.vfp11_veneer   0x00004190        0x0
 .vfp11_veneer  0x00000000        0x0 linker stubs

.v4_bx          0x00004190        0x0
 .v4_bx         0x00000000        0x0 linker stubs

.ARM.extab
 *(.ARM.extab* .gnu.linkonce.armextab.*)
                0x00004190                __exidx_start = .

.ARM.exidx
 *(.ARM.exidx* .gnu.linkonce.armexidx.*)
                0x00004190                __exidx_end = .
                0x00004190                _etext = .

.data_RAM2      0x2007c000        0x0 load address 0x00004190
 FILL mask 0xff
 *(.data.$RAM2*)
 *(.data.$RamAHB32*)
                0x2007c000                . = ALIGN (0x4)

.data_RAM3      0x40038000        0x0 load address 0x00004190
 FILL mask 0xff
 *(.data.$RAM3*)
 *(.data.$CANAccFilterRAM*)
                0x40038000                . = ALIGN (0x4)

.uninit_RESERVED
 *(.bss.$RESERVED*)

.data           0x10000000        0x4 load address 0x00004190
 FILL mask 0xff
                0x10000000                _data = .
 *(vtable)
 *(.data*)
 .data          0x10000000        0x4 C:\Users\Envido32\Documents\LPCXpresso_4.0.5_123\workspace\FreeRTOS_Library\Debug\libFreeRTOS_Library.a(port.o)
                0x10000004                . = ALIGN (0x4)
                0x10000004                _edata = .

.bss_RAM2       0x2007c000        0x0
 *(.bss.$RAM2*)
 *(.bss.$RamAHB32*)
                0x2007c000                . = ALIGN (0x4)

.bss_RAM3       0x40038000        0x0
 *(.bss.$RAM3*)
 *(.bss.$CANAccFilterRAM*)
                0x40038000                . = ALIGN (0x4)

.bss            0x10000008     0x2a70
                0x10000008                _bss = .
 *(.bss*)
 .bss           0x10000008      0x100 C:\Users\Envido32\Documents\LPCXpresso_4.0.5_123\workspace\FreeRTOS_Library\Debug\libFreeRTOS_Library.a(tasks.o)
                0x1000000c                pxCurrentTCB
 .bss           0x10000108     0x2820 C:\Users\Envido32\Documents\LPCXpresso_4.0.5_123\workspace\FreeRTOS_Library\Debug\libFreeRTOS_Library.a(heap_2.o)
 .bss.errno     0x10002928        0x4 c:/nxp/lpcxpresso_4.0.5_123/lpcxpresso/tools/bin/../lib/gcc/arm-none-eabi/4.5.1/../../../../arm-none-eabi/lib/thumb2\libcr_c.a(errno.o)
                0x10002928                errno
 *(COMMON)
 COMMON         0x1000292c        0x4 ./main.o
                0x1000292c                xQueue
 COMMON         0x10002930      0x140 c:/nxp/lpcxpresso_4.0.5_123/lpcxpresso/tools/bin/../lib/gcc/arm-none-eabi/4.5.1/../../../../arm-none-eabi/lib/thumb2\libcr_c.a(stdio.o)
                0x10002930                __Ciob
 COMMON         0x10002a70        0x8 c:/nxp/lpcxpresso_4.0.5_123/lpcxpresso/tools/bin/../lib/gcc/arm-none-eabi/4.5.1/../../../../arm-none-eabi/lib/thumb2\libcr_c.a(__init_alloc.o)
                0x10002a70                __heaps
                0x10002a74                __end_of_heap
                0x10002a78                . = ALIGN (0x4)
                0x10002a78                _ebss = .
                0x10002a78                PROVIDE (end, .)
                0x10002a78                PROVIDE (_pvHeapStart, .)
                0x10008000                PROVIDE (_vStackTop, (__top_RamLoc32 - 0x0))
OUTPUT(Example01.axf elf32-littlearm)

.debug_abbrev   0x00000000      0xbfd
 .debug_abbrev  0x00000000       0xe3 ./cr_startup_lpc17.o
 .debug_abbrev  0x000000e3       0xf3 ./main.o
 .debug_abbrev  0x000001d6       0xce C:\Users\Envido32\Documents\LPCXpresso_4.0.5_123\workspace\Lib_CMSISv1p30_LPC17xx\Debug\libCMSISv1p30_LPC17xx.a(system_LPC17xx.o)
 .debug_abbrev  0x000002a4      0x185 C:\Users\Envido32\Documents\LPCXpresso_4.0.5_123\workspace\Lib_MCU\Debug\libLib_MCU.a(lpc17xx_gpio.o)
 .debug_abbrev  0x00000429      0x1b3 C:\Users\Envido32\Documents\LPCXpresso_4.0.5_123\workspace\FreeRTOS_Library\Debug\libFreeRTOS_Library.a(queue.o)
 .debug_abbrev  0x000005dc      0x285 C:\Users\Envido32\Documents\LPCXpresso_4.0.5_123\workspace\FreeRTOS_Library\Debug\libFreeRTOS_Library.a(tasks.o)
 .debug_abbrev  0x00000861      0x19a C:\Users\Envido32\Documents\LPCXpresso_4.0.5_123\workspace\FreeRTOS_Library\Debug\libFreeRTOS_Library.a(heap_2.o)
 .debug_abbrev  0x000009fb      0x128 C:\Users\Envido32\Documents\LPCXpresso_4.0.5_123\workspace\FreeRTOS_Library\Debug\libFreeRTOS_Library.a(port.o)
 .debug_abbrev  0x00000b23       0xda C:\Users\Envido32\Documents\LPCXpresso_4.0.5_123\workspace\FreeRTOS_Library\Debug\libFreeRTOS_Library.a(list.o)

.debug_info     0x00000000     0x302a
 .debug_info    0x00000000      0x215 ./cr_startup_lpc17.o
 .debug_info    0x00000215      0x1c4 ./main.o
 .debug_info    0x000003d9      0x357 C:\Users\Envido32\Documents\LPCXpresso_4.0.5_123\workspace\Lib_CMSISv1p30_LPC17xx\Debug\libCMSISv1p30_LPC17xx.a(system_LPC17xx.o)
 .debug_info    0x00000730      0xb95 C:\Users\Envido32\Documents\LPCXpresso_4.0.5_123\workspace\Lib_MCU\Debug\libLib_MCU.a(lpc17xx_gpio.o)
 .debug_info    0x000012c5      0x816 C:\Users\Envido32\Documents\LPCXpresso_4.0.5_123\workspace\FreeRTOS_Library\Debug\libFreeRTOS_Library.a(queue.o)
 .debug_info    0x00001adb      0xd97 C:\Users\Envido32\Documents\LPCXpresso_4.0.5_123\workspace\FreeRTOS_Library\Debug\libFreeRTOS_Library.a(tasks.o)
 .debug_info    0x00002872      0x2d3 C:\Users\Envido32\Documents\LPCXpresso_4.0.5_123\workspace\FreeRTOS_Library\Debug\libFreeRTOS_Library.a(heap_2.o)
 .debug_info    0x00002b45      0x220 C:\Users\Envido32\Documents\LPCXpresso_4.0.5_123\workspace\FreeRTOS_Library\Debug\libFreeRTOS_Library.a(port.o)
 .debug_info    0x00002d65      0x2c5 C:\Users\Envido32\Documents\LPCXpresso_4.0.5_123\workspace\FreeRTOS_Library\Debug\libFreeRTOS_Library.a(list.o)

.debug_line     0x00000000     0x30fa
 .debug_line    0x00000000      0x424 ./cr_startup_lpc17.o
 .debug_line    0x00000424      0x583 ./main.o
 .debug_line    0x000009a7      0x415 C:\Users\Envido32\Documents\LPCXpresso_4.0.5_123\workspace\Lib_CMSISv1p30_LPC17xx\Debug\libCMSISv1p30_LPC17xx.a(system_LPC17xx.o)
 .debug_line    0x00000dbc      0x5fa C:\Users\Envido32\Documents\LPCXpresso_4.0.5_123\workspace\Lib_MCU\Debug\libLib_MCU.a(lpc17xx_gpio.o)
 .debug_line    0x000013b6      0x638 C:\Users\Envido32\Documents\LPCXpresso_4.0.5_123\workspace\FreeRTOS_Library\Debug\libFreeRTOS_Library.a(queue.o)
 .debug_line    0x000019ee      0x7b7 C:\Users\Envido32\Documents\LPCXpresso_4.0.5_123\workspace\FreeRTOS_Library\Debug\libFreeRTOS_Library.a(tasks.o)
 .debug_line    0x000021a5      0x54b C:\Users\Envido32\Documents\LPCXpresso_4.0.5_123\workspace\FreeRTOS_Library\Debug\libFreeRTOS_Library.a(heap_2.o)
 .debug_line    0x000026f0      0x504 C:\Users\Envido32\Documents\LPCXpresso_4.0.5_123\workspace\FreeRTOS_Library\Debug\libFreeRTOS_Library.a(port.o)
 .debug_line    0x00002bf4      0x506 C:\Users\Envido32\Documents\LPCXpresso_4.0.5_123\workspace\FreeRTOS_Library\Debug\libFreeRTOS_Library.a(list.o)

.debug_macinfo  0x00000000    0x4a2d9
 .debug_macinfo
                0x00000000     0x3113 ./cr_startup_lpc17.o
 .debug_macinfo
                0x00003113     0x9ca6 ./main.o
 .debug_macinfo
                0x0000cdb9     0x77f2 C:\Users\Envido32\Documents\LPCXpresso_4.0.5_123\workspace\Lib_CMSISv1p30_LPC17xx\Debug\libCMSISv1p30_LPC17xx.a(system_LPC17xx.o)
 .debug_macinfo
                0x000145ab     0x7ab2 C:\Users\Envido32\Documents\LPCXpresso_4.0.5_123\workspace\Lib_MCU\Debug\libLib_MCU.a(lpc17xx_gpio.o)
 .debug_macinfo
                0x0001c05d     0x98b7 C:\Users\Envido32\Documents\LPCXpresso_4.0.5_123\workspace\FreeRTOS_Library\Debug\libFreeRTOS_Library.a(queue.o)
 .debug_macinfo
                0x00025914     0x979a C:\Users\Envido32\Documents\LPCXpresso_4.0.5_123\workspace\FreeRTOS_Library\Debug\libFreeRTOS_Library.a(tasks.o)
 .debug_macinfo
                0x0002f0ae     0x9398 C:\Users\Envido32\Documents\LPCXpresso_4.0.5_123\workspace\FreeRTOS_Library\Debug\libFreeRTOS_Library.a(heap_2.o)
 .debug_macinfo
                0x00038446     0x91d5 C:\Users\Envido32\Documents\LPCXpresso_4.0.5_123\workspace\FreeRTOS_Library\Debug\libFreeRTOS_Library.a(port.o)
 .debug_macinfo
                0x0004161b     0x8cbe C:\Users\Envido32\Documents\LPCXpresso_4.0.5_123\workspace\FreeRTOS_Library\Debug\libFreeRTOS_Library.a(list.o)

.debug_loc      0x00000000     0x1956
 .debug_loc     0x00000000       0x33 ./cr_startup_lpc17.o
 .debug_loc     0x00000033       0xb5 ./main.o
 .debug_loc     0x000000e8       0x58 C:\Users\Envido32\Documents\LPCXpresso_4.0.5_123\workspace\Lib_CMSISv1p30_LPC17xx\Debug\libCMSISv1p30_LPC17xx.a(system_LPC17xx.o)
 .debug_loc     0x00000140      0x4d0 C:\Users\Envido32\Documents\LPCXpresso_4.0.5_123\workspace\Lib_MCU\Debug\libLib_MCU.a(lpc17xx_gpio.o)
 .debug_loc     0x00000610      0x69f C:\Users\Envido32\Documents\LPCXpresso_4.0.5_123\workspace\FreeRTOS_Library\Debug\libFreeRTOS_Library.a(queue.o)
 .debug_loc     0x00000caf      0x9cc C:\Users\Envido32\Documents\LPCXpresso_4.0.5_123\workspace\FreeRTOS_Library\Debug\libFreeRTOS_Library.a(tasks.o)
 .debug_loc     0x0000167b      0x1fd C:\Users\Envido32\Documents\LPCXpresso_4.0.5_123\workspace\FreeRTOS_Library\Debug\libFreeRTOS_Library.a(heap_2.o)
 .debug_loc     0x00001878       0x89 C:\Users\Envido32\Documents\LPCXpresso_4.0.5_123\workspace\FreeRTOS_Library\Debug\libFreeRTOS_Library.a(port.o)
 .debug_loc     0x00001901       0x55 C:\Users\Envido32\Documents\LPCXpresso_4.0.5_123\workspace\FreeRTOS_Library\Debug\libFreeRTOS_Library.a(list.o)

.debug_pubnames
                0x00000000      0x8b1
 .debug_pubnames
                0x00000000       0xec ./cr_startup_lpc17.o
 .debug_pubnames
                0x000000ec       0x47 ./main.o
 .debug_pubnames
                0x00000133       0x4f C:\Users\Envido32\Documents\LPCXpresso_4.0.5_123\workspace\Lib_CMSISv1p30_LPC17xx\Debug\libCMSISv1p30_LPC17xx.a(system_LPC17xx.o)
 .debug_pubnames
                0x00000182      0x196 C:\Users\Envido32\Documents\LPCXpresso_4.0.5_123\workspace\Lib_MCU\Debug\libLib_MCU.a(lpc17xx_gpio.o)
 .debug_pubnames
                0x00000318      0x149 C:\Users\Envido32\Documents\LPCXpresso_4.0.5_123\workspace\FreeRTOS_Library\Debug\libFreeRTOS_Library.a(queue.o)
 .debug_pubnames
                0x00000461      0x26e C:\Users\Envido32\Documents\LPCXpresso_4.0.5_123\workspace\FreeRTOS_Library\Debug\libFreeRTOS_Library.a(tasks.o)
 .debug_pubnames
                0x000006cf       0x64 C:\Users\Envido32\Documents\LPCXpresso_4.0.5_123\workspace\FreeRTOS_Library\Debug\libFreeRTOS_Library.a(heap_2.o)
 .debug_pubnames
                0x00000733      0x10d C:\Users\Envido32\Documents\LPCXpresso_4.0.5_123\workspace\FreeRTOS_Library\Debug\libFreeRTOS_Library.a(port.o)
 .debug_pubnames
                0x00000840       0x71 C:\Users\Envido32\Documents\LPCXpresso_4.0.5_123\workspace\FreeRTOS_Library\Debug\libFreeRTOS_Library.a(list.o)

.debug_pubtypes
                0x00000000      0x3ce
 .debug_pubtypes
                0x00000000       0x12 ./cr_startup_lpc17.o
 .debug_pubtypes
                0x00000012       0x34 ./main.o
 .debug_pubtypes
                0x00000046       0x32 C:\Users\Envido32\Documents\LPCXpresso_4.0.5_123\workspace\Lib_CMSISv1p30_LPC17xx\Debug\libCMSISv1p30_LPC17xx.a(system_LPC17xx.o)
 .debug_pubtypes
                0x00000078       0x7d C:\Users\Envido32\Documents\LPCXpresso_4.0.5_123\workspace\Lib_MCU\Debug\libLib_MCU.a(lpc17xx_gpio.o)
 .debug_pubtypes
                0x000000f5       0xd4 C:\Users\Envido32\Documents\LPCXpresso_4.0.5_123\workspace\FreeRTOS_Library\Debug\libFreeRTOS_Library.a(queue.o)
 .debug_pubtypes
                0x000001c9      0x10c C:\Users\Envido32\Documents\LPCXpresso_4.0.5_123\workspace\FreeRTOS_Library\Debug\libFreeRTOS_Library.a(tasks.o)
 .debug_pubtypes
                0x000002d5       0x4c C:\Users\Envido32\Documents\LPCXpresso_4.0.5_123\workspace\FreeRTOS_Library\Debug\libFreeRTOS_Library.a(heap_2.o)
 .debug_pubtypes
                0x00000321       0x33 C:\Users\Envido32\Documents\LPCXpresso_4.0.5_123\workspace\FreeRTOS_Library\Debug\libFreeRTOS_Library.a(port.o)
 .debug_pubtypes
                0x00000354       0x7a C:\Users\Envido32\Documents\LPCXpresso_4.0.5_123\workspace\FreeRTOS_Library\Debug\libFreeRTOS_Library.a(list.o)

.debug_aranges  0x00000000      0x230
 .debug_aranges
                0x00000000       0x70 ./cr_startup_lpc17.o
 .debug_aranges
                0x00000070       0x30 ./main.o
 .debug_aranges
                0x000000a0       0x28 C:\Users\Envido32\Documents\LPCXpresso_4.0.5_123\workspace\Lib_CMSISv1p30_LPC17xx\Debug\libCMSISv1p30_LPC17xx.a(system_LPC17xx.o)
 .debug_aranges
                0x000000c8       0xc8 C:\Users\Envido32\Documents\LPCXpresso_4.0.5_123\workspace\Lib_MCU\Debug\libLib_MCU.a(lpc17xx_gpio.o)
 .debug_aranges
                0x00000190       0x20 C:\Users\Envido32\Documents\LPCXpresso_4.0.5_123\workspace\FreeRTOS_Library\Debug\libFreeRTOS_Library.a(queue.o)
 .debug_aranges
                0x000001b0       0x20 C:\Users\Envido32\Documents\LPCXpresso_4.0.5_123\workspace\FreeRTOS_Library\Debug\libFreeRTOS_Library.a(tasks.o)
 .debug_aranges
                0x000001d0       0x20 C:\Users\Envido32\Documents\LPCXpresso_4.0.5_123\workspace\FreeRTOS_Library\Debug\libFreeRTOS_Library.a(heap_2.o)
 .debug_aranges
                0x000001f0       0x20 C:\Users\Envido32\Documents\LPCXpresso_4.0.5_123\workspace\FreeRTOS_Library\Debug\libFreeRTOS_Library.a(port.o)
 .debug_aranges
                0x00000210       0x20 C:\Users\Envido32\Documents\LPCXpresso_4.0.5_123\workspace\FreeRTOS_Library\Debug\libFreeRTOS_Library.a(list.o)

.debug_ranges   0x00000000      0x1c0
 .debug_ranges  0x00000000       0x60 ./cr_startup_lpc17.o
 .debug_ranges  0x00000060       0x20 ./main.o
 .debug_ranges  0x00000080       0x18 C:\Users\Envido32\Documents\LPCXpresso_4.0.5_123\workspace\Lib_CMSISv1p30_LPC17xx\Debug\libCMSISv1p30_LPC17xx.a(system_LPC17xx.o)
 .debug_ranges  0x00000098       0xb8 C:\Users\Envido32\Documents\LPCXpresso_4.0.5_123\workspace\Lib_MCU\Debug\libLib_MCU.a(lpc17xx_gpio.o)
 .debug_ranges  0x00000150       0x70 C:\Users\Envido32\Documents\LPCXpresso_4.0.5_123\workspace\FreeRTOS_Library\Debug\libFreeRTOS_Library.a(tasks.o)

.debug_str      0x00000000     0x14e0
 .debug_str     0x00000000      0x1b4 ./cr_startup_lpc17.o
                                0x1e8 (size before relaxing)
 .debug_str     0x000001b4       0xac ./main.o
                                0x197 (size before relaxing)
 .debug_str     0x00000260      0x1db C:\Users\Envido32\Documents\LPCXpresso_4.0.5_123\workspace\Lib_CMSISv1p30_LPC17xx\Debug\libCMSISv1p30_LPC17xx.a(system_LPC17xx.o)
                                0x26d (size before relaxing)
 .debug_str     0x0000043b      0x36e C:\Users\Envido32\Documents\LPCXpresso_4.0.5_123\workspace\Lib_MCU\Debug\libLib_MCU.a(lpc17xx_gpio.o)
                                0x442 (size before relaxing)
 .debug_str     0x000007a9      0x41c C:\Users\Envido32\Documents\LPCXpresso_4.0.5_123\workspace\FreeRTOS_Library\Debug\libFreeRTOS_Library.a(queue.o)
                                0x4fe (size before relaxing)
 .debug_str     0x00000bc5      0x61f C:\Users\Envido32\Documents\LPCXpresso_4.0.5_123\workspace\FreeRTOS_Library\Debug\libFreeRTOS_Library.a(tasks.o)
                                0x821 (size before relaxing)
 .debug_str     0x000011e4      0x150 C:\Users\Envido32\Documents\LPCXpresso_4.0.5_123\workspace\FreeRTOS_Library\Debug\libFreeRTOS_Library.a(heap_2.o)
                                0x24d (size before relaxing)
 .debug_str     0x00001334      0x11a C:\Users\Envido32\Documents\LPCXpresso_4.0.5_123\workspace\FreeRTOS_Library\Debug\libFreeRTOS_Library.a(port.o)
                                0x243 (size before relaxing)
 .debug_str     0x0000144e       0x92 C:\Users\Envido32\Documents\LPCXpresso_4.0.5_123\workspace\FreeRTOS_Library\Debug\libFreeRTOS_Library.a(list.o)
                                0x231 (size before relaxing)

.comment        0x00000000       0x2a
 .comment       0x00000000       0x2a ./cr_startup_lpc17.o
                                 0x2b (size before relaxing)
 .comment       0x00000000       0x2b ./main.o
 .comment       0x00000000       0x2b C:\Users\Envido32\Documents\LPCXpresso_4.0.5_123\workspace\Lib_CMSISv1p30_LPC17xx\Debug\libCMSISv1p30_LPC17xx.a(system_LPC17xx.o)
 .comment       0x00000000       0x2b C:\Users\Envido32\Documents\LPCXpresso_4.0.5_123\workspace\Lib_MCU\Debug\libLib_MCU.a(lpc17xx_gpio.o)
 .comment       0x00000000       0x2b C:\Users\Envido32\Documents\LPCXpresso_4.0.5_123\workspace\FreeRTOS_Library\Debug\libFreeRTOS_Library.a(queue.o)
 .comment       0x00000000       0x2b C:\Users\Envido32\Documents\LPCXpresso_4.0.5_123\workspace\FreeRTOS_Library\Debug\libFreeRTOS_Library.a(tasks.o)
 .comment       0x00000000       0x2b C:\Users\Envido32\Documents\LPCXpresso_4.0.5_123\workspace\FreeRTOS_Library\Debug\libFreeRTOS_Library.a(heap_2.o)
 .comment       0x00000000       0x2b C:\Users\Envido32\Documents\LPCXpresso_4.0.5_123\workspace\FreeRTOS_Library\Debug\libFreeRTOS_Library.a(port.o)
 .comment       0x00000000       0x2b C:\Users\Envido32\Documents\LPCXpresso_4.0.5_123\workspace\FreeRTOS_Library\Debug\libFreeRTOS_Library.a(list.o)
 .comment       0x00000000       0x2b c:/nxp/lpcxpresso_4.0.5_123/lpcxpresso/tools/bin/../lib/gcc/arm-none-eabi/4.5.1/../../../../arm-none-eabi/lib/thumb2\libcr_c.a(fpprintf.o)
 .comment       0x00000000       0x2b c:/nxp/lpcxpresso_4.0.5_123/lpcxpresso/tools/bin/../lib/gcc/arm-none-eabi/4.5.1/../../../../arm-none-eabi/lib/thumb2\libcr_c.a(printf.o)
 .comment       0x00000000       0x2b c:/nxp/lpcxpresso_4.0.5_123/lpcxpresso/tools/bin/../lib/gcc/arm-none-eabi/4.5.1/../../../../arm-none-eabi/lib/thumb2\libcr_c.a(stdio.o)
 .comment       0x00000000       0x2b c:/nxp/lpcxpresso_4.0.5_123/lpcxpresso/tools/bin/../lib/gcc/arm-none-eabi/4.5.1/../../../../arm-none-eabi/lib/thumb2\libcr_c.a(strlen.o)
 .comment       0x00000000       0x2b c:/nxp/lpcxpresso_4.0.5_123/lpcxpresso/tools/bin/../lib/gcc/arm-none-eabi/4.5.1/../../../../arm-none-eabi/lib/thumb2\libcr_c.a(strncpy.o)
 .comment       0x00000000       0x2b c:/nxp/lpcxpresso_4.0.5_123/lpcxpresso/tools/bin/../lib/gcc/arm-none-eabi/4.5.1/../../../../arm-none-eabi/lib/thumb2\libcr_c.a(memcpy.o)
 .comment       0x00000000       0x2b c:/nxp/lpcxpresso_4.0.5_123/lpcxpresso/tools/bin/../lib/gcc/arm-none-eabi/4.5.1/../../../../arm-none-eabi/lib/thumb2\libcr_c.a(memset.o)
 .comment       0x00000000       0x2b c:/nxp/lpcxpresso_4.0.5_123/lpcxpresso/tools/bin/../lib/gcc/arm-none-eabi/4.5.1/../../../../arm-none-eabi/lib/thumb2\libcr_c.a(__fillbuf.o)
 .comment       0x00000000       0x2b c:/nxp/lpcxpresso_4.0.5_123/lpcxpresso/tools/bin/../lib/gcc/arm-none-eabi/4.5.1/../../../../arm-none-eabi/lib/thumb2\libcr_c.a(_deferredlazyseek.o)
 .comment       0x00000000       0x2b c:/nxp/lpcxpresso_4.0.5_123/lpcxpresso/tools/bin/../lib/gcc/arm-none-eabi/4.5.1/../../../../arm-none-eabi/lib/thumb2\libcr_c.a(_fflush.o)
 .comment       0x00000000       0x2b c:/nxp/lpcxpresso_4.0.5_123/lpcxpresso/tools/bin/../lib/gcc/arm-none-eabi/4.5.1/../../../../arm-none-eabi/lib/thumb2\libcr_c.a(_frexpl.o)
 .comment       0x00000000       0x2b c:/nxp/lpcxpresso_4.0.5_123/lpcxpresso/tools/bin/../lib/gcc/arm-none-eabi/4.5.1/../../../../arm-none-eabi/lib/thumb2\libcr_c.a(_ldexpl.o)
 .comment       0x00000000       0x2b c:/nxp/lpcxpresso_4.0.5_123/lpcxpresso/tools/bin/../lib/gcc/arm-none-eabi/4.5.1/../../../../arm-none-eabi/lib/thumb2\libcr_c.a(_writebuf.o)
 .comment       0x00000000       0x2b c:/nxp/lpcxpresso_4.0.5_123/lpcxpresso/tools/bin/../lib/gcc/arm-none-eabi/4.5.1/../../../../arm-none-eabi/lib/thumb2\libcr_c.a(alloc.o)
 .comment       0x00000000       0x2b c:/nxp/lpcxpresso_4.0.5_123/lpcxpresso/tools/bin/../lib/gcc/arm-none-eabi/4.5.1/../../../../arm-none-eabi/lib/thumb2\libcr_c.a(ctype.o)
 .comment       0x00000000       0x2b c:/nxp/lpcxpresso_4.0.5_123/lpcxpresso/tools/bin/../lib/gcc/arm-none-eabi/4.5.1/../../../../arm-none-eabi/lib/thumb2\libcr_c.a(errno.o)
 .comment       0x00000000       0x2b c:/nxp/lpcxpresso_4.0.5_123/lpcxpresso/tools/bin/../lib/gcc/arm-none-eabi/4.5.1/../../../../arm-none-eabi/lib/thumb2\libcr_c.a(fseek.o)
 .comment       0x00000000       0x2b c:/nxp/lpcxpresso_4.0.5_123/lpcxpresso/tools/bin/../lib/gcc/arm-none-eabi/4.5.1/../../../../arm-none-eabi/lib/thumb2\libcr_c.a(ftell.o)
 .comment       0x00000000       0x2b c:/nxp/lpcxpresso_4.0.5_123/lpcxpresso/tools/bin/../lib/gcc/arm-none-eabi/4.5.1/../../../../arm-none-eabi/lib/thumb2\libcr_c.a(__init_alloc.o)
 .comment       0x00000000       0x2b c:/nxp/lpcxpresso_4.0.5_123/lpcxpresso/tools/bin/../lib/gcc/arm-none-eabi/4.5.1/../../../../arm-none-eabi/lib/thumb2\libcr_c.a(_hugeval.o)
 .comment       0x00000000       0x2b c:/nxp/lpcxpresso_4.0.5_123/lpcxpresso/tools/bin/../lib/gcc/arm-none-eabi/4.5.1/thumb2\libcr_eabihelpers.a(double.o)
 .comment       0x00000000       0x2b c:/nxp/lpcxpresso_4.0.5_123/lpcxpresso/tools/bin/../lib/gcc/arm-none-eabi/4.5.1/../../../../arm-none-eabi/lib/thumb2\libcr_semihost.a(_cr_sbrk.o)
 .comment       0x00000000       0x2b c:/nxp/lpcxpresso_4.0.5_123/lpcxpresso/tools/bin/../lib/gcc/arm-none-eabi/4.5.1/../../../../arm-none-eabi/lib/thumb2\libcr_semihost.a(_cr_check_heap.o)

.ARM.attributes
                0x00000000       0x2f
 .ARM.attributes
                0x00000000       0x31 ./cr_startup_lpc17.o
 .ARM.attributes
                0x00000031       0x31 ./main.o
 .ARM.attributes
                0x00000062       0x31 C:\Users\Envido32\Documents\LPCXpresso_4.0.5_123\workspace\Lib_CMSISv1p30_LPC17xx\Debug\libCMSISv1p30_LPC17xx.a(system_LPC17xx.o)
 .ARM.attributes
                0x00000093       0x31 C:\Users\Envido32\Documents\LPCXpresso_4.0.5_123\workspace\Lib_MCU\Debug\libLib_MCU.a(lpc17xx_gpio.o)
 .ARM.attributes
                0x000000c4       0x31 C:\Users\Envido32\Documents\LPCXpresso_4.0.5_123\workspace\FreeRTOS_Library\Debug\libFreeRTOS_Library.a(queue.o)
 .ARM.attributes
                0x000000f5       0x31 C:\Users\Envido32\Documents\LPCXpresso_4.0.5_123\workspace\FreeRTOS_Library\Debug\libFreeRTOS_Library.a(tasks.o)
 .ARM.attributes
                0x00000126       0x31 C:\Users\Envido32\Documents\LPCXpresso_4.0.5_123\workspace\FreeRTOS_Library\Debug\libFreeRTOS_Library.a(heap_2.o)
 .ARM.attributes
                0x00000157       0x31 C:\Users\Envido32\Documents\LPCXpresso_4.0.5_123\workspace\FreeRTOS_Library\Debug\libFreeRTOS_Library.a(port.o)
 .ARM.attributes
                0x00000188       0x31 C:\Users\Envido32\Documents\LPCXpresso_4.0.5_123\workspace\FreeRTOS_Library\Debug\libFreeRTOS_Library.a(list.o)
 .ARM.attributes
                0x000001b9       0x31 c:/nxp/lpcxpresso_4.0.5_123/lpcxpresso/tools/bin/../lib/gcc/arm-none-eabi/4.5.1/../../../../arm-none-eabi/lib/thumb2\libcr_c.a(fpprintf.o)
 .ARM.attributes
                0x000001ea       0x31 c:/nxp/lpcxpresso_4.0.5_123/lpcxpresso/tools/bin/../lib/gcc/arm-none-eabi/4.5.1/../../../../arm-none-eabi/lib/thumb2\libcr_c.a(printf.o)
 .ARM.attributes
                0x0000021b       0x31 c:/nxp/lpcxpresso_4.0.5_123/lpcxpresso/tools/bin/../lib/gcc/arm-none-eabi/4.5.1/../../../../arm-none-eabi/lib/thumb2\libcr_c.a(stdio.o)
 .ARM.attributes
                0x0000024c       0x31 c:/nxp/lpcxpresso_4.0.5_123/lpcxpresso/tools/bin/../lib/gcc/arm-none-eabi/4.5.1/../../../../arm-none-eabi/lib/thumb2\libcr_c.a(strlen.o)
 .ARM.attributes
                0x0000027d       0x31 c:/nxp/lpcxpresso_4.0.5_123/lpcxpresso/tools/bin/../lib/gcc/arm-none-eabi/4.5.1/../../../../arm-none-eabi/lib/thumb2\libcr_c.a(strncpy.o)
 .ARM.attributes
                0x000002ae       0x31 c:/nxp/lpcxpresso_4.0.5_123/lpcxpresso/tools/bin/../lib/gcc/arm-none-eabi/4.5.1/../../../../arm-none-eabi/lib/thumb2\libcr_c.a(memcpy.o)
 .ARM.attributes
                0x000002df       0x31 c:/nxp/lpcxpresso_4.0.5_123/lpcxpresso/tools/bin/../lib/gcc/arm-none-eabi/4.5.1/../../../../arm-none-eabi/lib/thumb2\libcr_c.a(memset.o)
 .ARM.attributes
                0x00000310       0x31 c:/nxp/lpcxpresso_4.0.5_123/lpcxpresso/tools/bin/../lib/gcc/arm-none-eabi/4.5.1/../../../../arm-none-eabi/lib/thumb2\libcr_c.a(__fillbuf.o)
 .ARM.attributes
                0x00000341       0x31 c:/nxp/lpcxpresso_4.0.5_123/lpcxpresso/tools/bin/../lib/gcc/arm-none-eabi/4.5.1/../../../../arm-none-eabi/lib/thumb2\libcr_c.a(_deferredlazyseek.o)
 .ARM.attributes
                0x00000372       0x31 c:/nxp/lpcxpresso_4.0.5_123/lpcxpresso/tools/bin/../lib/gcc/arm-none-eabi/4.5.1/../../../../arm-none-eabi/lib/thumb2\libcr_c.a(_fflush.o)
 .ARM.attributes
                0x000003a3       0x31 c:/nxp/lpcxpresso_4.0.5_123/lpcxpresso/tools/bin/../lib/gcc/arm-none-eabi/4.5.1/../../../../arm-none-eabi/lib/thumb2\libcr_c.a(_frexpl.o)
 .ARM.attributes
                0x000003d4       0x31 c:/nxp/lpcxpresso_4.0.5_123/lpcxpresso/tools/bin/../lib/gcc/arm-none-eabi/4.5.1/../../../../arm-none-eabi/lib/thumb2\libcr_c.a(_ldexpl.o)
 .ARM.attributes
                0x00000405       0x31 c:/nxp/lpcxpresso_4.0.5_123/lpcxpresso/tools/bin/../lib/gcc/arm-none-eabi/4.5.1/../../../../arm-none-eabi/lib/thumb2\libcr_c.a(_writebuf.o)
 .ARM.attributes
                0x00000436       0x31 c:/nxp/lpcxpresso_4.0.5_123/lpcxpresso/tools/bin/../lib/gcc/arm-none-eabi/4.5.1/../../../../arm-none-eabi/lib/thumb2\libcr_c.a(alloc.o)
 .ARM.attributes
                0x00000467       0x31 c:/nxp/lpcxpresso_4.0.5_123/lpcxpresso/tools/bin/../lib/gcc/arm-none-eabi/4.5.1/../../../../arm-none-eabi/lib/thumb2\libcr_c.a(ctype.o)
 .ARM.attributes
                0x00000498       0x31 c:/nxp/lpcxpresso_4.0.5_123/lpcxpresso/tools/bin/../lib/gcc/arm-none-eabi/4.5.1/../../../../arm-none-eabi/lib/thumb2\libcr_c.a(errno.o)
 .ARM.attributes
                0x000004c9       0x31 c:/nxp/lpcxpresso_4.0.5_123/lpcxpresso/tools/bin/../lib/gcc/arm-none-eabi/4.5.1/../../../../arm-none-eabi/lib/thumb2\libcr_c.a(fseek.o)
 .ARM.attributes
                0x000004fa       0x31 c:/nxp/lpcxpresso_4.0.5_123/lpcxpresso/tools/bin/../lib/gcc/arm-none-eabi/4.5.1/../../../../arm-none-eabi/lib/thumb2\libcr_c.a(ftell.o)
 .ARM.attributes
                0x0000052b       0x31 c:/nxp/lpcxpresso_4.0.5_123/lpcxpresso/tools/bin/../lib/gcc/arm-none-eabi/4.5.1/../../../../arm-none-eabi/lib/thumb2\libcr_c.a(__init_alloc.o)
 .ARM.attributes
                0x0000055c       0x31 c:/nxp/lpcxpresso_4.0.5_123/lpcxpresso/tools/bin/../lib/gcc/arm-none-eabi/4.5.1/../../../../arm-none-eabi/lib/thumb2\libcr_c.a(_hugeval.o)
 .ARM.attributes
                0x0000058d       0x21 c:/nxp/lpcxpresso_4.0.5_123/lpcxpresso/tools/bin/../lib/gcc/arm-none-eabi/4.5.1/thumb2\libcr_eabihelpers.a(division.o)
 .ARM.attributes
                0x000005ae       0x31 c:/nxp/lpcxpresso_4.0.5_123/lpcxpresso/tools/bin/../lib/gcc/arm-none-eabi/4.5.1/thumb2\libcr_eabihelpers.a(double.o)
 .ARM.attributes
                0x000005df       0x21 c:/nxp/lpcxpresso_4.0.5_123/lpcxpresso/tools/bin/../lib/gcc/arm-none-eabi/4.5.1/thumb2\libcr_eabihelpers.a(memcpy.o)
 .ARM.attributes
                0x00000600       0x21 c:/nxp/lpcxpresso_4.0.5_123/lpcxpresso/tools/bin/../lib/gcc/arm-none-eabi/4.5.1/../../../../arm-none-eabi/lib/thumb2\libcr_semihost.a(__sys_appexit.o)
 .ARM.attributes
                0x00000621       0x21 c:/nxp/lpcxpresso_4.0.5_123/lpcxpresso/tools/bin/../lib/gcc/arm-none-eabi/4.5.1/../../../../arm-none-eabi/lib/thumb2\libcr_semihost.a(__sys_flen.o)
 .ARM.attributes
                0x00000642       0x21 c:/nxp/lpcxpresso_4.0.5_123/lpcxpresso/tools/bin/../lib/gcc/arm-none-eabi/4.5.1/../../../../arm-none-eabi/lib/thumb2\libcr_semihost.a(__sys_istty.o)
 .ARM.attributes
                0x00000663       0x21 c:/nxp/lpcxpresso_4.0.5_123/lpcxpresso/tools/bin/../lib/gcc/arm-none-eabi/4.5.1/../../../../arm-none-eabi/lib/thumb2\libcr_semihost.a(__sys_read.o)
 .ARM.attributes
                0x00000684       0x21 c:/nxp/lpcxpresso_4.0.5_123/lpcxpresso/tools/bin/../lib/gcc/arm-none-eabi/4.5.1/../../../../arm-none-eabi/lib/thumb2\libcr_semihost.a(__sys_readc.o)
 .ARM.attributes
                0x000006a5       0x21 c:/nxp/lpcxpresso_4.0.5_123/lpcxpresso/tools/bin/../lib/gcc/arm-none-eabi/4.5.1/../../../../arm-none-eabi/lib/thumb2\libcr_semihost.a(__sys_seek.o)
 .ARM.attributes
                0x000006c6       0x21 c:/nxp/lpcxpresso_4.0.5_123/lpcxpresso/tools/bin/../lib/gcc/arm-none-eabi/4.5.1/../../../../arm-none-eabi/lib/thumb2\libcr_semihost.a(__sys_write.o)
 .ARM.attributes
                0x000006e7       0x31 c:/nxp/lpcxpresso_4.0.5_123/lpcxpresso/tools/bin/../lib/gcc/arm-none-eabi/4.5.1/../../../../arm-none-eabi/lib/thumb2\libcr_semihost.a(_cr_sbrk.o)
 .ARM.attributes
                0x00000718       0x31 c:/nxp/lpcxpresso_4.0.5_123/lpcxpresso/tools/bin/../lib/gcc/arm-none-eabi/4.5.1/../../../../arm-none-eabi/lib/thumb2\libcr_semihost.a(_cr_check_heap.o)

.debug_frame    0x00000000      0xa38
 .debug_frame   0x00000000       0xc8 ./cr_startup_lpc17.o
 .debug_frame   0x000000c8       0x6c ./main.o
 .debug_frame   0x00000134       0x48 C:\Users\Envido32\Documents\LPCXpresso_4.0.5_123\workspace\Lib_CMSISv1p30_LPC17xx\Debug\libCMSISv1p30_LPC17xx.a(system_LPC17xx.o)
 .debug_frame   0x0000017c      0x2c4 C:\Users\Envido32\Documents\LPCXpresso_4.0.5_123\workspace\Lib_MCU\Debug\libLib_MCU.a(lpc17xx_gpio.o)
 .debug_frame   0x00000440      0x19c C:\Users\Envido32\Documents\LPCXpresso_4.0.5_123\workspace\FreeRTOS_Library\Debug\libFreeRTOS_Library.a(queue.o)
 .debug_frame   0x000005dc      0x2c4 C:\Users\Envido32\Documents\LPCXpresso_4.0.5_123\workspace\FreeRTOS_Library\Debug\libFreeRTOS_Library.a(tasks.o)
 .debug_frame   0x000008a0       0x68 C:\Users\Envido32\Documents\LPCXpresso_4.0.5_123\workspace\FreeRTOS_Library\Debug\libFreeRTOS_Library.a(heap_2.o)
 .debug_frame   0x00000908       0xc8 C:\Users\Envido32\Documents\LPCXpresso_4.0.5_123\workspace\FreeRTOS_Library\Debug\libFreeRTOS_Library.a(port.o)
 .debug_frame   0x000009d0       0x68 C:\Users\Envido32\Documents\LPCXpresso_4.0.5_123\workspace\FreeRTOS_Library\Debug\libFreeRTOS_Library.a(list.o)
